:020000040001F9
:10B00000081D0020D9B00100F3B00100F5B0010027
:10B010000000000000000000000000000000000030
:10B02000000000000000000000000000F7B0010078
:10B030000000000000000000F9B00100FBB00100BA
:10B0400079B10100FDB0010079B30100FDB001004C
:10B05000FDB0010000000000FDB00100FDB00100E6
:10B06000FDB00100FDB00100FDB00100FDB0010028
:10B07000FDB00100FDB00100FDB00100FDB0010018
:10B08000FDB00100CDB10100FDB00100FDB0010037
:10B09000B1B20100FDB00100B9B20100FDB0010084
:10B0A000FDB00100FDB00100000000000000000044
:10B0B0000000000000000000000000000000000090
:10B0C0000448854600F046F8004800471DBC0100D2
:10B0D000C046C046081D00200321094802680A43F3
:10B0E0000260084802680A43026007488047074830
:10B0F0000047FEE7FEE7FEE7FEE7FEE7FEE70000AB
:10B100002405004054050040D9B20100C1B001003F
:10B1100003460B439B0703D009E008C9121F08C070
:10B12000042AFAD203E00B780370401C491C521E1B
:10B13000F9D27047421C0178401C0029FBD1801ACB
:10B14000704703460A780270401C491C002AF9D156
:10B1500018467047064C0125064E05E0E36807CC0B
:10B160002B430C3C98471034B442F7D3FFF7ACFFA5
:10B1700074C3010094C30100F8B5FF20013000F052
:10B18000A9FD002401250E4E0E4F002807D00E48C1
:10B1900004600120B0607D70002000F0E1F9FF2024
:10B1A000053000F097FD002808D00748001D046016
:10B1B0000220B060BD70012000F0D2F9F8BD00009F
:10B1C00000030040101400200001004010B50649A3
:10B1D0000020086048608860C86003494039086002
:10B1E000486000F075FE10BD4011014010B50348E5
:10B1F0000078002801D100F0C9F810BD901400209B
:10B20000F8B506460C48144600780D46002801D1D2
:10B2100000F0BCF8002368460093037000F06CF95E
:10B2200022462946304600F009F804466846007870
:10B2300000F080F92046F8BD9014002070B50E464D
:10B2400018214843134914464518E86A1835002860
:10B2500004D001280FD0022805D113E0284600F0C1
:10B26000C9F8A04201D2002411E022463146284606
:10B2700000F0FBF80BE0284600F0BCF8A042F4D246
:10B280000446F2E73146284600F0BFF8044620465F
:10B2900070BD00009014002070B505460C460846AD
:10B2A000FFF748FF024621462846FFF7A9FF70BD79
:10B2B00010B500F0A3FD10BD10B506484068002889
:10B2C00005D08047002801D000F00AF910BD00F039
:10B2D0001FFA10BDFC13002010B500F059FA002829
:10B2E00005D01F491D484860C8131E4988611E4883
:10B2F000018CC9B201290BD1828C120708D1028DB1
:10B300001206120F042A03D1828D1206120F0AD0E0
:10B31000012921D1818C09071ED1018D0906090F50
:10B320000A2904D007E0114A01219160F5E7828DD6
:10B330001206120F05D00D290ED1808D0006000FC8
:10B340000AD10B480168012904D00A49016001684B
:10B350000129FCD1C021416110BD0000DFFF07C001
:10B3600000050040006C0040C00F00F000060040E7
:10B3700000EC06407593000010B50249024800F049
:10B3800044FF10BD241400200020004010B5124CD2
:10B3900002202061606111A0A06120465038E06168
:10B3A000402020620020A06260620CA1A1642146BE
:10B3B000E0621039E16410212165A0656065E065F7
:10B3C00009A1E01DFFF7BDFE08A12046FFF7B9FE69
:10B3D0002020A07110BD0000901400205465726DF3
:10B3E000696E616C00000000525454005345474799
:10B3F000455200000269C1688A4203D88068401A39
:10B40000801800E0501A401E7047F7B5064682B01B
:10B4100000200090F46817463069A04201D9051B4E
:10B4200002E0B168201A0D1AB0686D1E001BA84218
:10B4300000D80546BD4200D33D4670682A46001933
:10B440000399FFF765FE00987F1B40190090039851
:10B45000641940190390B068A04200D10024F46040
:10B46000002FD9D1009805B0F0BDF7B5C6681746D2
:10B4700004468068851B6068BD4206D98019019921
:10B48000FFF746FEF019E060FEBD2A4680190199DB
:10B49000FFF73EFE01987E1B411932466068FFF7B8
:10B4A00037FEE660FEBD02E008C8121F08C1002A90
:10B4B000FAD170477047002001E001C1121F002A35
:10B4C000FBD17047BFF34F8F04490348C860BFF3F7
:10B4D0004F8F00BFFDE700000400FA0500ED00E01B
:10B4E0000EB50021029000916A4601910148FFF7D4
:10B4F000E9FF0EBD0140000030B5EFF3108172B6D8
:10B50000094A54680123002C04D00370002900D19B
:10B5100062B630BD5360054B1D68054C2540156073
:10B520001C6000220270F1E7F413002080E100E0CB
:10B53000FC06FFBC08494A68002A0CD000280AD142
:10B54000EFF3108072B60A68044B1A6000224A605A
:10B55000002800D162B67047F413002000E100E03B
:10B5600070B5084C050009D010342168002907D0B7
:10B5700008682060496828468847F6E70834F4E7F9
:10B5800070BD000010140020F8B523484168002960
:10B590003ED00E6821494C6887688078E11B0D0217
:10B5A0002D0AED1C002814D101201D4A0004506012
:10B5B0001B4A403A50601B49400008601A49086025
:10B5C0001A49012008602F2000F0ACFB124901202D
:10B5D0008870B54200D23546E81900020F4B000AC8
:10B5E000403318600D4A5168001B091B0902090A03
:10B5F0000002000AC91C814209D9506818602F2036
:10B6000000F090FB01200749400480390860F8BD34
:10B6100000F0B4FBF8BD0000D0130020001501407D
:10B620004013014080E200E000E100E00010014032
:10B6300010B50E4900230A784C78A24212D0521C51
:10B64000D2B20A70022A00D10B700A78074B92001E
:10B6500018339A580260886810180002000A88603F
:10B66000012010BD0360002010BD0000D013002099
:10B670001CB514A10020FFF70FFE002069460870DA
:10B68000082401226946204600F09CFC00280FD1C6
:10B6900001A9204600F04EFE10A10020FFF7FCFD9E
:10B6A00001A90020FFF7F8FD13A10020FFF7F4FD2A
:10B6B000641CE4B27F2CE4D910A10020FFF7ECFD5C
:10B6C0001CBD00005363616E6E696E672049324392
:10B6D000206275732E2E2E0A0000000044657669E4
:10B6E000636520666F756E642061742061646472A6
:10B6F00065737320307800000A000000493243204F
:10B700007363616E20636F6D706C6574650A000011
:10B71000F8B51E4C2078002836D0E06800260028B6
:10B720000CD00025607800282ED1684652DF05280D
:10B7300006D0002806D0FFF7D3FE0BE00125F1E785
:10B74000012607E0009800F005FB2169002901D0DF
:10B7500000988847002D13D16078002814D16088A4
:10B7600069460880A06861DF052804D0002804D05D
:10B77000FFF7B6FE04E0012502E0E168A068884713
:10B78000002ECFD0002DE5D0F8BD0000FC13002026
:10B790001048018CC9B2012917D1818C090714D135
:10B7A000018D09060A0F03D1828D1206120F0ED0E9
:10B7B000090F012903D1828D1206120F07D0032928
:10B7C00003D1808D0006000F01D0002070470120BA
:10B7D00070470000C00F00F010B506A10020FFF771
:10B7E0005BFD0021012000F0C5F80A2000F07AFA84
:10B7F00010BD0000436C656172696E67204C434464
:10B800000A00000010B525A10020FFF745FD6420C7
:10B8100000F068FA0021032000F0E0F80A2000F0B0
:10B8200061FA0021032000F0D9F80A2000F05AFA4A
:10B830000021032000F0D2F80A2000F053FA002182
:10B84000022000F0CBF80A2000F04CFA002128205A
:10B8500000F090F80A2000F045FA0021082000F0DE
:10B8600089F80A2000F03EFA0021012000F082F859
:10B870000A2000F037FA0021062000F07BF80A20A9
:10B8800000F030FA00210C2000F074F80A2000F0DB
:10B8900029FA08A10020FFF7FFFC10BD496E69746A
:10B8A00069616C697A696E67204C43442E2E2E0ABA
:10B8B000000000004C434420496E697469616C6962
:10B8C0007A65640A00000000F8B50E4605000ED047
:10B8D00040208019C4B26946204600F02BFD18A113
:10B8E0000020FFF7D9FC002D03D01AA102E00020B0
:10B8F000EFE719A10020FFF7CFFC18A10020FFF708
:10B90000CBFC6946304600F015FD69460020FFF784
:10B91000C3FC14A10020FFF7BFFC6946204600F0DD
:10B9200009FD69460020FFF7B7FC11A10020FFF7D1
:10B93000B3FC80202043002100F01CF8F8BD00007B
:10B9400053657420437572736F723A20526F773D5E
:10B950000000000031000000300000002C20436F88
:10B960006C3D00002C20416464723D307800000082
:10B970000A00000038B50D460446694600F0DAFCBE
:10B980000EA10020FFF788FC69460020FFF784FC29
:10B990000EA10020FFF780FC002D01D00DA100E0DA
:10B9A0000DA10020FFF778FC2009294600F016F8C9
:10B9B0002007000F294600F011F838BD4C43442001
:10B9C000427974653A203078000000002C205253F0
:10B9D0003D000000310A0000300A00007CB50C4632
:10B9E000054601A900F0A6FC15A10020FFF754FCB4
:10B9F00001A90020FFF750FC15A10020FFF74CFC27
:10BA0000002C01D014A100E014A10020FFF744FC99
:10BA10001349280109780843002C01D0012100E0D6
:10BA200000210843042102460A4369460A7048700F
:10BA30000222272000F0C6FA642000F05BF97CBDEA
:10BA40004C4344204E6962626C653A2030780000B5
:10BA50002C2052533D000000310A0000300A000043
:10BA6000C813002070B505460CA10020FFF714FC98
:10BA700029460020FFF710FC0DA10020FFF70CFC69
:10BA8000002404E00121FFF775FF641CE4B2285D87
:10BA9000002801D0102CF5D370BD000057726974D6
:10BAA000696E6720537472696E673A200000000067
:10BAB0000A000000F0B5284C2146103948688B6810
:10BAC000227886469C46CF78667836E01823534322
:10BAD0006168521CC918A378D2B2934200D10022E7
:10BAE0000B78022B02D0032B27D123E003464D68AD
:10BAF000194603E0A94204D00B46C96900291CD0AD
:10BB0000F8E7002919D08B4208D1C069002805D177
:10BB1000124F0125BD600025AC4601270D68C9699B
:10BB2000D961002909D00B685B190B6005E001742D
:10BB3000C06900E000210028F9D19642C6D106492B
:10BB4000624610398A604860CF70704501D001208C
:10BB5000F0BD0020F0BD0000E01300200010014007
:10BB6000F8B52C4E044670680025009041E0002C8A
:10BB700002D02046E46920E02648182310300178DE
:10BB800042684B43491CC9B2D2180170837899426C
:10BB900000D105701178506801292CD1017C002951
:10BBA00029D191684160D16881601169C160516992
:10BBB0008161F178002900D045604368B268164F72
:10BBC000991A0902090AB94202D28268891806E064
:10BBD000D11A09028268090A8A4202D9511A0160FF
:10BBE00000E005604560012185600174C56100F0D9
:10BBF0004FF9002CBBD107481030017840788142C2
:10BC0000BAD171680098814201D00120F8BD0020AE
:10BC1000F8BD0000D0130020FFFF7F00FFF7E6FA19
:10BC20001CA10020FFF738FB00F092F9FFF720FD80
:10BC3000FFF7E8FDFFF7D0FD00210846FFF744FEBF
:10BC400018A0FFF70FFF00210120FFF73DFE19A00C
:10BC5000FFF708FF1AA10020FFF71EFBFFF7BCFD4E
:10BC600000210846FFF730FE01214820FFF782FE41
:10BC700001216520FFF77EFE01216C20FFF77AFE8F
:10BC800001216C20FFF776FE01216F20FFF772FE85
:10BC9000E4E7000050726F6772616D205374617247
:10BCA000740A000048656C6C6F206E52463531385E
:10BCB000323221004C43442054657374000000006C
:10BCC000446973706C617920436F6D706C65746545
:10BCD0000A0000000121890740180068002800D0F0
:10BCE000012070477D2110B5C900484300F002F8DB
:10BCF00010BD000000280FD00849094A096800BF9C
:10BD000000BF00BF00BF00BF00BF00BF00BF914227
:10BD100000D000BF0138F2D170470000CC130020E2
:10BD20000024F40000280FD00849094A096800BF20
:10BD300000BF00BF00BF00BF00BF00BF00BF9142F7
:10BD400000D000BF0138F2D170470000CC130020B2
:10BD50000024F40010B5002801D1FFF701FC10BD4C
:10BD60004058002800D0012070470322120280189A
:10BD70004068084000D001207047000070B50124E1
:10BD80000B49600408600B4940108860094940393C
:10BD90008860094D6C602F20FFF7C4FFAC60074D31
:10BDA00000242F20AC60FFF7BDFFAC7070BD000019
:10BDB00080E100E04013014000100140D01300205A
:10BDC00030B5FF220523CD7D002409321B02C318A4
:10BDD000002D8450986905D04B7ECA68D054487EA7
:10BDE000401C487630BD1FB501246B461C7019728B
:10BDF000019206C8684690471FBD0000FEB51F4C63
:10BE00000025A768606802906846FFF711FC019062
:10BE1000FFF750FE06460198002822D00023009824
:10BE2000616817E00E680A46864202D9301A086037
:10BE300012E0801BF31800261660D668D169B4465C
:10BE4000002E07D0FE183602360A56606646966007
:10BE5000D56115460029E5D128466160FFF780FECF
:10BE600006E02846FFF77CFE002801D1002E02D014
:10BE70000298FFF789FB0020E070FEBDD013002080
:10BE800001200249000508607047000000E200E060
:10BE900010B50E4B5968002906D002680C68A24202
:10BEA00004D8A21A0A60C161586010BD0B4604E0B4
:10BEB0000B46C969121B002904D00C689442F7D3C1
:10BEC000A41A0C600260C161D86110BDD0130020BB
:10BED000F8B51D4D6C68002C34D01C480027406814
:10BEE000A968401A0602360A2068B04218D8361AE5
:10BEF000C7192246107CE46900280FD00020107476
:10BF0000EB68002B07D0916950699847002805D04D
:10BF1000FFF7E6FA02E0516990698847002CE3D107
:10BF200029786878814206D1401CC0B26870022826
:10BF300001D10020687004490006800D18310F50AF
:10BF4000FFF79EFFF8BD0000D01300200015014050
:10BF500010B50DA10020FFF79FF9124810490161AB
:10BF6000C1601148042181600321C1603321C904EB
:10BF70004162052101600D490020C8618860486266
:10BF80000BA1FFF789F910BD496E697469616C698D
:10BF90007A696E67205457492E2E2E0A0000000041
:10BFA0000D06000000070050003500400031004041
:10BFB00054574920496E697469616C697A65640AED
:10BFC00000000000F7B582B01646054601A900F052
:10BFD000B1F955A10020FFF75FF901A90020FFF793
:10BFE0005BF957A10020FFF757F96946304600F08A
:10BFF000A1F969460020FFF74FF954A10020FFF78F
:10C000004BF900241EE003986946005D00F092F9A8
:10C010004FA10020FFF740F901A9204600F08AF95E
:10C0200001A90020FFF738F94BA10020FFF734F9F0
:10C0300069460020FFF730F944A10020FFF72CF9F2
:10C04000641CE4B2B442DED3454968088860454CBC
:10C050000020E0616062444901278F60054626E0C8
:10C060000398415D3E488038C161404800E020BFF0
:10C07000E169002904D1616A002901D1401EF6D28C
:10C08000E069002822D06946284600F053F938A11B
:10C090000020FFF701F969460020FFF7FDF82BA10A
:10C0A0000020FFF7F9F80020E0616D1CEDB2B54209
:10C0B000D6D32D48476160680028FCD0002060601E
:10C0C00031A1FFF7E9F8002005B0F0BD606A002853
:10C0D0001CD02348C038456830A10020FFF7DCF8A9
:10C0E000A80703D530A10020FFF7D6F8680703D5CD
:10C0F00031A10020FFF7D0F8002060621A494F619B
:10C1000061680029FCD060600820DDE72DA10020D7
:10C11000FFF7C2F81448476160680028FCD000208F
:10C1200060600D20D0E700005457492057726974B1
:10C13000653A20416464726573733D307800000095
:10C140002C204C656E6774683D0000000A000000FA
:10C150002020446174615B005D3D30780000000088
:10C16000803500400031004000300040A0860100D2
:10C170005457492054584453454E5420666F7220FA
:10C180006279746520000000545749205772697421
:10C190006520436F6D706C6574650A0054574920C3
:10C1A0004552524F523A20004164647265737320C5
:10C1B0004E41434B0A00000044617461204E4143EC
:10C1C0004B0A00005457492054696D656F75740A15
:10C1D00000000000FF221D32002383508B8A8A68F2
:10C1E000D25C8B8A5B1C8B82052109024018C261DC
:10C1F00070471FB500226B461A7019728168019151
:10C20000827506C8684690471FBDF0B50C460121EF
:10C2100085B005464902FFF7A8FD032109026F1802
:10C220000026002826D0FF2125312846FFF798FD5B
:10C2300000281FD0FF2025302E5081208000B860BC
:10C24000A07E002801D101206860022168460170AB
:10C250000920C0012918086808600390E17D68463C
:10C260000172E0680190E675267606CC6846083CC7
:10C2700090472DE004212846FFF777FD002827D0BE
:10C28000FF2109312846FFF76BFD002820D0214609
:10C290002846FFF795FDE07D617E884218D1207E1B
:10C2A000002807D0617EE268E0752069E0602676AC
:10C2B00066760AE0A07E002801D101206860812016
:10C2C0008000B860E675617EE2682046FFF78BFD6E
:10C2D000FF271D3739462846FFF742FD00280FD0BB
:10C2E000A08AA17D884204D221462846FFF772FF2A
:10C2F00006E0EE51A17D002902D02046FFF779FF2C
:10C30000FF27453739462846FFF72AFD00280ED07B
:10C31000EE51A07E002801D001202860E07D002899
:10C3200005D0E675617EE2682046FFF75CFD05B04A
:10C33000F0BD000030B585B00C460546142208A1BA
:10C340006846FEF7E5FE29096846415C2170290729
:10C35000090F405C60700020A07005B030BD000087
:10C36000303132333435363738394142434445462B
:10C370000000000094C30100C81300204800000022
:10C38000A6B40100DCC3010010140020F80800006E
:10C39000B6B40100080000000024F4000000000012
:10C3A000000000000000000000000000000000008D
:10C3B000000000000000000000000000000000007D
:10C3C000000000000000000000000000000000006D
:0CC3D00000000000000000000000000061
:040000050001B0C185
:00000001FF
