:020000040000FA
:10000000F80C0020D9000000F3000000F50000000B
:1000100000000000000000000000000000000000E0
:10002000000000000000000000000000F7000000D9
:100030000000000000000000F9000000FB000000CC
:10004000D1020000FD00000015040000590300006B
:10005000FD0000000000000059010000FD0000004C
:10006000FD000000FD000000FD0000002503000071
:10007000FD000000FD000000FD000000FD0000008C
:10008000FD00000039030000FD000000FD0000003D
:100090006D030000FD000000FD000000FD000000F9
:1000A000FD000000FD000000000000000000000056
:1000B0000000000000000000000000000000000040
:1000C0000448854600F036F800480047190B000048
:1000D000C046C046F80C00200321094802680A43C4
:1000E0000260084802680A430260074880470748E0
:1000F0000047FEE7FEE7FEE7FEE7FEE7FEE700005B
:10010000240500405405004075030000C1000000B4
:1001100003460B439B0703D009E008C9121F08C020
:10012000042AFAD203E00B780370401C491C521ECB
:10013000F9D27047064C0125064E05E0E36807CC6E
:100140002B430C3C98471034B442F7D3FFF7BCFF65
:100150002417000044170000F0B50024FF268BB0E0
:100160000136012527460694304600F09BFE002804
:1001700007D054484068284203D0304600F08AFE39
:100180002C43361D6D007F1CB6B2042FECD3FF2527
:100190007D35284600F086FE002809D0284600F06C
:1001A00079FE6807044306AA0121002000F05EFEE4
:1001B000454D200714D00127002627420CD0434884
:1001C000B200111808690969C004C00E8903AA5851
:1001D000890F002A00D090477F00761C042EECD3B4
:1001E000002C6DDA00200890401E63E02819403092
:1001F0000778B906890E009100214156491C49D063
:1002000009A9009800F09EFC002843D0B80901908D
:10021000009800F0E3F980002F580198002F02D0D9
:10022000032802D00DE0032834D1009808ABC2089F
:1002300041079446985C490F01228A401043624668
:1002400098540098052109078000401807210902E9
:100250004018006806A98003800F0290009800F003
:1002600071FC0028029802D0022802D012E0032874
:1002700010D10198032808D1029802281ED002212B
:10028000009800F0E1FD761CF6B2002F02D0019933
:100290000098B847641C042CA8D3002E10D06A46DE
:1002A0000121002000F0E2FD06990098884207D065
:1002B0000690089800263446099097E70321DFE767
:1002C0000BB0F0BD0063004054000020006500400A
:1002D000F8B5FF20013000F03DFC002401250E4E52
:1002E0000E4F002807D00E4804600120B0607D70DA
:1002F000002000F07BF9FF20053000F02BFC0028E7
:1003000008D00748001D04600220B060BD700120C5
:1003100000F06CF9F8BD0000000300404000002030
:100320000001004010B503220021024800F082FCC9
:1003300010BD000000B0004010B506490020086064
:1003400048608860C860034940390860486000F030
:100350007DFF10BD4011014010B50249024800F078
:1003600029FA10BD9C0000200030004010B500F0BC
:1003700003FF10BD10B500F073FA002805D01F4927
:100380001D484860C8131E4988611E48018CC9B2C7
:1003900001290BD1828C120708D1028D1206120F8F
:1003A000042A03D1828D1206120F0AD0012921D10D
:1003B000818C09071ED1018D0906090F0A2904D075
:1003C00007E0114A01219160F5E7828D1206120FB4
:1003D00005D00D290ED1808D0006000F0AD10B48E3
:1003E0000168012904D00A49016001680129FCD192
:1003F000C021416110BD0000DFFF07C000050040C3
:10040000006C0040C00F00F00006004000EC064009
:100410007593000010B50249024801F0C5F810BDFF
:10042000C40000200020004002E008C8121F08C1DC
:10043000002AFAD170477047002001E001C1121F65
:10044000002AFBD17047000010B509A1012000F07F
:100450001BFE00F06DFD00F071FD0028FBD1BFF325
:100460004F8F0A490848C860BFF34F8F00BFFDE7B0
:100470004150505F4552524F523A4552524F523AB4
:10048000466174616C0D0A000400FA0500ED00E09D
:100490000EB50021029000916A4601910148FFF7D4
:1004A000D3FF0EBD0140000000B500F005F800BD0F
:1004B00000B500F009F800BD72B602480168491C99
:1004C000016070472C00002003490868401E086046
:1004D00000D162B6704700002C000020F8B5074636
:1004E00008680C460526411C01253602002906D065
:1004F0002946814019488160206800F09BFC6068B3
:10050000411C02D0002100F08CFC3968A0698919D7
:100510004862607D217D3A6808439119C866386851
:1005200006CC80194261C160207B083C012814D1AF
:10053000A068411C02D0002100F073FCE068411C5F
:1005400005D0854005488560E06800F073FC3A6896
:10055000E1689219A06891601061F8BD0005005033
:1005600070B5461C0D4601240020FFF79DFF134A7D
:1005700010682860116850689368081A1D1A701C6A
:100580006D1CA84212D9002D0ED00D480D4C0088CC
:10059000246880051940800DA40289002043891831
:1005A000C8601068401C1060002401E088191060C9
:1005B0000020FFF77DFF204670BD0000E000002016
:1005C000F41600003C000020034803C8814201D11A
:1005D0000120704700207047E00000200249091800
:1005E00020200856704700005400002070B5084CC9
:1005F000050009D010342168002907D00868206060
:10060000496828468847F6E70834F4E770BD0000DB
:1006100040000020F8B52348416800293ED00E680C
:1006200021494C6887688078E11B0D022D0AED1C7A
:10063000002814D101201D4A000450601B4A403A92
:1006400050601B49400008601A4908601A4901209F
:1006500008602F2000F0A6FA124901208870B542E8
:1006600000D23546E81900020F4B000A40331860EB
:100670000D4A5168001B091B0902090A0002000A01
:10068000C91C814209D9506818602F2000F08AFAED
:1006900001200749400480390860F8BD00F02CFDB6
:1006A000F8BD00000C00002000150140401301407F
:1006B00080E200E000E100E00010014010B50E49CA
:1006C00000230A784C78A24212D0521CD2B20A708F
:1006D000022A00D10B700A78074B920018339A58FF
:1006E0000260886810180002000A8860012010BDAE
:1006F0000360002010BD00000C00002070B5074C06
:100700000825E5611026A660052000F033FA20696F
:10071000E6600007C017A561401C70BD00050050D1
:1007200010B5094C1820A061A060052000F022FA45
:100730000820E060052000F01DFA1020E060052090
:1007400000F018FA10BD00000005005070B5074C0D
:100750001820A0610825E5601020A060052000F0A9
:1007600009FAA560052000F005FA70BD00050050EB
:1007700070B50821074C002801D0A16000E0E160BD
:100780001025A560052000F0F5F9E560052000F0D2
:10079000F1F970BD0005005070B504460025E00970
:1007A000FFF7E6FF6006040E6D1C082DF7DBFFF770
:1007B000A5FF70BD7FB50C460D462035064669780D
:1007C00028780191009022462632D11E3046E369F6
:1007D00000F0F3FD002819D1E87800281DD1207B16
:1007E000022801D0032818D12269E169914214D16D
:1007F0006269E261E37B2B70217E8906C90F697013
:10080000032804D03146204600F070FD7FBD0091E2
:100810003146204600F056FE7FBD20460C3007C80A
:1008200001AB07C3E878002100280ED00920C001E1
:100830003218506C5064820701D5012002E0400755
:1008400005D502206A46107001E0684601702971E2
:10085000207E4007E0D422686846616890477FBDEB
:100860001048018CC9B2012917D1818C090714D114
:10087000018D09060A0F03D1828D1206120F0ED0C8
:10088000090F012903D1828D1206120F07D0032907
:1008900003D1808D0006000F01D000207047012099
:1008A00070470000C00F00F010B5002100F03CF8C8
:1008B000022000F057F910BD10B5322000F052F9B7
:1008C000302000F041F8052000F04CF9302000F015
:1008D0003BF8C82000F04EF9302000F035F8202019
:1008E00000F032F82820FFF7DFFF0C20FFF7DCFFD5
:1008F0000620FFF7D9FF0120FFF7D6FF052000F003
:1009000031F910BD10B50446012000F034F820463E
:1009100000F044F810BD10B50446022000F02BF89A
:10092000204600F03BF810BD70B50C4601460009AA
:10093000000109070D0E204300F006F82A46224365
:10094000104600F001F870BD10B50446FFF7E8FE50
:100950004E20FFF721FF20460C210843FFF71CFF24
:10096000052000F007F9204608210843FFF714FF8F
:10097000FFF7ECFE10BD10B5012805D0022802D10A
:10098000C020FFF791FF10BD8020FAE710B50121CC
:10099000FFF7CAFF022000F0E5F810BD10B50446CD
:1009A00002E0641CFFF7F2FF20780028F9D110BDA7
:1009B000F0B5284C2146103948688B682278864665
:1009C0009C46CF78667836E0182353436168521C02
:1009D000C918A378D2B2934200D100220B78022B1F
:1009E00002D0032B27D123E003464D68194603E0CC
:1009F000A94204D00B46C96900291CD0F8E7002998
:100A000019D08B4208D1C069002805D1124F0125A9
:100A1000BD600025AC4601270D68C969D961002970
:100A200009D00B685B190B6005E00174C06900E038
:100A300000210028F9D19642C6D1064962461039F4
:100A40008A604860CF70704501D00120F0BD002061
:100A5000F0BD00001C00002000100140F8B52C4E35
:100A6000044670680025009041E0002C02D020462A
:100A7000E46920E0264818231030017842684B438F
:100A8000491CC9B2D21801708378994200D105700F
:100A90001178506801292CD1017C002929D1916855
:100AA0004160D16881601169C16051698161F178EB
:100AB000002900D045604368B268164F991A0902B0
:100AC000090AB94202D28268891806E0D11A0902DD
:100AD0008268090A8A4202D9511A016000E0056061
:100AE0004560012185600174C56100F08FFB002C19
:100AF000BBD107481030017840788142BAD1716883
:100B00000098814201D00120F8BD0020F8BD00000E
:100B10000C000020FFFF7F00054918208861FFF7C7
:100B2000CBFE04A0FFF7EEFE04A0FFF7F4FEFEE705
:100B30000005005048656C6C6F000000576F726CC8
:100B400064000000C20843075B0F0120895C9840E5
:100B5000084070470121890740180068002800D02C
:100B6000012070477D2110B5C900484300F002F80C
:100B700010BD000000280FD00849094A096800BFCD
:100B800000BF00BF00BF00BF00BF00BF00BF914259
:100B900000D000BF0138F2D17047000000000020F3
:100BA0000024F40000280FD00849094A096800BF52
:100BB00000BF00BF00BF00BF00BF00BF00BF914229
:100BC00000D000BF0138F2D17047000000000020C3
:100BD0000024F4008207D30EFF229A408907090EF1
:100BE00010B5994000280BDA03071B0F083B9C083F
:100BF0000C4BA400E318DC6994430C43DC6107E070
:100C00008408094BA400E418236893430B43236032
:100C1000C106C90E012088400449086004490860E3
:100C200010BD000000ED00E000E400E080E200E024
:100C300000E100E0F7B5044682B0FF2041300090AB
:100C40000125032089002D040027000226180191A8
:100C500016E0706828420DD000982058002809D06E
:100C6000B564B560009800212150184A0199F8B286
:100C70005158884700986D00001D80B27F1C00907D
:100C800004988742E5D3FF2071680130C907C90F76
:100C900009D02158002906D0002121500B49019884
:100CA000095804208847FF200530726802210A4253
:100CB00009D02158002906D000212150034901986C
:100CC00009580520884705B0F0BD00000800002045
:100CD000F8B506460F4600791C2148431A491546C7
:100CE0004418E07E002801D00820F8BD394630467F
:100CF000FFF7F4FB6560386920602846002500286E
:100D000013D0FF223068397F1D328550FF223068B2
:100D100045328550032330681B020C4AC0184260DC
:100D20003068000B40B2FFF755FF05223068042100
:100D3000120280180160E5752576A5750121E1761E
:100D40002846A576F8BD0000C400002080000200FF
:100D5000F8B501791C225143204A00238D18052241
:100D60000168120289180B60696800290CD00324FD
:100D7000016824021A4B09198B600168C903CB0E64
:100D800001219940174B19600522016812028A1847
:100D9000D3685669976814690021C9435161D160CD
:100DA000006805221202801881600161581C02D07F
:100DB000184600F02DF8701C02D0304600F028F8DC
:100DC000601C02D0204600F023F8781C02D0384680
:100DD00000F01EF80020E8766860F8BDC40000202E
:100DE0008402020080E100E070B552000A439900DD
:100DF000049D0A432902059E0A43310405240A433F
:100E0000240780000721001909024018026070BD04
:100E10001CB5002100910B4601220191FFF7E4FF70
:100E20001CBD1CB500220B46009211460192FFF733
:100E3000DBFF1CBD1CB5002100910B460122019176
:100E40001146FFF7D1FF1CBD052212078000821852
:100E5000072000021018026803231B049A43026053
:100E6000026809040A4302607047000038B5084B65
:100E700005241B68009324026B46411805E0850099
:100E80005D592D192D69401C20C28142F7D838BD0B
:100E9000D016000002494018002101607047000090
:100EA00000600040034940180068012800D000207D
:100EB000704700000060004030B5194C05462078AE
:100EC00089B0002805D06078854202D1002009B0A1
:100ED00030BD202213496846FFF71AF90020694601
:100EE0000875092000900B200190082003900A202B
:100EF00002900D4806900A48001DFFF729FF002DBB
:100F000001D0002200E0094A05486946001DFFF7AC
:100F1000DFFE0028DBD1012020706570D6E70000DD
:100F200030000020D416000000E0D7019915000021
:100F300010B50120FFF7C0FF10BD0000F0B595B05F
:100F4000FFF742FB002802D0002015B0F0BD4B484F
:100F50004468866821463140890009180A94CD68A2
:100F60000BE02904A80D890D4018041920463040D3
:100F7000810042480A940818C568641CA807F0D08C
:100F800000200990A807800F3D4B022807D0A80A2F
:100F90008646A805000F84460FA9002059E0204688
:100FA000304081003548641C0818C06804948646A7
:100FB0002804800D84463440301B8000AF0D001D96
:100FC000874222D92D490C31002807D02B4AA40092
:100FD000A21814460C34C2B2381A03E00C460021A1
:100FE000FAB20846C0B20390019202910094A8069A
:100FF0005C69400F634672460999A047B84213D115
:10100000FF1C0498B9080C1830E01C48A200101806
:1010100000210C300090029101970391A8065C69B1
:10102000400F63467246E8E7164980050D40000C04
:1010300005430A983040810010480818C56017E041
:1010400027463740BA000D4F401CD719FF68641C73
:1010500080C167466045F3D3A80600971D69400F1D
:101060000FAB72460999A847002801D00348446095
:10107000FFF7AAFA0121484067E70000E0000020DE
:10108000E00400203F00FFFFF8B5104D0E46074674
:1010900000206946AC68FFF763FA002815D00C48B9
:1010A0003C21808888437907890E08430F218901F4
:1010B00088438105890DB002014300980246224011
:1010C00092005219401CD1600090F8BDE000002051
:1010D000F41600004058002800D001207047405806
:1010E000002800D0012070470322120280184068B7
:1010F000084000D00120704770B501240B496004FE
:1011000008600B4940108860094940398860094DE2
:101110006C602F20FFF746FDAC60074D00242F20A8
:10112000AC60FFF73FFDAC7070BD000080E100E0F7
:1011300040130140001001400C00002030B5FF2298
:101140000523CD7D002409321B02C318002D8450D5
:10115000986905D04B7ECA68D054487E401C4876BA
:1011600030BD1FB501246B461C701972019206C870
:10117000684690471FBD0000FEB51F4C0025A768BC
:10118000606802906846FFF799FA0190FFF710FC3B
:1011900006460198002822D000230098616817E0D5
:1011A0000E680A46864202D9301A086012E0801B97
:1011B000F31800261660D668D169B446002E07D011
:1011C000FE183602360A566066469660D5611546A8
:1011D0000029E5D128466160FFF740FC06E028467B
:1011E000FFF73CFC002801D1002E02D00298FFF747
:1011F00011FA0020E070FEBD0C0000200120024921
:10120000000508607047000000E200E010B50E4BDA
:101210005968002906D002680C68A24204D8A21AB4
:101220000A60C161586010BD0B4604E00B46C969F5
:10123000121B002904D00C689442F7D3A41A0C6046
:101240000260C161D86110BD0C000020F8B51D4DD1
:101250006C68002C34D01C4800274068A968401AEC
:101260000602360A2068B04218D8361AC719224634
:10127000107CE46900280FD000201074EB68002B6C
:1012800007D0916950699847002805D0FFF700F909
:1012900002E0516990698847002CE3D12978687889
:1012A000814206D1401CC0B26870022801D10020E2
:1012B000687004490006800D18310F50FFF79EFF3B
:1012C000F8BD00000C00002000150140014603207D
:1012D000CA0701D0412040028A0700D502484907C9
:1012E00001D50148401C704701820000FFB50C4643
:1012F00085B000210491FF21053100261F4666506C
:10130000FF2125316650FF211D316650FF21093133
:10131000665005462035E11DFF31AE71FA31EE70A1
:10132000012F0FD001220A60012121622160016892
:10133000002909D0144981608068032109026118DD
:1013400048601DE00222EEE701462631233003917A
:101350000290009701962046079B039A029900F09D
:101360002CF80028F5D1E878002809D00920C00120
:101370002118486C4864002802D0FFF7A7FF0490AA
:10138000049809B0F0BD00008602000030B51C785A
:10139000039D944208D205221202095D8018C161A2
:1013A0001878401C187006E00121002D02D0C161A0
:1013B000002030BD4161012030BDFFB50F460978E6
:1013C00083B00446002904D1059802780C98824223
:1013D00001D1012000E000200190FF2025300025F0
:1013E000002907D02550FF201D302550FF2009304F
:1013F000255055E0FF2125312046FFF76BFE0126E1
:1014000000282CD1FF211D312046FFF763FE002864
:1014100014D0FF201D302550FF2125312046FFF735
:1014200059FE00281BD10D9800902046059B0C9A70
:101430000699FFF7ABFF00283FD031E0FF210931CB
:101440002046FFF747FE00282AD0FF20093025500C
:10145000FF2125312046FFF73DFE002805D0FF2063
:101460002530255066613E701AE005990C980F787A
:10147000069ABC46874213D205231B02E3189B69D8
:101480006746D3550A78521CD2B20A70411E8A426E
:1014900003D102200102085101E0824200D02662FD
:1014A000019800280BD0FF26053631462046FFF76D
:1014B00011FE002803D0A551002007B0F0BD012087
:1014C000FBE70000FFB5054687B00C460020FF2172
:1014D000109F053105906050FF2125316050FF219C
:1014E0001D316050FF2109316050012149022E4613
:1014F00008512036B071F07001202062A060B31D49
:101500000097029320460A9A0999FFF73FFF28683F
:10151000002807D01148A860A868032109026118B3
:10152000486018E023350A98009001972946204624
:10153000099B029AFFF741FF0028F4D1F0780028B8
:1015400009D00920C0012118486C4864002802D045
:10155000FFF7BCFE059005980BB0F0BD86020000B9
:10156000FF221D32002383508B8A8A68D25C8B8ACB
:101570005B1C8B82052109024018C26170471FB5B0
:1015800000226B461A70197281680191827506C833
:10159000684690471FBD00000078012801D101492D
:1015A0008870704730000020F0B50C46012185B0EE
:1015B00005464902FFF798FD032109026F1800262E
:1015C000002826D0FF2125312846FFF788FD002876
:1015D0001FD0FF2025302E5081208000B860A07ED3
:1015E000002801D1012068600221684601700920AD
:1015F000C0012918086808600390E17D68460172FF
:10160000E0680190E675267606CC6846083C90476F
:101610002DE004212846FFF767FD002827D0FF2191
:1016200009312846FFF75BFD002820D021462846D7
:10163000FFF784FDE07D617E884218D1207E00287E
:1016400007D0617EE268E0752069E0602676667604
:101650000AE0A07E002801D101206860812080007E
:10166000B860E675617EE2682046FFF77AFDFF27E5
:101670001D3739462846FFF732FD00280FD0A08AD3
:10168000A17D884204D221462846FFF769FF06E083
:10169000EE51A17D002902D02046FFF770FFFF2701
:1016A000453739462846FFF71AFD00280ED0EE517F
:1016B000A07E002801D001202860E07D002805D010
:1016C000E675617EE2682046FFF74BFD05B0F0BD90
:1016D00000000050FFFFFFFFFFFFFFFFFFFFFFFFC6
:1016E000FFFFFFFF000000000000000000E0D70146
:1016F00003000000290000000100000001000000BC
:1017000001000000010000000100000001000000D5
:1017100001000000020000004F766572666C6F7772
:101720000D0A0000441700000000002040000000E7
:10173000280400008417000040000020B80C0000BE
:10174000380400000024F400000000000000000045
:101750000000000000000000000000000000000089
:101760000000000000000000000000000000000079
:101770000000000000000000002000400000000009
:041780001817000036
:04000005000000C136
:00000001FF
