:020000040001F9
:10B00000202B0020D9B00100F3B00100F5B0010001
:10B010000000000000000000000000000000000030
:10B02000000000000000000000000000F7B0010078
:10B030000000000000000000F9B00100FBB00100BA
:10B04000D5B30100FDB00100D5B50100FDB0010090
:10B05000FDB00100000000005DB20100FDB0010084
:10B06000FDB00100FDB00100FDB00100FDB0010028
:10B07000FDB00100FDB00100FDB00100FDB0010018
:10B08000FDB0010029B40100FDB00100FDB00100D8
:10B090000DB50100FDB0010015B50100FDB00100C6
:10B0A000FDB00100FDB00100000000000000000044
:10B0B0000000000000000000000000000000000090
:10B0C0000448854600F096F80048004715C5010081
:10B0D000C046C046202B00200321094802680A43CD
:10B0E0000260084802680A43026007488047074830
:10B0F0000047FEE7FEE7FEE7FEE7FEE7FEE70000AB
:10B10000240500405405004035B50100C1B00100E0
:10B1100003460B439B0703D009E008C9121F08C070
:10B12000042AFAD203E00B780370401C491C521E1B
:10B13000F9D27047D2B201E00270401C491EFBD226
:10B1400070470022F6E710B513460A460446194632
:10B15000FFF7F0FF204610BD421C0178401C00297B
:10B16000FBD1801A704730B504460020034600E04A
:10B170005B1C934203D2E05CCD5C401BF8D030BD39
:10B1800003460A780270401C491C002AF9D118466F
:10B190007047F0B51FB40646002082B00546402433
:10B1A000019100901BE0019922460F46304600F0C5
:10B1B00043F8049A059B801A994110D3104619460A
:10B1C000224600F029F8361A8F41019722460120C5
:10B1D0000021009F00F020F838184D4100902046D3
:10B1E000641E0028DFDC019B00982946324607B028
:10B1F000F0BD0000064C0125064E05E0E36807CCD3
:10B200002B430C3C98471034B442F7D3FFF75CFF54
:10B2100068D7010088D7010010B5202A04DB014659
:10B22000203A9140002010BD914020239C1A0346F3
:10B23000E3401943904010BD10B5202A04DB0846B6
:10B24000203AD040002110BD0B46D340D0402024EE
:10B25000A21A91400843194610BD0000F0B5002421
:10B26000FF268BB00136012527460694304601F0B3
:10B2700009FC002807D054484068284203D03046D3
:10B2800001F0F8FB2C43361D6D007F1CB6B2042F75
:10B29000ECD3FF257D35284601F0F4FB002809D0CA
:10B2A000284601F0E7FB6807044306AA01210020B5
:10B2B00001F0CCFB454D200714D001270026274282
:10B2C0000CD04348B200111808690969C004C00EC7
:10B2D0008903AA58890F002A00D090477F00761C66
:10B2E000042EECD3002C6DDA00200890401E63E0A1
:10B2F000281940300778B906890E0091002141567F
:10B30000491C49D009A9009801F060FB002843D0EE
:10B31000B8090190009800F0C1FC80002F580198F6
:10B32000002F02D0032802D00DE0032834D100986A
:10B3300008ABC20841079446985C490F01228A4035
:10B340001043624698540098052109078000401870
:10B35000072109024018006806A98003800F0290A7
:10B36000009801F033FB0028029802D0022802D096
:10B3700012E0032810D10198032808D1029802286E
:10B380001ED00221009801F04FFB761CF6B2002F70
:10B3900002D001990098B847641C042CA8D3002E51
:10B3A00010D06A460121002001F050FB0699009858
:10B3B000884207D00690089800263446099097E7FF
:10B3C0000321DFE70BB0F0BD006300406C200020DC
:10B3D00000650040F8B5FF20013001F0FFFA0024BD
:10B3E00001250E4E0E4F002807D00E4804600120A4
:10B3F000B0607D70002000F069FCFF20053001F096
:10B40000EDFA002808D00748001D04600220B06053
:10B41000BD70012000F05AFCF8BD000000030040A0
:10B42000582000200001004010B5064900200860A7
:10B4300048608860C860034940390860486001F08E
:10B4400079FE10BD4011014010B503480078002876
:10B4500001D100F0C9F810BDA4220020F8B50646BD
:10B460000C48144600780D46002801D100F0BCF8C5
:10B47000002368460093037000F0DCFB2246294657
:10B48000304600F009F804466846007800F0F0FB0A
:10B490002046F8BDA422002070B50E46182148436E
:10B4A000134914464518E86A1835002804D00128C5
:10B4B0000FD0022805D113E0284600F0C9F8A042B9
:10B4C00001D2002411E022463146284600F0FBF864
:10B4D0000BE0284600F0BCF8A042F4D20446F2E7A4
:10B4E0003146284600F0BFF80446204670BD0000F3
:10B4F000A422002070B505460C460846FFF72CFE36
:10B50000024621462846FFF7A9FF70BD10B501F09D
:10B51000A7FD10BD10B506484068002805D080473B
:10B52000002801D000F07AFB10BD00F0D5FE10BD60
:10B530003420002010B500F00FFF002805D01F496F
:10B540001D484860C8131E4988611E48018CC9B255
:10B5500001290BD1828C120708D1028D1206120F1D
:10B56000042A03D1828D1206120F0AD0012921D19B
:10B57000818C09071ED1018D0906090F0A2904D003
:10B5800007E0114A01219160F5E7828D1206120F42
:10B5900005D00D290ED1808D0006000F0AD10B4871
:10B5A0000168012904D00A49016001680129FCD120
:10B5B000C021416110BD0000DFFF07C00005004051
:10B5C000006C0040C00F00F00006004000EC064098
:10B5D0007593000010B50249024801F0A1FE10BDAC
:10B5E000B42000200020004010B5124C0220206141
:10B5F000606111A0A06120465038E06140202062C7
:10B600000020A06260620CA1A1642146E0621039B2
:10B61000E16410212165A0656065E06509A1E01D78
:10B62000FFF7AEFD08A12046FFF7AAFD2020A0717C
:10B6300010BD0000A42200205465726D696E616C1B
:10B640000000000052545400534547474552000043
:10B650000269C1688A4203D88068401A801800E0F5
:10B66000501A401E7047F7B5064682B00020009081
:10B67000F46817463069A04201D9051B02E0B168A1
:10B68000201A0D1AB0686D1E001BA84200D805468E
:10B69000BD4200D33D4670682A4600190399FFF762
:10B6A00037FD00987F1B40190090039864194019DA
:10B6B0000390B068A04200D10024F460002FD9D1DB
:10B6C000009805B0F0BDF7B5C66817460446806817
:10B6D000851B6068BD4206D980190199FFF718FDE6
:10B6E000F019E060FEBD2A4680190199FFF710FDB0
:10B6F00001987E1B411932466068FFF709FDE6603C
:10B70000FEBD00000FB47CB50C0009AD01D0611E78
:10B7100000E0002101910090074B6A4629460898F5
:10B7200000F028F8002C02D0009A002111707CBC97
:10B7300008BC04B018470000E9BB010030B47446EF
:10B74000641E2578641CAB4200D21D46635D5B001D
:10B75000E31830BC184702E008C8121F08C1002ACD
:10B76000FAD170477047002001E001C1121F002A82
:10B77000FBD17047FFB591B00F460546002606E0A5
:10B7800025280AD0149A139990476D1C761C2878A6
:10B790000028F5D1304615B0F0BD002400940121F9
:10B7A000F34A029400E004436D1C2B780846203BCA
:10B7B00098401042F7D128782A280ED00222287803
:10B7C00001463039092915D800990A2359433039DF
:10B7D000401814436D1C0090F1E701CF0090002841
:10B7E00005DA012040030443009840420090022003
:10B7F00004436D1C28782E2815D104200443687852
:10B800006D1C2A280AD101CF6D1C02900BE0029911
:10B810000A225143303940186D1C029028780146A5
:10B8200030390929F3D928786C2810D006DC4C2847
:10B830001AD068280ED06A2817D104E0742813D0D3
:10B840007A2812D110E00120400504430CE00121C8
:10B85000090501E0032109050C436978814203D100
:10B860000120000524186D1C6D1C28786E281ED040
:10B870000CDC632831D004DC00288BD0582811D18F
:10B88000B2E064287BD069280CD178E073282DD0F1
:10B8900004DC6F2870D0702804D1A7E075286CD024
:10B8A00078286BD0149A13999047761C62E0600256
:10B8B000400F022807D003280AD0042838680AD08D
:10B8C00006603F1D56E03868F11706604160F8E7F2
:10B8D00038680680F5E70670F3E73878694608743B
:10B8E0000020487404A80390012003E03868039006
:10B8F0000020C0433F1D61070FD5002101E00199E1
:10B90000491C029A0191914213DA8142F7DB019AB4
:10B910000399895C0029F2D10BE0002101E0019933
:10B92000491C01918142FADB019A0399895C002943
:10B93000F5D101990098139A401A00902146149B62
:10B9400000F03CF901998019461807E00398039923
:10B950000078491C0391149A139990470198401E4E
:10B960000190401CF2D12146149B139A009800F0DC
:10B9700015F986196D1C0AE741E033E034E00A202E
:10B980000021049005916002410F022905D001CFEA
:10B99000C2179446032905D007E0FF1DFF08FF00EA
:10B9A00003CF06E000B2C2179446042902D140B288
:10B9B000C1178C4600226146944506DA0A460021EA
:10B9C000404291418C462D2102E0210504D52B21D6
:10B9D0006A461176012103E0E10701D02021F7E753
:10B9E000019155E00A200BE0102009E0102004909E
:10B9F00000210420044308200591029003E0082060
:10BA00000021059104906002410F022905D001CF69
:10BA100000229446032906D006E0FF1DFF08FF0020
:10BA200003CF8C4603E080B2042900D1C0B20021CC
:10BA3000019121072CD529780391702906D0049A09
:10BA40001021059B4A401A4305D00EE040216A466A
:10BA50001176012108E06146014306D030216A4693
:10BA600011760399517602210191049A0821059BD0
:10BA70004A401A430CD16146014301D1610707D501
:10BA800030216A461176012101910299491E0291E5
:10BA90002978582904D037A103910FA90F910DE0FF
:10BAA00039A1F9E76146059B049AFFF772FB039BF6
:10BAB0008C469B5C0F9A521E0F9213706146014395
:10BAC000F0D10F9807A9081A20300390600704D519
:10BAD000012000048443029801E0012002900399B0
:10BAE000884201DD401A00E00020411802900198D0
:10BAF00009180098401A0090E00306D42146149BD0
:10BB0000139A009800F05AF886190020049008E073
:10BB100006A9085C149A139990470498401C761C57
:10BB2000049001998842F3DBE0030CD52146149B75
:10BB3000139A009800F042F8861904E0149A302015
:10BB400013999047761C0299481E02900029F5DC53
:10BB500008E00F980F990078491C0F91149A1399D7
:10BB60009047761C0399481E03900029F1DCFAE601
:10BB700009280100303132333435363738396162C3
:10BB80006364656600000000303132333435363787
:10BB9000383941424344454600000000F8B50446A8
:10BBA00000251E461746880404D405E039462020A7
:10BBB000B0476D1C641EF9D52846F8BDFFB5044694
:10BBC000002581B01E46C80301D5302700E020279C
:10BBD000880404D505E038460399B0476D1C641EFF
:10BBE000F9D5284605B0F0BD4A68002A06D00A6893
:10BBF000531C0B6010704868401E4860704700007E
:10BC0000BFF34F8F04490348C860BFF34F8F00BF95
:10BC1000FDE700000400FA0500ED00E00EB500218C
:10BC2000029000916A4601910148FFF7E9FF0EBDBD
:10BC30000140000030B5EFF3108172B6094A546834
:10BC40000123002C04D00370002900D162B630BD5E
:10BC50005360054B1D68054C254015601C60002293
:10BC60000270F1E71020002080E100E0FC06FFBC3C
:10BC700008494A68002A0CD000280AD1EFF3108046
:10BC800072B60A68044B1A6000224A60002800D18C
:10BC900062B670471020002000E100E00249091858
:10BCA00020200856704700006C200020002807D094
:10BCB0000449814204D80449814201D901207047D6
:10BCC00000207047482000205820002070B5084C04
:10BCD000050009D010342168002907D008682060C9
:10BCE000496828468847F6E70834F4E770BD000045
:10BCF00058200020F8B52348416800293ED00E683E
:10BD000021494C6887688078E11B0D022D0AED1CE3
:10BD1000002814D101201D4A000450601B4A403AFB
:10BD200050601B49400008601A4908601A49012008
:10BD300008602F2000F05AFE124901208870B54299
:10BD400000D23546E81900020F4B000A4033186054
:10BD50000D4A5168001B091B0902090A0002000A6A
:10BD6000C91C814209D9506818602F2000F03EFE9E
:10BD700001200749400480390860F8BD01F0F8F857
:10BD8000F8BD0000EC1F00200015014040130140E9
:10BD900080E200E000E100E0001001407FB50C46C9
:10BDA000002802D0012004B070BD207900260028B0
:10BDB00006D01B4D01281CD0022828D00F20F2E706
:10BDC00002960396E0680190694601A801F00CF81C
:10BDD00000280AD002988188E18000882081694685
:10BDE0000988029801F07AF800E00A200221217106
:10BDF000D9E70C4B6A460021A01D00F0B3FF0028D4
:10BE000007D0084908398E60CE600A28CBD1284671
:10BE1000C9E704488188019801F060F8F5E700005F
:10BE20001D1D00002020002010B50E4900230A78B7
:10BE30004C78A24212D0521CD2B20A70022A00D10F
:10BE40000B700A78074B920018339A580260886882
:10BE500010180002000A8860012010BD0360002055
:10BE600010BD0000EC1F002010B504780022230054
:10BE7000FFF764FC070605070D1D262C06000A7057
:10BE800010BD01220A7002898A81828814E0022290
:10BE90000A7002898A818288CA81C2688A60007CAD
:10BEA000062802D00020087410BD0120FBE7032201
:10BEB0000A70C2888A810289CA81C068886010BD00
:10BEC00004230B70C0888881CA8110BD05200870CA
:10BED00010BD000070B5064D06460024A00029588C
:10BEE000002901D030468847641C082CF6D370BD69
:10BEF000DC20002002490A7882430A707047000063
:10BF00001820002002490A7802430A707047000096
:10BF100018200020F8B506461C481F460078154634
:10BF20000C46C0070AD03046FFF7C0FE002807D0F5
:10BF3000002C07D0A00507D00620F8BD0120F8BDD1
:10BF40000220F8BD0320F8BD3068A04204D8A80242
:10BF500071680019884201D90520F8BD002D10D064
:10BF6000684600F043FE00280DD000980221C0C0B2
:10BF70000170A101090C8180058100F0E5FE00201F
:10BF8000F8BD0420F8BD0720F8BD000030200020D7
:10BF900010B5084600F046FE10BD0000F8B5074693
:10BFA0001E481E46007815460C46C0070ED038467F
:10BFB000FFF77CFE00280BD0002D0BD0002C09D001
:10BFC00028462043800707D00620F8BD0120F8BD91
:10BFD0000220F8BD0320F8BD3868A04204D8B100A3
:10BFE00078680919884201D20520F8BD002E11D0C9
:10BFF000684600F0FBFD00280ED000980699076007
:10C00000416001210172C5600461868200F09CFEDE
:10C010000020F8BD0420F8BD0720F8BD3020002026
:10C0200070B5002801D0012070BD184C0025207B80
:10C03000002801D0257301E000F0A0F8207803006B
:10C04000FFF77CFB082205080B0E22111C2200F0D2
:10C050001FF870BD00F082F870BD00F065F870BD8B
:10C0600000F03CF870BD0620207060880749000190
:10C0700020394018406800F099FD70BD07202070FD
:10C08000656000F0A1FD70BD0F2070BDDC210020B7
:10C0900070B5104900208A1C0D460346203D0C183F
:10C0A000A67A002E08D0A37204016419A689002E76
:10C0B00002D1A47B012C08D0401C80B20228EED310
:10C0C0000B704B8004484B6070BD108000F046F848
:10C0D00070BD0000DC2100201D1D000010B50F4CBC
:10C0E00060880101204620380818818900290BD07A
:10C0F000052020700A480221818001680023012266
:10C100000848FFF707FF10BD4168002301220548DA
:10C11000FFF700FF0421217010BD0000DC2100208A
:10C12000282000204820002038B50A4908480B681C
:10C1300089884268890059185388032404700020B4
:10C14000DB1C00909BB20448FFF728FF38BD0000BD
:10C15000DC210020282000204820002010B50649BE
:10C160004888091D00F090FE002802D0FFF7DCFF90
:10C1700010BDFFF7B3FF10BDDC210020F0B51D4856
:10C180001D4907780246012502268C88203A3B008B
:10C19000FFF7D4FA080517171A212C2C1617018956
:10C1A000491C01810021418001730B01D35C002BEC
:10C1B00008D000234418491C89B2A3720229F4D381
:10C1C0000570F0BD0123F5E742685288D21CA21821
:10C1D0008A800670F0BD45880B682D01AA18556845
:10C1E0000D60536014818E80062100E007210170EC
:10C1F000F0BD0000DC210020282000208188054AB5
:10C20000914204D00088002801D00120704700200E
:10C2100070470000FFFF0000F8B50F46002804D06B
:10C220000120FFF767FE0120F8BD397900290AD007
:10C230000026254D01290BD0244C022920681FD04F
:10C2400003293BD125E000F0BFFC0121397133E027
:10C2500000200101695C02290BD0401C80B2022839
:10C26000F7D30220FFF74EFE0120FFF743FE1848E8
:10C27000F8BD04016019406800F098FC2E551BE0E1
:10C280000146002301221348FFF744FE0221A1804A
:10C2900011E000F08BFC0C492368203149880A0129
:10C2A000094951184D6825604B60A3880B81022114
:10C2B000A18005498E543E710028D9D00120FFF796
:10C2C00019FE0E20F8BD0000BC210020282000200F
:10C2D0001D1D000048200020F8B51E4C20780028C5
:10C2E00036D0E068002600280CD0002560780028B1
:10C2F0002ED1684652DF052806D0002806D0FFF769
:10C300008DFC0BE00125F1E7012607E0009800F025
:10C3100085FB2169002901D000988847002D13D1A1
:10C320006078002814D1608869460880A06861DFC1
:10C33000052804D0002804D0FFF770FC04E0012594
:10C3400002E0E168A0688847002ECFD0002DE5D03C
:10C35000F8BD0000342000201048018CC9B201292A
:10C3600017D1818C090714D1018D09060A0F03D159
:10C37000828D1206120F0ED0090F012903D1828D72
:10C380001206120F07D0032903D1808D0006000F7B
:10C3900001D000207047012070470000C00F00F05E
:10C3A000800701D00020704701207047F0B5284C6D
:10C3B0002146103948688B68227886469C46CF789B
:10C3C000667836E0182353436168521CC918A37875
:10C3D000D2B2934200D100220B78022B02D0032B61
:10C3E00027D123E003464D68194603E0A94204D053
:10C3F0000B46C96900291CD0F8E7002919D08B42E7
:10C4000008D1C069002805D1124F0125BD60002563
:10C41000AC4601270D68C969D961002909D00B68AC
:10C420005B190B6005E00174C06900E00021002881
:10C43000F9D19642C6D10649624610398A604860F1
:10C44000CF70704501D00120F0BD0020F0BD00008C
:10C45000FC1F002000100140F8B52C4E0446706807
:10C460000025009041E0002C02D02046E46920E045
:10C47000264818231030017842684B43491CC9B242
:10C48000D21801708378994200D1057011785068F4
:10C4900001292CD1017C002929D191684160D16802
:10C4A00081601169C16051698161F178002900D012
:10C4B00045604368B268164F991A0902090AB942E1
:10C4C00002D28268891806E0D11A09028268090A34
:10C4D0008A4202D9511A016000E0056045600121DD
:10C4E00085600174C56100F005FE002CBBD10748D2
:10C4F0001030017840788142BAD171680098814249
:10C5000001D00120F8BD0020F8BD0000EC1F002084
:10C51000FFFF7F00D0B0FEF797FF99A10020FEF744
:10C52000E9FF9EA10020FEF7E5FF03200090022313
:10C53000A0A2202144A8FFF7E5F844A90020FEF7B7
:10C54000D9FF9BA10020FEF7D5FF00F04FFEA0A071
:10C5500000F072FDA3A10020FEF7CCFF00F0CAFAA4
:10C56000A6A000F069FDAAA000F066FDAF48002675
:10C57000039000242546B700781903460290ACA228
:10C58000202144A8FFF7BEF844A90020FEF7B2FF1F
:10C5900087A10020FEF7AEFF00F056FF00283AD03A
:10C5A0000146EA0091400C430090A7A2202144A834
:10C5B000029BFFF7A7F844A90020FEF79BFF7CA190
:10C5C0000020FEF797FF0398401E039027D06D1CB4
:10C5D000042DD1DB24A8761CC451202EC9D3A1A0E0
:10C5E00000F02AFD0524E40308224CA9204600F0AF
:10C5F000F1FF4CAB9FA2202144A8FFF783F844A889
:10C6000000F01AFD204600F055FA00280BD0A1A03A
:10C6100000F012FDFEE7A4A000F00EFDFEE7A8A0CA
:10C6200000F00AFDFEE7ACA000F006FDAFA000F0B0
:10C6300003FD802224A9204600F078FA002803D0C8
:10C64000B1A000F0F9FCFEE7B4A000F0F5FCB9A041
:10C6500000F0F2FC802104A8FEF773FD002104AE77
:10C6600005228800D20382181268491C3250202902
:10C67000F6D3B7A10020FEF73DFFB5A000F0A0FF64
:10C680000020054601900024AF00F059E100C840A9
:10C69000C0B2014620395E2907D86946087101A950
:10C6A0000020FEF727FF01A804E04DA10020FEF7BF
:10C6B00021FF4BA000F084FF641C042CE5DB6D1C03
:10C6C000202DE0D33AA10020FEF714FF38A000F09F
:10C6D00077FF802204A924A8FEF745FD002803D097
:10C6E0009EA000F0A9FCFEE7A3A000F0A5FCAAA074
:10C6F00000F0A2FC802104A8FEF723FD0020052104
:10C70000C903820053181B68401CB3502028F8D37B
:10C71000AAA10020FEF7EEFEA8A000F051FF002520
:10C720000024AF00F059E100C840C0B201462039F2
:10C730005E2907D86946087101A90020FEF7DAFED4
:10C7400001A804E026A10020FEF7D4FE24A000F0FA
:10C7500037FF641C042CE5DB6D1C202DE0D314A1F5
:10C760000020FEF7C7FE12A000F02AFF0020009074
:10C770002E480099491C00918142FAD3BAE7000083
:10C780005374617274696E6720696E697469616C53
:10C79000697A6174696F6E2E2E2E0A00496E697473
:10C7A00069616C697A696E6720554152542E2E2E4C
:10C7B0000A0000005573696E672070696E733A2035
:10C7C0005458443D25752C205258443D2575000091
:10C7D0005541525420696E697469616C697A656467
:10C7E0002E000000496E697469616C697A696E6730
:10C7F000204E564D432E2E2E0A0000004E564D431D
:10C8000020696E697469616C697A65642E00000044
:10C8100053656E64203132382062797465732076F6
:10C82000696120554152542E2E2E000040420F00C7
:10C8300057616974696E6720666F722062797465EA
:10C840002025752E2E2E000052656365697665647D
:10C8500020627974652025753A2030782530325869
:10C86000000000004461746120726563656976654B
:10C87000642E000045726173696E6720666C617397
:10C8800068207061676520617420307825732E2ED2
:10C890002E000000466C617368206572617365202C
:10C8A0006661696C6564210055415254207265636C
:10C8B00065697665206661696C6564210000000029
:10C8C0005541525420726563656976652074696DBF
:10C8D000656F757421000000466C6173682070619B
:10C8E0006765206572617365642E00005772697414
:10C8F000696E67206461746120746F20666C617377
:10C90000682E2E2E00000000466C6173682077723E
:10C91000697465206661696C6564210044617461B5
:10C92000207772697474656E20746F20666C617311
:10C93000682E000052656164696E672064617461ED
:10C940002066726F6D20666C6173682E2E2E00005B
:10C950005265616420646174613A200044617461CD
:10C9600020766572696669636174696F6E206661BD
:10C97000696C656421000000446174612076657211
:10C98000696669636174696F6E207375636365734B
:10C990007366756C21000000506572696F6469638D
:10C9A000616C6C792072656164696E6720666C6188
:10C9B000736820646174612E2E2E0000466C6173D2
:10C9C0006820646174613A2000000000C2084307D7
:10C9D0005B0F0120895C984008407047012189075E
:10C9E00040180068002800D00120704700280FD0B0
:10C9F0000849094A096800BF00BF00BF00BF00BF67
:10CA000000BF00BF00BF914200D000BF0138F2D18B
:10CA100070470000E81F00200024F40010B5002833
:10CA200001D1FFF753F910BD0522120780008218CB
:10CA3000072000021018026803231B049A430260B7
:10CA4000026809040A4302607047000038B5084BC9
:10CA500005241B68009324026B46411805E08500FD
:10CA60005D592D192D69401C20C28142F7D838BD6F
:10CA700050D70100024940180021016070470000B2
:10CA800000600040034940180068012800D00020E1
:10CA900070470000006000404058002800D001208E
:10CAA00070470322120280184068084000D001201D
:10CAB0007047000070B50446000501D0032070BD2A
:10CAC000272000030949201A884201D8012070BD9F
:10CAD00000F01AF80028FAD1054D02206860AC6019
:10CAE00000F012F80021696070BD0000FF8F0100A6
:10CAF00000E5014010B503490020486000F004F84B
:10CB000010BD000000E501400648074901E0401E55
:10CB100005D00A681268002AF9D000207047022068
:10CB200070470000A086010000E40140F7B504460C
:10CB300017481546844203D3272109038C4202D2A9
:10CB40006119814201D30120FEBDA80701D1A007D0
:10CB500001D00320FEBDFFF7D7FF0028FAD10D4E0C
:10CB60000120706027460024AD080BE00198A10069
:10CB7000405801C7FFF7C8FF002802D000217160AC
:10CB8000FEBD641CA542F1D800207060FEBD00000F
:10CB9000FFFF030000E501400389CA1C9A180281C7
:10CBA0004289511AC91E41817047000008B5002111
:10CBB000009101460223024A0248FFF7EFF908BD3F
:10CBC00060D701004820002008B5002000900448EC
:10CBD00002230168034A0448FFF7E0F908BD00009A
:10CBE0002820002058D701004820002070B50C49AB
:10CBF0000446486E042810D00A6E1218042A00D386
:10CC0000121F401C4866182042435518014628460A
:10CC1000FEF797FA0120256070BD002070BD00006E
:10CC2000EC210020F0B52B4C1C22216F85B0514324
:10CC30000D192978284E00270B00FEF77FFD0719F4
:10CC40000509090D0D1119002946FFF7E5FA09E05C
:10CC5000294600F003FD05E02946FFF79FF801E0B3
:10CC6000FFF7DEF900282FD0B04202D1019710E083
:10CC70000F2001902878022801D0032809D11548F7
:10CC8000AA7D7830016C89180164AA7D416C891AEB
:10CC9000416469462846FFF7E7F86846FFF71AF946
:10CCA000206F1C2148430019FEF74BFA606F0028E3
:10CCB0000CD0216F491C8907890F2167401E6067CE
:10CCC00004D00020FFF7AEFF05B0F0BD0420FFF751
:10CCD00011F9F9E7FC2000201D1D000010B51848CF
:10CCE0001822016E51430C18406E00281FD0207A84
:10CCF000012802D0022816D10FE0A18AE08A091A81
:10CD0000FF2901DC8AB201E0FF220132E1688000E4
:10CD100023690918181829DF01E0A08928DF1128E4
:10CD200006D0002803D00921204600F060F910BD8C
:10CD30000449FD220878104004221043087010BDF9
:10CD4000EC2100203020002010B5054801784A076A
:10CD5000920F04D1022211430170FFF7BFFF10BDF3
:10CD600030200020F8B507461D481C4600781546BF
:10CD70000E46800701D40220F8BD002D01D0002C02
:10CD800028D10520F8BD01011648405C00281ED1BD
:10CD900016E02068002F03D081883A8891420FD195
:10CDA000002E03D001883288914209D18068286022
:10CDB000206868600B482030008928810020F8BD79
:10CDC000A088214600F060F80028E2D12060A08809
:10CDD000401CA080A0880228D5D30A20F8BD0000FE
:10CDE00018200020BC210020F8B505464068244FDB
:10CDF00000260C46002828D022490A68824224D8FE
:10CE00004968814221D3FFF7CBFA00281DD0288939
:10CE10003989884219D103CD083D8A68904214D1DE
:10CE20003A460020203A0125AD0203019B185B68B9
:10CE30008B4204D25B198B4201D9208011E0401C47
:10CE400080B20228F1D30020F8BD268000960AE0C7
:10CE5000009829688068884205D100986860388900
:10CE600028810120F8BD2088694600F00DF80028CF
:10CE7000EED12088401C80B220800228E6D3E2E771
:10CE8000DC21002048200020F8B50E460A6812492F
:10CE900000014518002A04D05088800084180C3402
:10CEA00001E06C6808340127BF026868C019A0421D
:10CEB0000FD92068401C0CD02046FFF79FF90028AE
:10CEC00002D001203460F8BD6088800004190C3461
:10CED000EBE70020F8BD0000BC21002038B50C466F
:10CEE0000021009101460123074A0848FFF756F840
:10CEF000002801D00E2038BD054A210101208918E3
:10CF00008873002038BD000054D70100482000205D
:10CF1000BC21002038B5044613480025436C002B83
:10CF200008D0026CD500521C52072D18520F5B1E00
:10CF30004364026400200090A08AAB8880004118FE
:10CF40000A482A68FFF72AF8A18AAA888918A182C4
:10CF5000A17D491E0906090EA17501D10121217487
:10CF6000002800D00E2038BD742100204820002069
:10CF700070B501240B49600408600B4940108860BB
:10CF8000094940398860094D6C602F20FFF72EFD5C
:10CF9000AC60074D00242F20AC60FFF727FDAC707C
:10CFA00070BD000080E100E040130140001001402E
:10CFB000EC1F002030B5FF220523CD7D002409326F
:10CFC0001B02C318002D8450986905D04B7ECA6897
:10CFD000D054487E401C487630BD1FB501246B46B6
:10CFE0001C701972019206C8684690471FBD1FB594
:10CFF00000220092019202920392037A012B02D046
:10D00000022B11D106E06B461A7002690292828AE5
:10D010009A8109E001236A4613708289C389D31A71
:10D020006A4613818389538142680192006882684D
:10D03000684690471FBD000010B504460146002019
:10D04000FEF758FA05A10020FEF754FA204600F03A
:10D05000B7FA02A000F0B4FA10BD00000A00000008
:10D06000FEB51F4C0025A768606802906846FEF771
:10D07000DBFE0190FFF79AF906460198002822D0BE
:10D0800000230098616817E00E680A46864202D9BC
:10D09000301A086012E0801BF31800261660D6686C
:10D0A000D169B446002E07D0FE183602360A566003
:10D0B00066469660D56115460029E5D1284661602F
:10D0C000FFF7CAF906E02846FFF7C6F9002801D1A4
:10D0D000002E02D00298FEF70DFE0020E070FEBD8B
:10D0E000EC1F002001200249000508607047000085
:10D0F00000E200E010B50E4B5968002906D0026826
:10D100000C68A24204D8A21A0A60C161586010BD1E
:10D110000B4604E00B46C969121B002904D00C68B9
:10D120009442F7D3A41A0C600260C161D86110BDAB
:10D13000EC1F0020F8B51D4D6C68002C34D01C4845
:10D1400000274068A968401A0602360A2068B042E3
:10D1500018D8361AC7192246107CE46900280FD067
:10D1600000201074EB68002B07D091695069984734
:10D17000002805D0FEF752FD02E05169906988470A
:10D18000002CE3D129786878814206D1401CC0B2D6
:10D190006870022801D10020687004490006800DE3
:10D1A00018310F50FFF79EFFF8BD0000EC1F002064
:10D1B00000150140FF221D32002383508B8A8A68AC
:10D1C000D25C8B8A5B1C8B82052109024018C261EC
:10D1D00070471FB500226B461A7019728168019161
:10D1E000827506C8684690471FBD00007CB5304D6B
:10D1F00000242C600126A805066003E02DA1002074
:10D20000FEF778F928680028F8D03048C4637D21FB
:10D21000C9000194019A521C01928A42FAD3C66352
:10D220002B4D2C602B488460C46144622A48042141
:10D2300081610822C2610220E860032068612748FA
:10D24000686223484030C4622960254886600660D1
:10D2500024A10020FEF74EF90094302468460470A3
:10D260003221417069460020FEF744F921A10020D7
:10D27000FEF740F96846047033214170694600208A
:10D28000FEF738F910A10020FEF734F91BA10020A9
:10D29000FEF730F928680222694600F0BDF96946B8
:10D2A0000020FEF727F908A10020FEF723F97CBD36
:10D2B0000001004057616974696E6720666F7220D3
:10D2C0004846434C4B2E2E2E0D0A0000C02F004026
:10D2D00000250040002100400005005000E0D7017B
:10D2E00000200040554152542070696E733A20541A
:10D2F00058443D002C205258443D000055415254A2
:10D3000020656E61626C65643A20426175643D31EE
:10D3100031353230302C20454E41424C453D0000E5
:10D32000F0B50C46012185B005464902FFF7B9FB6F
:10D33000032109026F180026002826D0FF2125317D
:10D340002846FFF7A9FB00281FD0FF2025302E50CC
:10D3500081208000B860A07E002801D10120686093
:10D360000221684601700920C00129180868086078
:10D370000390E17D68460172E0680190E6752676CB
:10D3800006CC6846083C90472DE004212846FFF76C
:10D3900088FB002827D0FF2109312846FFF77CFBB6
:10D3A000002820D021462846FFF704FEE07D617E5C
:10D3B000884218D1207E002807D0617EE268E0759F
:10D3C0002069E060267666760AE0A07E002801D11A
:10D3D0000120686081208000B860E675617EE268A7
:10D3E0002046FFF7FAFDFF271D3739462846FFF78D
:10D3F00053FB00280FD0A08AA17D884204D2214689
:10D400002846FFF7D7FE06E0EE51A17D002902D0A5
:10D410002046FFF7DEFEFF27453739462846FFF74F
:10D420003BFB00280ED0EE51A07E002801D0012049
:10D430002860E07D002805D0E675617EE268204620
:10D44000FFF7CBFD05B0F0BD7FB5224C204800258D
:10D45000A560656216E0616A002913D01EA1002054
:10D46000FEF748F823480068082201A900F0D4F824
:10D4700001A90020FEF73EF81FA10020FEF73AF8B0
:10D48000656223E0A16800291AD000281AD0194843
:10D4900080308069A560C6B202226946304600F03D
:10D4A000BBF816A10020FEF725F869460020FEF71C
:10D4B00021F811A10020FEF71DF8304604B070BD20
:10D4C000401EC8D112A10020FEF714F80020F5E795
:10D4D000A08601000021004055415254205258209E
:10D4E0006572726F7221204552524F525352433D22
:10D4F00000000000802400400D0A000055415254F5
:10D5000020525820627974653A203078000000007B
:10D51000554152542052582074696D656F757421BD
:10D520000D0A0000FEB5164C0026E6611549C861DB
:10D53000154D17E0606A002814D014A10020FDF7F3
:10D54000D9FF1048803800680822694600F064F866
:10D5500069460020FDF7CEFF13A10020FDF7CAFFAA
:10D56000666202E0E069002802D0002D02D005E0EA
:10D570006D1EDFD10DA10020FDF7BCFFE661FEBDF1
:10D580000021004000250040A08601005541525472
:10D59000205458206572726F7221204552524F52AA
:10D5A0005352433D000000000D0A00005541525403
:10D5B0002054582074696D656F7574210D0A000040
:10D5C00010B5044602E0641CFFF7ACFF2078002889
:10D5D000F9D110BDF0B585B015460F4606461422A8
:10D5E00008A16846FDF794FD6C1E07D46846310714
:10D5F000090F415C39553609641EF8D5002078556D
:10D6000005B0F0BD30313233343536373839414228
:10D610004344454600000000F0B585B015460F466E
:10D620000646142208A16846FDF772FD6C1E07D459
:10D6300068463107090F415C39553609641EF8D533
:10D640000020785505B0F0BD3031323334353637EF
:10D65000383941424344454600000000F8B50C46C5
:10D66000498A374A09018E18002805D0E1883046DA
:10D67000FFF792FA0120F8BD3189706889004518DA
:10D68000217C2F480027EC380B00FEF757F8070FD6
:10D69000311B2B05445557004760A169016028489C
:10D6A0002849EC38FFF7A0FB002809D029460123C0
:10D6B000221D25480097FEF771FC0221217424E009
:10D6C0000A20F8BD2246294601230C3208311E48A3
:10D6D0000097FEF763FCA17D002901D0032213E02F
:10D6E000012211E029462046FFF714FC07461BE003
:10D6F000224601230832291D13480097FEF74EFCED
:10D700002178032905D006222274002812D00E2782
:10D710000CE00522F8E70B494068891E4988FFF7AD
:10D72000DDFB074606202074002F03D0E188304639
:10D73000FFF732FA3846F8BD044FF7E70F27F5E751
:10D74000BC2100201A200020482000201D1D0000C0
:10D75000000000500000FFFFDEC0ADDEFF011EF143
:10D76000DEC0ADDEFE011EF188D70100E81F0020FB
:10D770007000000056B70100F8D7010058200020C3
:10D78000C80A000066B701000024F4000000000091
:10D790000000000000000000000000000000000089
:10D7A0000000000000000000000000000000000079
:10D7B0000000000000000000000000000000000069
:10D7C0000000000000000000000000000000000059
:10D7D0000000000000000000000000000000000049
:10D7E0000000000000000000000000000000000039
:08D7F00091BF010003FF0000DE
:040000050001B0C185
:00000001FF
