:020000040001F9
:10B00000202E0020D9B00100F3B00100F5B00100FE
:10B010000000000000000000000000000000000030
:10B02000000000000000000000000000F7B0010078
:10B030000000000000000000F9B00100FBB00100BA
:10B0400075B30100FDB0010075B50100FDB0010050
:10B05000FDB0010000000000B9B10100FDB0010029
:10B06000FDB00100FDB00100FDB00100FDB0010028
:10B07000FDB00100FDB00100FDB00100FDB0010018
:10B08000FDB00100C9B30100FDB00100FDB0010039
:10B09000ADB40100FDB00100B5B40100FDB0010088
:10B0A000FDB00100FDB00100000000000000000044
:10B0B0000000000000000000000000000000000090
:10B0C0000448854600F066F80048004789C2010040
:10B0D000C046C046202E00200321094802680A43CA
:10B0E0000260084802680A43026007488047074830
:10B0F0000047FEE7FEE7FEE7FEE7FEE7FEE70000AB
:10B100002405004054050040D5B40100C1B0010041
:10B1100003460B439B0703D009E008C9121F08C070
:10B12000042AFAD203E00B780370401C491C521E1B
:10B13000F9D27047D2B201E00270401C491EFBD226
:10B1400070470022F6E710B513460A460446194632
:10B15000FFF7F0FF204610BD421C0178401C00297B
:10B16000FBD1801A704730B504460020034600E04A
:10B170005B1C934203D2E05CCD5C401BF8D030BD39
:10B1800003460A780270401C491C002AF9D118466F
:10B1900070470000064C0125064E05E0E36807CC29
:10B1A0002B430C3C98471034B442F7D3FFF78CFF85
:10B1B000A4CD0100C4CD0100F0B50024FF268BB062
:10B1C0000136012527460694304601F093F9002800
:10B1D00007D054484068284203D0304601F082F935
:10B1E0002C43361D6D007F1CB6B2042FECD3FF2517
:10B1F0007D35284601F07EF9002809D0284601F067
:10B2000071F96807044306AA0121002001F056F9EC
:10B21000454D200714D00127002627420CD0434873
:10B22000B200111808690969C004C00E8903AA5840
:10B23000890F002A00D090477F00761C042EECD3A3
:10B24000002C6DDA00200890401E63E02819403081
:10B250000778B906890E009100214156491C49D052
:10B2600009A9009801F07CF8002843D0B8090190A2
:10B27000009800F077FD80002F580198002F02D031
:10B28000032802D00DE0032834D1009808ABC2088F
:10B2900041079446985C490F01228A401043624658
:10B2A00098540098052109078000401807210902D9
:10B2B0004018006806A98003800F0290009801F0F2
:10B2C0004FF80028029802D0022802D012E003288A
:10B2D00010D10198032808D1029802281ED002211B
:10B2E000009801F0D9F8761CF6B2002F02D001992F
:10B2F0000098B847641C042CA8D3002E10D06A46CE
:10B300000121002001F0DAF806990098884207D060
:10B310000690089800263446099097E70321DFE756
:10B320000BB0F0BD00630040F02400200065004039
:10B330008307FF22DB0E9A408907090E99400028F7
:10B340000BDA0007000F0838830808489B0018181C
:10B35000C36993430B43C3617047830804489B0050
:10B360001B181868904308431860704700ED00E010
:10B3700000E400E0F8B5FF20013000F0F9FF002400
:10B3800001250E4E0E4F002807D00E480460012004
:10B39000B0607D70002000F00BFDFF20053000F054
:10B3A000E7FF002808D00748001D04600220B060B5
:10B3B000BD70012000F0FCFCF8BD0000000300405F
:10B3C000DC2400200001004010B506490020086080
:10B3D00048608860C860034940390860486001F0EF
:10B3E000A9FB10BD4011014010B5034800780028AA
:10B3F00001D100F0C9F810BDA4250020F8B506461B
:10B400000C48144600780D46002801D100F0BCF825
:10B41000002368460093037000F010FA2246294684
:10B42000304600F009F804466846007800F024FA37
:10B430002046F8BDA425002070B50E4618214843CB
:10B44000134914464518E86A1835002804D0012825
:10B450000FD0022805D113E0284600F0C9F8A04219
:10B4600001D2002411E022463146284600F0FBF8C4
:10B470000BE0284600F0BCF8A042F4D20446F2E704
:10B480003146284600F0BFF80446204670BD000053
:10B49000A425002070B505460C460846FFF75CFE63
:10B4A000024621462846FFF7A9FF70BD10B501F0FE
:10B4B000D7FA10BD10B506484068002805D080476F
:10B4C000002801D000F018F910BD00F0A3FD10BD58
:10B4D000081F002010B500F0FFFD002805D01F490F
:10B4E0001D484860C8131E4988611E48018CC9B2B6
:10B4F00001290BD1828C120708D1028D1206120F7E
:10B50000042A03D1828D1206120F0AD0012921D1FB
:10B51000818C09071ED1018D0906090F0A2904D063
:10B5200007E0114A01219160F5E7828D1206120FA2
:10B5300005D00D290ED1808D0006000F0AD10B48D1
:10B540000168012904D00A49016001680129FCD180
:10B55000C021416110BD0000DFFF07C000050040B1
:10B56000006C0040C00F00F00006004000EC0640F8
:10B570007593000010B50249024801F036FB10BD7A
:10B58000382500200020004010B5124C0220206118
:10B59000606111A0A06120465038E0614020206227
:10B5A0000020A06260620CA1A1642146E062103913
:10B5B000E16410212165A0656065E06509A1E01DD9
:10B5C000FFF7DEFD08A12046FFF7DAFD2020A0717D
:10B5D00010BD0000A42500205465726D696E616C79
:10B5E00000000000525454005345474745520000A4
:10B5F0000269C1688A4203D88068401A801800E056
:10B60000501A401E7047F7B5064682B000200090E1
:10B61000F46817463069A04201D9051B02E0B16801
:10B62000201A0D1AB0686D1E001BA84200D80546EE
:10B63000BD4200D33D4670682A4600190399FFF7C2
:10B6400067FD00987F1B401900900398641940190A
:10B650000390B068A04200D10024F460002FD9D13B
:10B66000009805B0F0BDF7B5C66817460446806877
:10B67000851B6068BD4206D980190199FFF748FD16
:10B68000F019E060FEBD2A4680190199FFF740FDE0
:10B6900001987E1B411932466068FFF739FDE6606C
:10B6A000FEBD02E008C8121F08C1002AFAD1704787
:10B6B0007047002001E001C1121F002AFBD1704732
:10B6C000202804DA012181400348014201D00120F1
:10B6D0007047002070470000FC06FFBCBFF34F8F8F
:10B6E00004490348C860BFF34F8F00BFFDE7000067
:10B6F0000400FA0500ED00E00EB500210290009173
:10B700006A4601910148FFF7E9FF0EBD01400000C4
:10B710000A4B5B68002B07D0002A07D0002805D011
:10B720000068037C002B03D0082070470720704777
:10B73000002303744174426118467047EC1E0020D8
:10B74000FFB507469007002581B01E461446002825
:10B7500025D1002C23D001F063F83046114EF06063
:10B7600030461030057045700299817044607560F4
:10B77000357001240C4875702405046003211420E1
:10B78000FFF7D6FD09480460094CA760032111208A
:10B79000FFF7CEFD6068B060002005B0F0BD072067
:10B7A000FBE70000DC1E002080E200E000E100E09A
:10B7B00000150140FEB51F4B5B68002B30D0002800
:10B7C0002ED0052901D20720FEBD4369002B27D0CA
:10B7D000437C012B26D000270291044600256946B0
:10B7E00016460D70684600F029F801A801F092FA9B
:10B7F000002819D0012101700F4944604968816017
:10B80000029907614661C16068460A49007948703B
:10B810006846007800F030F801F064F92846FEBD73
:10B820000820FEBD0F46D7E768460425007800F0E3
:10B8300023F8F3E7EC1E00200015014030B5EFF3CC
:10B84000108172B6094A54680123002C04D0037099
:10B85000002900D162B630BD5360054B1D68054C10
:10B86000254015601C6000220270F1E7001F0020D7
:10B8700080E100E0FC06FFBC08494A68002A0CD0C1
:10B8800000280AD1EFF3108072B60A68044B1A60E0
:10B8900000224A60002800D162B67047001F0020D5
:10B8A00000E100E070B500280AD00F4D297800298A
:10B8B00008D0044600F098FF002805D0002070BD95
:10B8C0000E2070BD082070BDE868062809D2074A1E
:10B8D0008100891822880A8062884A80401CE860BA
:10B8E000ECE7042070BD0000CC1E00203C220020AC
:10B8F000002808D0002205490123CA600B708A6025
:10B900004860104670470E2070470000CC1E002093
:10B9100010B5002811D000290FD0114A1278002A42
:10B920000BD00A88112A11D0302A07D0322A09D028
:10B93000332A02D1091D00F071FE10BD091D00F06F
:10B94000E7FE10BD091D00F0EDFD10BD8A8809213C
:10B9500089014018C18B8A42F7D10021C17610BD00
:10B96000CC1E002010B50B4600280ED013490A78D3
:10B97000002A0CD0CA68002A09D009229201841832
:10B98000E27E002A05D0112010BD0E2010BD082037
:10B9900010BDE38300228A602277A2766276024697
:10B9A000074801881180408850800121184690DFA7
:10B9B0000028EDD10120E076002010BDCC1E002033
:10B9C0003C22002010B504460146054800F01AF953
:10B9D00021460448FFF79CFF204600F005F810BD03
:10B9E0002C220020CC1F0020F8B504460088102827
:10B9F00028D011282FD01D281DD12546083519A182
:10BA00000020FFF747FD00242E4609360FE03019CD
:10BA10004178375D072901D0062906D11022164941
:10BA2000801CFFF7A0FB002806D0E419641C287ACC
:10BA3000C008A042EBD8F8BD0F4A1049083A284682
:10BA40008CDFF8BD0EA10020FFF724FDA18810486F
:10BA5000FFF788FFF8BD0FA10020FFF71BFD00F0E6
:10BA60001FFFF8BD3F3F2041445620646574656365
:10BA70007465640A0000000054CD0100B81E002067
:10BA80003F3F20436F6E6E65637465640A0000007B
:10BA9000CC1F00203F3F205265636F6E6E6563745C
:10BAA000696E670A0000000070B506460878234DED
:10BAB0000C4601280CD002281DD0032807D120A154
:10BAC0000020FFF7E7FC0020287000F0E9FE70BDC1
:10BAD000224661880A32304600F05EF8304600F0B7
:10BAE000FBF8012028700104194800220068FFF7C4
:10BAF00061FE18A11DE01FA10020FFF7CBFC227AF8
:10BB000000206168FFF77AFC1CA10020FFF7C2FC4F
:10BB1000207A0128DBD160681949027801204005AC
:10BB2000312A04D0302AD2D1C86016A101E0886041
:10BB300017A10020FFF7AEFC70BD0000B01E002072
:10BB40003F20446973636F6E6E65637465640A00B9
:10BB500040CD01003F204E55532072656164792C21
:10BB60002073656E64696E67206D657373616765C8
:10BB7000730A00005B52585D200000000A000000BC
:10BB8000000500504C4544204F46460A0000000086
:10BB90004C4544204F4E0A0000280AD04180002A1C
:10BBA00005D05188C1801188818091880181002051
:10BBB00070470E207047000030B5114B0D46040051
:10BBC0000FCB85B003936B4607C317D0002D15D05C
:10BBD0002146684663DF00280ED1217868468174CB
:10BBE00001210182881E60802868E0600020A0801A
:10BBF000208104A8FFF756FE05B030BD0E20FBE7FC
:10BC000078CD01001FB500282DD000292BD0428807
:10BC1000154B9A4202D08C88A24224D10C88112C58
:10BC200014D0392C1FD18288002A1CD08B899342D2
:10BC300019D1C268002A16D002236A4613700A4638
:10BC400012320192097C6A46117209E08988914298
:10BC500009D1C168002906D003216A4611704380CA
:10BC6000C268694690471FBDFFFF00007FB50022F4
:10BC700000920192029203920B460A780E33002A38
:10BC800029D18A88012A26D18A790478A24222D130
:10BC9000002213E0122454431D5B022D02D0032D19
:10BCA0000BD104E0E41824896D46EC8105E0E4182A
:10BCB00026896D466E816489AC81521C0C7A94424F
:10BCC000E8D8C268002A06D04A8869464A8001221C
:10BCD0000A70C26890477FBD1FB5010018D0488820
:10BCE0000D4A904216D0C988002913D001236A4614
:10BCF000137300235373094B1A695B690092019314
:10BD00006A46518003A90291694698DF04B010BDCC
:10BD10000E20FBE70820F9E7FFFF000078CD0100C7
:10BD20003EB5002803D0142A03D907203EBD0E20BB
:10BD30003EBD4388094CA34201D108203EBD084DB9
:10BD400038CD00930295019404896B465C80DA80BB
:10BD500002914088694698DF3EBD0000FFFF000069
:10BD600094CD0100024909182020085670470000B0
:10BD7000F024002038B50B460921890141188A7E3C
:10BD80006424624310184A7E002A08D0521ED2B2A0
:10BD900012214A431218518A6A46491C01E0C1889F
:10BDA0006A461180008950801146184692DF38BDDE
:10BDB00070B5084C050009D010342168002907D05F
:10BDC00008682060496828468847F6E70834F4E7A1
:10BDD00070BD0000DC240020F8B52348416800292C
:10BDE0003ED00E6821494C6887688078E11B0D02BF
:10BDF0002D0AED1C002814D101201D4A00045060BA
:10BE00001B4A403A50601B49400008601A490860CC
:10BE10001A49012008602F2000F0B2FA12490120CF
:10BE20008870B54200D23546E81900020F4B000A6F
:10BE3000403318600D4A5168001B091B0902090AAA
:10BE40000002000AC91C814209D9506818602F20DD
:10BE500000F096FA01200749400480390860F8BDD7
:10BE600000F0DEFCF8BD0000DC1E002000150140E3
:10BE70004013014080E200E000E100E000100140DA
:10BE800010B501460148FFF7F1FE10BD2C2200203D
:10BE9000F7B50746092080013E18B07E642148436B
:10BEA000C519747E1220604341192A79601C0A3139
:10BEB00082B0904226D101AB0022384600F0EAF869
:10BEC000002822D010E0401EA04201D1002003E053
:10BED0001220604340191C300246009001AB3846E6
:10BEE00000F0D8F8002807D003980021017001A9BC
:10BEF000049893DF05B0F0BD707E0099401C641C6F
:10BF00007076E4B22879A042DDD80398012101704F
:10BF10000020EFE7F7B50921890141181446897E11
:10BF2000642251430F18384600F05EFC060033D0FF
:10BF30001A4A906806282FD2214614466C22504394
:10BF4000174D6422401941803946001DFFF7E0F883
:10BF500001980027002804D0A0686C2148432F5482
:10BF600004E0A06802216C2250432954A0686C218F
:10BF700041434919401C8E66A060E16888420BD19C
:10BF8000002605E06C2070434019816E8847761CBE
:10BF9000E0688642F6D3A760FEBD0000CC1E0020FC
:10BFA0005422002030B50D4609218901411814465C
:10BFB000897E642251439BB0081800F015FC0300F1
:10BFC00005D06846448001210170019598471BB057
:10BFD00030BD000010B50E4900230A784C78A2420B
:10BFE00012D0521CD2B20A70022A00D10B700A7809
:10BFF000074B920018339A580260886810180002A4
:10C00000000A8860012010BD0360002010BD000000
:10C01000DC1E0020F8B51E4C2078002836D0E068E1
:10C02000002600280CD00025607800282ED1684614
:10C0300052DF052806D0002806D0FFF75DFB0BE095
:10C040000125F1E7012607E0009800F0EFF92169EA
:10C05000002901D000988847002D13D1607800286E
:10C0600014D1608869460880A06861DF052804D083
:10C07000002804D0FFF740FB04E0012502E0E1685E
:10C08000A0688847002ECFD0002DE5D0F8BD000075
:10C09000081F002030B50989002A05D0D088491C26
:10C0A000814213D1002030BD092292018218947E72
:10C0B00064256C4324182489A142F3D0491C1980BB
:10C0C000917E642251430818008902E01980D088CB
:10C0D000401E5880012030BD1048018CC9B2012992
:10C0E00017D1818C090714D1018D09060A0F03D1DC
:10C0F000828D1206120F0ED0090F012903D1828DF5
:10C100001206120F07D0032903D1808D0006000FFD
:10C1100001D000207047012070470000C00F00F0E0
:10C12000F0B5284C2146103948688B68227886463D
:10C130009C46CF78667836E0182353436168521CDA
:10C14000C918A378D2B2934200D100220B78022BF7
:10C1500002D0032B27D123E003464D68194603E0A4
:10C16000A94204D00B46C96900291CD0F8E7002970
:10C1700019D08B4208D1C069002805D1124F012582
:10C18000BD600025AC4601270D68C969D961002949
:10C1900009D00B685B190B6005E00174C06900E011
:10C1A00000210028F9D19642C6D1064962461039CD
:10C1B0008A604860CF70704501D00120F0BD00203A
:10C1C000F0BD0000EC1E002000100140F8B52C4E20
:10C1D000044670680025009041E0002C02D0204603
:10C1E000E46920E0264818231030017842684B4368
:10C1F000491CC9B2D21801708378994200D10570E8
:10C200001178506801292CD1017C002929D191682D
:10C210004160D16881601169C16051698161F178C3
:10C22000002900D045604368B268164F991A090288
:10C23000090AB94202D28268891806E0D11A0902B5
:10C240008268090A8A4202D9511A016000E0056039
:10C250004560012185600174C56100F04BFC002C34
:10C26000BBD107481030017840788142BAD171685B
:10C270000098814201D00120F8BD0020F8BD0000E7
:10C28000DC1E0020FFFF7F008AB0FFF7ADF826A17B
:10C290000020FFF7FFF80121294849058161C160AD
:10C2A0000023284A03211846FFF74AFA002801D044
:10C2B000FFF722FA244A01212448FFF729FA234CE8
:10C2C00020496068099000234822483909A800F0F5
:10C2D00095FB002801D0FFF70FFA04AA00210120E6
:10C2E00000F074FB04A800F067FB194800F05AFB4B
:10C2F0001848FFF7FDFAA068049004A91648FFF754
:10C300005BFC14340FCC03936B4607C31349684698
:10C3100063DF12481149401E4078491C887000F0C4
:10C32000BFFA48DFFDE700003F3F20424C45204375
:10C33000656E7472616C2052656164790A00000058
:10C3400000050050841F002059C9010040CD0100A4
:10C35000C5B9010081BE01002C220020B11E0020C1
:10C36000C20843075B0F0120895C98400840704772
:10C370000121890740180068002800D0012070477B
:10C3800000280FD00849094A096800BF00BF00BF54
:10C3900000BF00BF00BF00BF00BF914200D000BF80
:10C3A0000138F2D170470000C81E00200024F400BC
:10C3B00070B50E4C00252078002801D0852513E0AB
:10C3C0000021A16061602161E160094800680126E7
:10C3D000304002D1032100F02FF800F03BFB002891
:10C3E00001D1044886612670284670BDDC240020F7
:10C3F00000E100E00005004038B500206946087003
:10C400006846FFF71BFA084C2078002801D1FFF797
:10C41000CFFFE068401CE0600120A0706846007813
:10C42000FFF72AFA38BD0000DC24002010B50028F0
:10C4300001D1FFF7BDFC10BD8207D30EFF229A4049
:10C440008907090E10B5994000280BDA03071B0F66
:10C45000083B9C080C4BA400E318DC6994430C4394
:10C46000DC6107E08408094BA400E41823689343C7
:10C470000B432360C106C90E0120884004490860AF
:10C480000449086010BD000000ED00E000E400E099
:10C4900080E200E000E100E005221207800082183F
:10C4A000072000021018026803231B049A4302604D
:10C4B000026809040A4302607047000038B5084B5F
:10C4C00005241B68009324026B46411805E0850093
:10C4D0005D592D192D69401C20C28142F7D838BD05
:10C4E000A0CD010002494018002101607047000002
:10C4F00000600040034940180068012800D0002077
:10C5000070470000006000404058002800D0012023
:10C5100070470322120280184068084000D00120B2
:10C5200070470000F3B583B00C460A8809210398D0
:10C5300089014718F88B82425ED1B87E6421484356
:10C54000039946186088002843D12046083002909D
:10C550003579207A2818052800D905203071002067
:10C5600001901AE001980A21484302990A224118D1
:10C5700012206843801900900A30891CFEF7C8FD1C
:10C580000098002181820098C18200980183009860
:10C5900041830198401C6D1C01903079A842E1D87C
:10C5A00012204543A9190A88B97E64230398594388
:10C5B0000818008982420CD23079052809D0787693
:10C5C00021880398FFF7D6FB010015D00020F876EC
:10C5D00009E000257D76228869460398FFF758FC1C
:10C5E00001000BD0FD7622880398FFF7DBFC0A4898
:10C5F000032101702188418005B0F0BD68460078B4
:10C600000028F9D0228801210398FFF783FC2188B4
:10C61000039800F0B3F8EFE754220020F3B581B09F
:10C620000C460A880921019889014518E88B824245
:10C630005CD1A87E64214843019922464318687E54
:10C6400012214843C018618808320A3000292CD0D2
:10C650002EE006264E43B618B446B68829273F0278
:10C66000F61B0AD0012E0CD0022E02D0082E0FD1BC
:10C670000BE06646768846810AE0664676888681C3
:10C6800006E066467688C68102E0664676880682BF
:10C690004689002E08D08689002E05D0C689002E36
:10C6A00002D0068A002E03D1491C16888E42D0D8AB
:10C6B000002668460670687E1979401C884203D1BE
:10C6C00001206946087016E068762288694601985C
:10C6D000FFF7DEFB01000AD0EE7622880198FFF713
:10C6E00061FC0A480321017021884180FEBD684633
:10C6F00000780028FAD0228801210198FFF70AFC6F
:10C700002188019800F03AF8FEBD00005422002074
:10C7100070B50646092080010C463518A87E6421B4
:10C72000484381192288E88B82420AD16088002818
:10C7300008D000213046FFF7EDFB2188304600F09D
:10C740001DF870BD62890A80A2894A80E289CA8088
:10C75000208A088121883046FFF70CFB0100F0D0C9
:10C760000020E87622883046FFF71CFC02480321AF
:10C7700001702188418070BD54220020F8B5074621
:10C78000092080013C18207F0E46401CC0B214498D
:10C790002077C968002588421FD26576A07E642173
:10C7A000401CC0B24143CA19A0760E49800040180F
:10C7B000018811804088508015710121304690DF3A
:10C7C000010009D0E57632463846FFF7EBFB054815
:10C7D0000321183001704680F8BDE576F7E70000C8
:10C7E000CC1E00203C220020F0B50C4B00210A4A50
:10C7F000DC680CE08D00AE18B6788778BE4205D1B3
:10C80000555B0688B54201D15868F0BD491CA1426C
:10C81000F0D30020F0BD00003C220020CC1E002000
:10C8200070B501240B49600408600B494010886012
:10C83000094940398860094D6C602F20FFF7A0FD41
:10C84000AC60074D00242F20AC60FFF799FDAC7061
:10C8500070BD000080E100E0401301400010014085
:10C86000DC1E002030B5FF220523CD7D00240932D7
:10C870001B02C318002D8450986905D04B7ECA68EE
:10C88000D054487E401C487630BD1FB501246B460D
:10C890001C701972019206C8684690471FBD0000BF
:10C8A00010B505488ADF002801D0FEF725FF03A157
:10C8B0000020FEF7EFFD10BDB81E00205363616E2F
:10C8C0006E696E6720737461727465642E2E2E0A11
:10C8D0000000000010B50446FEF7F2FE00280CD060
:10C8E000A007C00E002C0ADA2107090F08398908B1
:10C8F000144A89008918C96906E0134810BDA108C7
:10C90000124A890089180968C1400806800F042866
:10C9100011D200280FD002280DD00D494B68E20635
:10C92000D20E01209040002B08D0620992008B5853
:10C9300003438B5004E00448401C10BD05490860C7
:10C94000002010BD00ED00E00120000000E400E048
:10C95000001F002000E100E010B509480078002821
:10C960000CD00848FEF7F8FB82B206490648FFF7EC
:10C97000D7F9002802D105A1FEF78CFD10BD0000FB
:10C98000B01E002064CD01002C2200205B54585DB5
:10C990002068656C6C6F2066726F6D206E72662108
:10C9A0000A000000002803D00249C8600020704738
:10C9B0000E207047081F00201CB50349019100910B
:10C9C000694660DF1CBD0000B01E002070B50E4639
:10C9D0000546144614211046FEF7B3FB0120002142
:10C9E00020802161217326726572002D00D0A07213
:10C9F000002070BD10B5FEF771FE10BDF8B500291E
:10CA000003D08C070025002C01D00720F8BD0E4E66
:10CA10000E4FB1607280736039680124214003D0E9
:10CA20000A49254680310C60094910DF002803D0EF
:10CA3000002DEBD03C60F8BD3470FFF7DDFC162014
:10CA4000FFF748FFF8BD0000081F002000E100E0EC
:10CA5000F5C901000148007870470000081F002058
:10CA6000FEB51F4C0025A768606802906846FFF776
:10CA7000B1FA0190FFF754FB06460198002822D036
:10CA800000230098616817E00E680A46864202D9C2
:10CA9000301A086012E0801BF31800261660D66872
:10CAA000D169B446002E07D0FE183602360A566009
:10CAB00066469660D56115460029E5D12846616035
:10CAC000FFF784FB06E02846FFF780FB002801D132
:10CAD000002E02D00298FFF77FF90020E070FEBD23
:10CAE000DC1E00200120024900050860704700009C
:10CAF00000E200E010B50E4B5968002906D002682C
:10CB00000C68A24204D8A21A0A60C161586010BD24
:10CB10000B4604E00B46C969121B002904D00C68BF
:10CB20009442F7D3A41A0C600260C161D86110BDB1
:10CB3000DC1E0020F8B51D4D6C68002C34D01C485C
:10CB400000274068A968401A0602360A2068B042E9
:10CB500018D8361AC7192246107CE46900280FD06D
:10CB600000201074EB68002B07D09169506998473A
:10CB7000002805D0FEF7C0FD02E0516990698847A2
:10CB8000002CE3D129786878814206D1401CC0B2DC
:10CB90006870022801D10020687004490006800DE9
:10CBA00018310F50FFF79EFFF8BD0000DC1E00207B
:10CBB00000150140FF221D32002383508B8A8A68B2
:10CBC000D25C8B8A5B1C8B82052109024018C261F2
:10CBD00070471FB500226B461A7019728168019167
:10CBE000827506C8684690471FBDF0B50C46012106
:10CBF00085B005464902FFF78CFC032109026F1836
:10CC00000026002826D0FF2125312846FFF77CFC8E
:10CC100000281FD0FF2025302E5081208000B860D2
:10CC2000A07E002801D101206860022168460170C1
:10CC30000920C0012918086808600390E17D684652
:10CC40000172E0680190E675267606CC6846083CDD
:10CC500090472DE004212846FFF75BFC002827D0F1
:10CC6000FF2109312846FFF74FFC002820D021463C
:10CC70002846FFF7F7FDE07D617E884218D1207ECF
:10CC8000002807D0617EE268E0752069E0602676C2
:10CC900066760AE0A07E002801D10120686081202C
:10CCA0008000B860E675617EE2682046FFF7EDFD22
:10CCB000FF271D3739462846FFF726FC00280FD0EE
:10CCC000A08AA17D884204D221462846FFF772FF40
:10CCD00006E0EE51A17D002902D02046FFF779FF42
:10CCE000FF27453739462846FFF70EFC00280ED0AF
:10CCF000EE51A07E002801D001202860E07D0028B0
:10CD000005D0E675617EE2682046FFF7BEFD05B0FE
:10CD1000F0BD000010B509494B788C785A1CD2B28E
:10CD2000944200D100220C78944201D1002010BD21
:10CD30000270486818214B43C01810BDEC1E00203B
:10CD40001C1F002000100200A9BA010010003C00C6
:10CD5000000090019ECADC240EE5A9E093F3A3B580
:10CD60000100406E68656C6C6F2066726F6D206E9E
:10CD700072662021200A00009ECADC240EE5A9E08C
:10CD800093F3A3B50000406E010100000000020013
:10CD90000000000002010000000000000000000090
:10CDA00000000050C4CD0100B01E00206C00000047
:10CDB000A2B6010030CE01001C1F0020040F0000AD
:10CDC000B2B60100000001000000000001000000F8
:10CDD00000000000A0005000640000000024F400E7
:10CDE0000000000000000000000000000000000043
:10CDF0000000000000000000000000000000000033
:10CE00000000000000000000000000000000000022
:10CE10000000000000000000000000000000000012
:10CE20000000000000000000000000000000000002
:040000050001B0C185
:00000001FF
