:020000040001F9
:10B0000098310020D9B00100F3B00100F5B0010083
:10B010000000000000000000000000000000000030
:10B02000000000000000000000000000F7B0010078
:10B030000000000000000000F9B00100FBB00100BA
:10B04000E5B30100FDB00100E5B50100FDB0010070
:10B05000FDB001000000000029B20100FDB00100B8
:10B06000FDB00100FDB00100FDB00100FDB0010028
:10B07000FDB00100FDB00100FDB00100FDB0010018
:10B08000FDB0010039B40100FDB00100FDB00100C8
:10B090001DB50100FDB0010025B50100FDB00100A6
:10B0A000FDB00100FDB00100000000000000000044
:10B0B0000000000000000000000000000000000090
:10B0C0000448854600F09EF8004800478DD20100F4
:10B0D000C046C046983100200321094802680A434F
:10B0E0000260084802680A43026007488047074830
:10B0F0000047FEE7FEE7FEE7FEE7FEE7FEE70000AB
:10B10000240500405405004045B50100C1B00100D0
:10B1100030B50B46014600202022012409E00D46EF
:10B12000D5409D4205D31D469540491B2546954077
:10B1300040191546521E002DF1DC30BD03460B436D
:10B140009B0703D009E008C9121F08C0042AFAD2DD
:10B1500003E00B780370401C491C521EF9D2704763
:10B16000D2B201E00270401C491EFBD2704700229F
:10B17000F6E710B513460A4604461946FFF7F0FFF6
:10B18000204610BD10B5044605E00B780370401C46
:10B19000002B00D0491C521EF7D2204610BD421C85
:10B1A0000178401C0029FBD1801A704710B500229D
:10B1B00000E0521C835C8C5CA34201D1002BF8D1CF
:10B1C000D8B2E1B2401A10BD10B5044600E0401CF0
:10B1D0000378002BFBD100E0401C521E04D30B78F7
:10B1E000491C0370002BF7D100210170204610BDCF
:10B1F00003460A780270401C491C002AF9D11846FF
:10B2000070470000064C0125064E05E0E36807CCB8
:10B210002B430C3C98471034B442F7D3FFF754FF4C
:10B2200048E5010068E50100F0B50024FF268BB079
:10B230000136012527460694304602F09DFA002883
:10B2400007D054484068284203D0304602F08CFAB8
:10B250002C43361D6D007F1CB6B2042FECD3FF25A6
:10B260007D35284602F088FA002809D0284602F0E9
:10B270007BFA6807044306AA0121002002F060FA65
:10B28000454D200714D00127002627420CD0434803
:10B29000B200111808690969C004C00E8903AA58D0
:10B2A000890F002A00D090477F00761C042EECD333
:10B2B000002C6DDA00200890401E63E02819403011
:10B2C0000778B906890E009100214156491C49D0E2
:10B2D00009A9009802F0ABF8002843D0B809019002
:10B2E000009801F055F880002F580198002F02D0E7
:10B2F000032802D00DE0032834D1009808ABC2081F
:10B3000041079446985C490F01228A4010436246E7
:10B310009854009805210907800040180721090268
:10B320004018006806A98003800F0290009802F080
:10B330007EF80028029802D0022802D012E00328EA
:10B3400010D10198032808D1029802281ED00221AA
:10B35000009802F0E3F9761CF6B2002F02D00199B2
:10B360000098B847641C042CA8D3002E10D06A465D
:10B370000121002002F0E4F906990098884207D0E4
:10B380000690089800263446099097E70321DFE7E6
:10B390000BB0F0BD006300401023002000650040AA
:10B3A0008307FF22DB0E9A408907090E9940002887
:10B3B0000BDA0007000F0838830808489B001818AC
:10B3C000C36993430B43C3617047830804489B00E0
:10B3D0001B181868904308431860704700ED00E0A0
:10B3E00000E400E0F8B5FF20013002F028F8002466
:10B3F00001250E4E0E4F002807D00E480460012094
:10B40000B0607D70002000F0CBFFFF20053002F01F
:10B4100016F8002808D00748001D04600220B0601C
:10B42000BD70012000F0BCFFF8BD0000000300402B
:10B43000FC2200200001004010B5064900200860F1
:10B4400048608860C860034940390860486002F07D
:10B45000C3FD10BD4011014010B50348007800281D
:10B4600001D100F0C9F810BD44280020F8B5064607
:10B470000C48144600780D46002801D100F0BCF8B5
:10B48000002368460093037000F044FB22462946DF
:10B49000304600F009F804466846007800F058FB92
:10B4A0002046F8BD4428002070B50E4618214843B8
:10B4B000134914464518E86A1835002804D00128B5
:10B4C0000FD0022805D113E0284600F0C9F8A042A9
:10B4D00001D2002411E022463146284600F0FBF854
:10B4E0000BE0284600F0BCF8A042F4D20446F2E794
:10B4F0003146284600F0BFF80446204670BD0000E3
:10B500004428002070B505460C460846FFF747FE64
:10B51000024621462846FFF7A9FF70BD10B502F08C
:10B52000CDFC10BD10B506484068002805D0804706
:10B53000002801D000F038FA10BD01F02BFB10BD3F
:10B540006C20002010B501F073FB002805D01F49C6
:10B550001D484860C8131E4988611E48018CC9B245
:10B5600001290BD1828C120708D1028D1206120F0D
:10B57000042A03D1828D1206120F0AD0012921D18B
:10B58000818C09071ED1018D0906090F0A2904D0F3
:10B5900007E0114A01219160F5E7828D1206120F32
:10B5A00005D00D290ED1808D0006000F0AD10B4861
:10B5B0000168012904D00A49016001680129FCD110
:10B5C000C021416110BD0000DFFF07C00005004041
:10B5D000006C0040C00F00F00006004000EC064088
:10B5E0007593000010B50249024802F099FD10BDA4
:10B5F000582300200020004010B5124C022020618A
:10B60000606111A0A06120465038E06140202062B6
:10B610000020A06260620CA1A1642146E0621039A2
:10B62000E16410212165A0656065E06509A1E01D68
:10B63000FFF7DEFD08A12046FFF7DAFD2020A0710C
:10B6400010BD0000442800205465726D696E616C65
:10B650000000000052545400534547474552000033
:10B660000269C1688A4203D88068401A801800E0E5
:10B67000501A401E7047F7B5064682B00020009071
:10B68000F46817463069A04201D9051B02E0B16891
:10B69000201A0D1AB0686D1E001BA84200D805467E
:10B6A000BD4200D33D4670682A4600190399FFF752
:10B6B00045FD00987F1B40190090039864194019BC
:10B6C0000390B068A04200D10024F460002FD9D1CB
:10B6D000009805B0F0BDF7B5C66817460446806807
:10B6E000851B6068BD4206D980190199FFF726FDC8
:10B6F000F019E060FEBD2A4680190199FFF71EFD92
:10B7000001987E1B411932466068FFF717FDE6601D
:10B71000FEBD30B47446641E2578641CAB4200D272
:10B720001D46635D5B00E31830BC184702E008C8A3
:10B73000121F08C1002AFAD170477047002001E0AB
:10B7400001C1121F002AFBD170470000202804DA33
:10B75000012181400348014201D0012070470020AF
:10B7600070470000FC06FFBCF7B584B00646002514
:10B770001788158020300290407B1446002806D0A0
:10B780003A462146059800F03FFC050009D1B07803
:10B79000002823D0059886462088001DB84202D98B
:10B7A0000C2007B0F0BD684679DF0028F9D1218868
:10B7B00003207246505420881921401C80B22080FA
:10B7C000115420887146401C80B220804118684680
:10B7D000008802F039FD218840182080F078002888
:10B7E00017D0218803230A46F356C91C0598B9428D
:10B7F000D6D80221815421880122491C89B2218096
:10B8000042542188491C89B2218043542088401C1D
:10B8100020807068002817D021880023C3560A466C
:10B82000C91C0598B942BBD80221815421880A223B
:10B83000491C89B2218042542188491C89B2218047
:10B8400043542088401C2080308900280AD000946E
:10B8500030460197062202210830059B02F064FD64
:10B8600005009ED1308A00280AD000943046019706
:10B87000072203211030059B02F056FD050090D1F0
:10B88000308B00280AD000943046019715221421ED
:10B890001830059B02F048FD050082D1306A00286F
:10B8A00006D03B462246059900F0E2FD0500D8D1BE
:10B8B000706A002806D03B462246059901F034FD07
:10B8C0000500CED10298007B002807D03B462246D7
:10B8D0003046059902F092F90500C2D1307800286F
:10B8E00007D03B4622463046059901F051FD050040
:10B8F000B7D1284655E70000174A0021535C002BBA
:10B9000001D0012203E0491C0629F7D30022134984
:10B91000012806D002280BD0032810D0042818D103
:10B9200012E04878002803D0002A01D00120704797
:10B930008878002803D0002A01D002207047C878F8
:10B94000002801D0032070470879002801D0042086
:10B9500070470020704700000520002014210020BF
:10B9600010B509A1012001F0F9FF01F04BFF01F032
:10B970004FFF0028FBD1BFF34F8F0A490848C8602A
:10B98000BFF34F8F00BFFDE74150505F4552524F0C
:10B99000523A4552524F523A466174616C0D0A0058
:10B9A0000400FA0500ED00E00EB5002102900091C0
:10B9B0006A4601910148FFF7D3FF0EBD0140000028
:10B9C0000A4B5B68002B07D0002A07D0002805D05F
:10B9D0000068037C002B03D00820704707207047C5
:10B9E00000230374417442611846704740200020D0
:10B9F000FFB507469007002581B01E461446002873
:10BA000025D1002C23D002F029F83046114EF060E9
:10BA10003046103005704570029981704460756041
:10BA2000357001240C48757024050460032114202E
:10BA3000FFF7B6FC09480460094CA76003211120F8
:10BA4000FFF7AEFC6068B060002005B0F0BD0720D5
:10BA5000FBE700003020002080E200E000E100E091
:10BA600000150140FEB51F4B5B68002B30D000284D
:10BA70002ED0052901D20720FEBD4369002B27D017
:10BA8000437C012B26D000270291044600256946FD
:10BA900016460D70684600F03DF801A802F02EFC35
:10BAA000002819D0012101700F4944604968816064
:10BAB000029907614661C16068460A490079487089
:10BAC0006846007800F044F802F03AFA2846FEBDD5
:10BAD0000820FEBD0F46D7E768460425007800F031
:10BAE00037F8F3E7402000200015014010B5084961
:10BAF000496800290AD0002808D04169002905D0EA
:10BB000000210174022102F043FA10BD082010BD8B
:10BB10004020002030B5EFF3108172B6094A546816
:10BB20000123002C04D00370002900D162B630BD7F
:10BB30005360054B1D68054C254015601C600022B4
:10BB40000270F1E75420002080E100E0FC06FFBC19
:10BB500008494A68002A0CD000280AD1EFF3108067
:10BB600072B60A68044B1A6000224A60002800D1AD
:10BB700062B670475420002000E100E0F8B50746A7
:10BB800008680C460526411C01253602002906D00E
:10BB90002946814019488160206801F0B5FD606840
:10BBA000411C02D0002101F0A6FD3968A069891965
:10BBB0004862607D217D3A6808439119C8663868FB
:10BBC00006CC80194261C160207B083C012814D159
:10BBD000A068411C02D0002101F08DFDE068411CED
:10BBE00005D0854005488560E06801F08DFD3A6824
:10BBF000E1689219A06891601061F8BD00050050DD
:10BC0000F0B50C4693B01F216A4611800726002725
:10BC10009180002809D0C17849070DD502A9FFF706
:10BC2000A3FD002809D102AD01E000251780002CFA
:10BC30000ED0E078002802D0304613B0F0BD01AA43
:10BC40000AA92046FFF790FD0028F6D10AAA02E0D3
:10BC500068460022878068468088C3B268460088AC
:10BC6000C1B2284672DFE8E7FFB581B01E460A9FE1
:10BC70001346040047D0002B45D0504D01202870BA
:10BC80000020E870202219464D48FFF757FA00209F
:10BC90006F61C0432E612881284607211830FFF7C5
:10BCA00066FA47483C212030FFF761FA4448217882
:10BCB00020300170A1788170E178C17061784170A5
:10BCC0003F4A656923695563114613632031E36870
:10BCD000A268CB608A603A49E369A269CB638A6350
:10BCE000616A00291AD001463C310246483241625D
:10BCF0008A60636A1B880B80616A436A89889980BD
:10BD00000021436A07E00E2005B0F0BD656AAD680A
:10BD10006D5C5554491C9D888D42F7D8A16A002955
:10BD20001CD0274A943211460C398A608162A36A7A
:10BD30009B888B80A16A836A098819800021836AA5
:10BD400004E0A56AAD686D5C5554491C9D888D4220
:10BD5000F7D82C210A5D1A4940310A73216A00295B
:10BD600009D016490A310162226A52884A80216A42
:10BD7000026A098811806168002900D04160104A78
:10BD80000E490020B3322031C3001B1A85009B18D6
:10BD90000C68401C63510828F6DB094A0020EB328E
:10BDA000030185009B188C68401C63510828F7DB51
:10BDB000034802992030FFF723FFA5E7EC1F00207E
:10BDC0001421002010B50188134C102915D0112919
:10BDD00019D01B2910D1007A00280DD1E078052157
:10BDE000401CFFF795F9084600F018F8002803D02A
:10BDF0006169002900D0884710BD817D0129FBD1F0
:10BE00008088208110BD002161718088218988424D
:10BE1000F8D10120E8E70000EC1F0020F1B53F4C0D
:10BE200088B0207800280AD00898E07006A800F0B2
:10BE30000BFE06980125002804D065706AE00820F2
:10BE400009B0F0BD3548002707211830FFF78FF9FA
:10BE5000334E7078002802D0E078012807D0B078FF
:10BE600000280CD0E078012801D0022807D12169F0
:10BE7000002903D025710820884700E02771089821
:10BE8000FFF73AFDE0702169002909D0032801D0AD
:10BE9000042805D13078002802D06079002811D01C
:10BEA000A77118216846FFF762F9684607700772A4
:10BEB000E1781A480B001830FFF72BFC052E080F0D
:10BEC000191D2000A57107208847EAE7A570019099
:10BED000684605704782078213E00221A170019035
:10BEE00068460570B18941823189018209E068465E
:10BEF00001F0CCFE02E0684601F0F4FEE078002894
:10BF000003D0684673DF00289AD12169002901D047
:10BF1000A0788847002093E7A770F6E7EC1F002081
:10BF20001421002070B5054601461C220E48FFF77B
:10BF300005F90E4C002626702968002906D0082233
:10BF4000201DFFF7FBF8201D7ADF02E00748001DE7
:10BF50007BDF002807D1401E60806670044A002104
:10BF60000448FFF72DFD70BDE02200201C200020BA
:10BF700099E2010020E40100F8B5214C0146028855
:10BF800000261E48E589102A13D01E4F112A1FD003
:10BF9000122A2BD0502A1AD1881DC988A94216D13D
:10BFA0004189022913D10C3000F0EAF800280CD1A5
:10BFB00012E08A8804464280104808220C3018316A
:10BFC000FFF7BCF86670002D01D100F095FAF8BDBE
:10BFD0000021C943418046703868FFF787FD00287B
:10BFE000F5D0A1690029F2D08847F8BD034808229E
:10BFF0000C300831FFF7A2F8E7E700001C20002012
:10C00000E022002020E401007CB5054608880C46AB
:10C010000930904201D90C207CBD684671DF0028B0
:10C02000FAD121880820685420881B21401C80B246
:10C0300020802954208800A9401C80B2208040190B
:10C0400006220131FFF77AF820886946801D80B208
:10C0500020800978002900D0012129542088401C23
:10C06000208000207CBD000030B5184B0D46040038
:10C070000FCB85B003936B4607C324D0002D22D08D
:10C080000020C043A0822868A0610020A07521463E
:10C09000684663DF002814D1217868468174012145
:10C0A0000182A21C04A90120A0DF002809D1294691
:10C0B000204601F008FD002803D12946204601F062
:10C0C000DAFF05B030BD0E20FBE7000024E40100DC
:10C0D00010B500281BD0002919D00A88102A17D0C3
:10C0E000112A17D0502A12D104468A1DC888238AE3
:10C0F0001231984202D15389022B0FD0A388984263
:10C1000005D1A369002B02D052892046984710BD63
:10C11000898801E00021C943818210BD084600F0F2
:10C120002FF8002800D00120A07510BD07B584B0FD
:10C1300000280DD0828A114B9A420BD0827D002AB2
:10C1400008D06A46128B142A06D9072007B000BD12
:10C150000E20FBE70820F9E70022009201920292EC
:10C16000039282896B461A80039106A902910121EC
:10C170009970808A6946A6DFE8E70000FFFF0000AB
:10C180004178027808021043C007C00F70470000D2
:10C1900000B5174887B0006805900023482215496C
:10C1A00005A801F03DFE002801D0FFF7FDFB6A461F
:10C1B0000121002001F01CFE002801D0FFF7F4FB54
:10C1C000684601F0C3FD002801D0FFF7EDFB0A48E7
:10C1D00001F0B2FD002801D0FFF7E6FB0449091D7C
:10C1E000002070DF002801D0FFF7DEFB07B000BDA4
:10C1F0007CE40100BC2800200FC2010010B5032020
:10C20000FFF70CFE002801D0FFF7CEFB10BD10B5E4
:10C210000446FFF7B1FE204600F022FA2046FFF761
:10C22000D1FD10BD30B5A7B0FFF7B2FF11206946B0
:10C2300008720E222CA102A87CDF002801D0FFF793
:10C24000B3FB0024009410216846019401803C2136
:10C2500041807D218480C900C1807ADF002801D01F
:10C26000FFF7A2FB00F0AEFB3C2101A8FEF77FFF29
:10C270000221684601710521C1713C2110A8FEF719
:10C2800076FF012510A8058200F0E6F9159020211F
:10C290001FA8FEF76CFF18A8C57740202390B42094
:10C2A000249000231FAA10A9009401A8FFF7DCFC2A
:10C2B000002801D0FFF778FB1C216846FEF757FFE6
:10C2C0000520C00301900F20000402900094032178
:10C2D00068460173C4810474FFF724FE002801D06E
:10C2E000FFF762FB27B030BD6E72665F70657269E2
:10C2F00070686572616C000010B50320FFF78EFD59
:10C30000002801D0FFF750FB10BD0000F8B50D4626
:10C31000461C00206946087001246846FFF7FAFBB6
:10C32000134A10682860116850689368081A1D1A2B
:10C33000701C6D1CA84212D9002D0ED00D480E4C59
:10C340000088246880051940800DA40289002043DC
:10C350008918C8601068401C1060002401E088192A
:10C36000106068460078FFF7F3FB2046F8BD000038
:10C37000DC23002058E4010068200020034803C8A3
:10C38000814201D10120704700207047DC2300204A
:10C390000249091820200856704700001023002089
:10C3A00070B5084C050009D010342168002907D069
:10C3B00008682060496828468847F6E70834F4E7AB
:10C3C00070BD0000FC220020F8B523484168002918
:10C3D0003ED00E6821494C6887688078E11B0D02C9
:10C3E0002D0AED1C002814D101201D4A00045060C4
:10C3F0001B4A403A50601B49400008601A490860D7
:10C400001A49012008602F2001F028F81249012064
:10C410008870B54200D23546E81900020F4B000A79
:10C42000403318600D4A5168001B091B0902090AB4
:10C430000002000AC91C814209D9506818602F20E7
:10C4400001F00CF801200749400480390860F8BD6C
:10C4500001F004FBF8BD0000302000200015014071
:10C460004013014080E200E000E100E000100140E4
:10C47000F8B50646108814468446801D0D4698423D
:10C4800001D90C20F8BD32880720062AFAD31927D3
:10C49000FF01184BBA4201D99A42F3D1718806299B
:10C4A000F0D3B94201D99942ECD19A4203D09942D2
:10C4B00001D08A42E6D805216046295420881221FD
:10C4C000401C80B2208029542088401C80B22080EB
:10C4D0004119308801F0B8FE2188401880B22080D0
:10C4E0004119708801F0B0FE21884018208000209A
:10C4F000F8BD0000FFFF0000F8B5164800F08AFB09
:10C50000144D00260C3D144C002807D06169002909
:10C510001CD001206A461070684616E02878002872
:10C5200005D06169002911D0684606700DE0687871
:10C5300000280DD0A168094800220068FFF792FA90
:10C54000002803D0A169002900D088472E70F8BDCB
:10C550006168F0E728200020E022002020E40100AC
:10C5600070B50F4C0E46A178002916D021781622FE
:10C570000C4D514349198A8AFEF7E0FD20781621B7
:10C5800041434919401C898A80073180800F2070FF
:10C59000A078401EA070012070BD002070BD00007A
:10C5A000802000202029002070B5224C0D46A17863
:10C5B0008AB0042937D2002D35D0142D33D8002865
:10C5C00031D06178162251431B4E2A468B19014601
:10C5D0001846FEF7B3FD607816214143401C8919C7
:10C5E00080078D82800F6070A0782022401CC5B229
:10C5F000A57012496846FEF7A1FD022208A9284647
:10C6000001F028FE202208A9684601F03BFC202208
:10C610000BA1684601F036FC69460020FEF772FF68
:10C6200001200AB070BD07A10020FEF76BFF0020BB
:10C63000F7E700008020002020290020D8E4010036
:10C640000A0000005B51554555455D20496E7661F5
:10C650006C69640A000000000048704788200020D0
:10C66000F0B50646008889B000252F4C6F4610288B
:10C6700004D011282AD0502850D135E0B088E0806D
:10C680000120E070284808210C30FEF770FD274893
:10C69000802145678567C5670D5023480821143000
:10C6A000FEF765FD214822A1803045608560C560A8
:10C6B000056125706570A5706846FEF799FD6846AE
:10C6C000FEF76DFDC1190422E0881CE00020C04384
:10C6D000E080E57025706570A5701AA10020FEF756
:10C6E00011FFFFF709FE19E01049F088098A884216
:10C6F00014D119A13846FEF77BFD6846FEF74FFDC1
:10C70000C119B07C042201F0A5FD202217A16846C2
:10C7100001F0B8FB69460020FEF7F4FE31460348FD
:10C72000FFF7D6FC09B0F0BD8020002004290020CE
:10C73000436F6E6E65637465642C2068616E646C13
:10C74000653A20005B424C455D20446973636F6E1F
:10C750006E65637465640A004343434420777269DD
:10C7600074652C2076616C75653A20000A00000023
:10C7700030B587B00D004CD0142D4AD8002848D0D1
:10C780000A4601466846FEF7D9FC0024684644552F
:10C7900052A1FEF70BFD00283DD0524DE87801284C
:10C7A0003FD0022858D0032877D0042831D16846DA
:10C7B000FEF7F5FC10282CD20F2269464A48FEF7F6
:10C7C000E1FC494849A1C4730020FEF79BFE46499D
:10C7D0000020FEF797FE49A10020FEF793FE424994
:10C7E00000201039FEF78EFE45A10020FEF78AFEDC
:10C7F0003D490020FEF786FE40A10020FEF782FEA4
:10C8000040A000F09FF8EC7000F040FA1321E88897
:10C8100076DF07B030BD00F0D3FB3BA000F092F80C
:10C82000F7E73048072269460C30FEF7ABFC2D488D
:10C8300037A10C30C4710020FEF764FE29490020A6
:10C840000C31FEF75FFE2DA10020FEF75BFE33A04A
:10C8500000F078F802203FE06846FEF7A0FC1028C0
:10C86000D7D221480F2269461038FEF78BFC1E48AC
:10C870002BA11038C4730020FEF744FE1A49002093
:10C880001039FEF73FFE1DA10020FEF73BFE27A05A
:10C8900000F058F803201FE0FFE76846FEF77FFC32
:10C8A0000828B6D20F48072269461430FEF76AFC02
:10C8B0000C481FA11430C4710020FEF723FE094963
:10C8C00000201431FEF71EFE0CA10020FEF71AFE18
:10C8D0001BA000F037F80420E8709AE75445535441
:10C8E0000000000080200020882900205B52585D55
:10C8F0002044657461696C733A2000000A000000EE
:10C900002000000034000000544553545F4F4B009A
:10C910005B52585D2049443A20000000310000007D
:10C920005B52585D204E616D653A20003200000078
:10C930005B52585D2050726963653A200000000028
:10C940003300000030B5054619481A49C0888BB03D
:10C9500088422AD02846FEF722FC82B22946164891
:10C96000FFF7E4FB04000CD0202214496846FEF7D0
:10C97000E5FB042208A9204601F06CFC202208A94E
:10C9800007E00E49202220316846FEF7D7FB20221F
:10C990002946684601F076FA202209A1684601F08E
:10C9A00071FA69460020FEF7ADFD0BB030BD000006
:10C9B00080200020FFFF00000429002098E40100EF
:10C9C0000A00000008B50C490C4863DF002801D0BC
:10C9D000FEF7EAFF0A48009069460A48FFF744FB61
:10C9E000002801D0FEF7E0FF03480349001F00794B
:10C9F000091D887008BD00008420002088E4010023
:10CA000023DA01000429002010B50E4900230A781A
:10CA10004C78A24212D0521CD2B20A70022A00D123
:10CA20000B700A78074B920018339A580260886896
:10CA300010180002000A8860012010BD0360002069
:10CA400010BD000030200020002804D00349496EAA
:10CA5000016000207047032070470000742300200D
:10CA60000248182181618160704700000005005074
:10CA7000F8B50A4C0826E6611027A760052000F0EB
:10CA800005FD2069E7600007C517A6616D1C03D18D
:10CA900003A10020FEF736FD2846F8BD0005005032
:10CAA0005B4932435D204E6F2041434B0A0000003A
:10CAB00010B5FFF7D5FF084C1820A060052000F046
:10CAC000E5FC0820E060052000F0E0FC1020E060BC
:10CAD000052000F0DBFC10BD0005005070B5FFF72D
:10CAE000BFFF064C0825E5601020A060052000F07F
:10CAF000CDFCA560052000F0C9FC70BD000500500C
:10CB000070B50821084C002801D0A16000E0E16068
:10CB10001025A560052000F0B9FCE560052000F0B7
:10CB2000B5FC012070BD00000005005070B57D26E9
:10CB3000F60004460025E009FFF7E2FF002809D0CF
:10CB40006006040E761E07D06D1C082DF3DBFFF780
:10CB50008FFF70BD03A100E008A10020FEF7D2FC0A
:10CB6000002070BD5B4932435D20577269746520B7
:10CB7000626974206661696C65640A005B493243CE
:10CB80005D2057726974652074696D656F75740AEC
:10CB900000000000F8B51E4C2078002836D0E06870
:10CBA000002600280CD00025607800282ED1684689
:10CBB00052DF052806D0002806D0FEF7F5FE0BE070
:10CBC0000125F1E7012607E0009800F0B5FC216996
:10CBD000002901D000988847002D13D160780028E3
:10CBE00014D1608869460880A06861DF052804D0F8
:10CBF000002804D0FEF7D8FE04E0012502E0E16839
:10CC0000A0688847002ECFD0002DE5D0F8BD0000E9
:10CC10006C200020418805480288914204D3408856
:10CC2000814201D801207047002070472020002059
:10CC30001048018CC9B2012917D1818C090714D180
:10CC4000018D09060A0F03D1828D1206120F0ED034
:10CC5000090F012903D1828D1206120F07D0032973
:10CC600003D1808D0006000F01D000207047012005
:10CC700070470000C00F00F010B5002100F037F938
:10CC8000C82000F003FC012010BD000000B58BB0EF
:10CC900014216846FEF76BFA142105A8FEF767FA1F
:10CCA0003F48FEF77CFA002803D13EA13C48FEF73E
:10CCB0009FFA3E48FEF773FA002804D13B483CA196
:10CCC00014380988818236481030FEF768FA002847
:10CCD00004D1334837A11030FEF78AFA11223049C7
:10CCE000684601F0CFF8112235A1684601F0CAF874
:10CCF0002B4911221031684601F0C4F811222B494A
:10CD000005A801F0BFF811222EA105A801F0BAF87C
:10CD10002EA10020FEF7F6FB69460020FEF7F2FB8D
:10CD20002FA10020FEF7EEFB05A90020FEF7EAFB8D
:10CD30002CA10020FEF7E6FB00F090F8002826D09A
:10CD40000120FFF799FF002823D027497D20274A9B
:10CD50000968000100BF00BF00BF00BF00BF00BFE7
:10CD600000BF00BF914200D000BF0138F2D1684639
:10CD700000F0ABF800280ED005A800F0AFF80028AE
:10CD80000BD01BA10020FEF7BDFB0BB000BD1EA108
:10CD9000F8E723A1F6E727A1F4E72BA1F2E70000CB
:10CDA000782900204E6F4E616D65000094200020B0
:10CDB000300000004E6F44657461696C73000000C0
:10CDC000200000002064746E000000005B4C4344AF
:10CDD0005D205570646174696E673A200000000040
:10CDE0002C2000000A000000E81F00200024F400AE
:10CDF0005B4C43445D2055706461746520636F6DC6
:10CE0000706C6574650A00005B4C43445D2052659C
:10CE1000696E6974206661696C65640A00000000CF
:10CE20005B4C43445D20436C656172206661696CB4
:10CE300065640A005B4C43445D204C696E6531209B
:10CE40006661696C65640A005B4C43445D204C6913
:10CE50006E6532206661696C65640A0010B5322027
:10CE600000F0F5FA302000F053F800282CD005200F
:10CE700000F0EDFA302000F04BF8002824D0C82054
:10CE800000F004FB302000F043F800281CD02020E4
:10CE900000F03EF8002817D02820FFF7EDFE00280C
:10CEA00012D00C20FFF7E8FE00280DD00620FFF777
:10CEB000E3FE002808D00120FFF7DEFE002803D0A3
:10CEC000022000F0C4FA012010BD10B50446012074
:10CED00000F06AF8204600F0FFF810BD10B50446D7
:10CEE000022000F061F8204600F0F6F810BD70B5A1
:10CEF0000C4601460009000109070D0E204300F011
:10CF000007F82A462243104600F002F870BD0000E0
:10CF100010B50446FFF7CCFD4E20FFF707FE0028B2
:10CF200014D020460C210843FFF700FE00280FD044
:10CF3000052000F0ABFA204608210843FFF7F6FD74
:10CF4000002807D0FFF7CAFD012010BD05A102E0AF
:10CF500009A100E00FA10020FEF7D4FAFFF7BEFD03
:10CF6000002010BD5B4C43445D20416464726573D6
:10CF700073206661696C0A005B4C43445D204E6916
:10CF800062626C652028656E61626C65292066614D
:10CF9000696C0A005B4C43445D204E6962626C65BB
:10CFA000206661696C0A000010B5012805D00228CE
:10CFB00002D1C020FFF760FE10BD8020FAE700001C
:10CFC00010B516A10020FEF79DFAFFF747FF0028D5
:10CFD00017D00120FFF750FE002814D0022000F0E7
:10CFE00036FA13A0FFF771FF00280ED013A0FFF749
:10CFF00075FF00280BD012A10020FEF783FA012054
:10D0000010BD15A104E01AA102E020A100E026A1B4
:10D010000020FEF777FA002010BD00005B4C43446F
:10D020005D20546573742073746172740A0000008B
:10D030004C43442054657374000000004F4B0000C3
:10D040005B4C43445D205465737420636F6D706C5A
:10D050006574650A000000005B4C43445D20546524
:10D06000737420696E6974206661696C65640A0076
:10D070005B4C43445D205465737420636C6561723E
:10D08000206661696C65640A000000005B4C4344E3
:10D090005D2054657374206C696E6531206661692A
:10D0A0006C65640A000000005B4C43445D205465DD
:10D0B0007374206C696E6532206661696C65640A00
:10D0C0000000000010B50121FFF711FFC82000F09B
:10D0D000DDF9012010BD000070B50546002406E012
:10D0E0006D1CFFF7EFFF002808D0641CE4B228781D
:10D0F000002801D0102CF3D3012070BD02A1002024
:10D10000FEF700FA002070BD5B4C43445D2057726F
:10D1100069746520737472696E67206661696C65F5
:10D12000640A0000F0B5284C2146103948688B6825
:10D13000227886469C46CF78667836E0182353439B
:10D140006168521CC918A378D2B2934200D1002260
:10D150000B78022B02D0032B27D123E003464D6826
:10D16000194603E0A94204D00B46C96900291CD026
:10D17000F8E7002919D08B4208D1C069002805D1F1
:10D18000124F0125BD600025AC4601270D68C96915
:10D19000D961002909D00B685B190B6005E00174A7
:10D1A000C06900E000210028F9D19642C6D10649A5
:10D1B000624610398A604860CF70704501D0012006
:10D1C000F0BD0020F0BD0000402000200010014014
:10D1D000F8B52C4E044670680025009041E0002C04
:10D1E00002D02046E46920E0264818231030017858
:10D1F00042684B43491CC9B2D218017083789942E6
:10D2000000D105701178506801292CD1017C0029CA
:10D2100029D191684160D16881601169C16051690B
:10D220008161F178002900D045604368B268164FEB
:10D23000991A0902090AB94202D28268891806E0DD
:10D24000D11A09028268090A8A4202D9511A016078
:10D2500000E005604560012185600174C56100F052
:10D2600077FE002CBBD1074810300178407881420E
:10D27000BAD171680098814201D00120F8BD002028
:10D28000F8BD000030200020FFFF7F000023114A7E
:10D2900005211846FEF7ACFB002801D0FEF784FB01
:10D2A000FEF7DAF80CA10020FEF72CF9114918203E
:10D2B00088618860FFF7D2FD002809D00EA1002008
:10D2C000FEF720F9FEF7AEFFFEF798FF48DFFDE717
:10D2D0000FA1F4E79C2000205B494E49545D20508B
:10D2E00065726970686572616C2053746172740A4A
:10D2F00000000000000500505B494E49545D204C81
:10D30000434420496E697469616C697A65640A00F6
:10D310005B494E49545D204C434420496E6974205A
:10D320006661696C65640A0070B5144682880E46B1
:10D3300005462088111D4118921C994201D8FE2AE9
:10D3400001D90C2070BD521C32542088FF21401C92
:10D3500080B2208031542088401C80B22080811906
:10D36000288800F071FF2188401880B22080AA88A8
:10D37000002A09D0A968002908D08019FDF7DEFE2F
:10D380002088A98840182080002070BD072070BD2B
:10D39000F8B50F46017814460546012902D1687890
:10D3A000002806D02088821C9A422DD8012902D05C
:10D3B00006E00720F8BD69784118891C994223D8F6
:10D3C000181A801E86B2684606802188B81C081884
:10D3D00069467DDF0028EDD12878022805D169460D
:10D3E0000988B14201D809210AE00821012805D1A4
:10D3F0006878B04202D86A46108001E0684606802C
:10D4000068460088FE2801D90C20F8BD2288401CFF
:10D41000B8542088401C80B2208039542088694646
:10D42000401C20800988401820800020F8BDC208D8
:10D4300043075B0F0120895C984008407047012139
:10D44000890740180068002800D0012070477D211E
:10D4500010B5C900484300F019F810BD00280FD0DE
:10D460000849094A096800BF00BF00BF00BF00BFEC
:10D4700000BF00BF00BF914200D000BF0138F2D111
:10D4800070470000E81F00200024F40000280FD09F
:10D490000849094A096800BF00BF00BF00BF00BFBC
:10D4A00000BF00BF00BF914200D000BF0138F2D1E1
:10D4B00070470000E81F00200024F40070B50E4CF7
:10D4C00000252078002801D0852513E00021A160E7
:10D4D00061602161E160094800680126304002D1A5
:10D4E000032100F02FF800F0C7FC002801D1044808
:10D4F00086612670284670BDFC22002000E100E015
:10D500000005004038B50020694608706846FEF7FF
:10D5100001FB084C2078002801D1FFF7CFFFE0681D
:10D52000401CE0600120A07068460078FEF710FB08
:10D5300038BD0000FC22002010B5002801D1FEF704
:10D540002FFF10BD8207D30EFF229A408907090ED4
:10D5500010B5994000280BDA03071B0F083B9C0805
:10D560000C4BA400E318DC6994430C43DC6107E036
:10D570008408094BA400E418236893430B432360F9
:10D58000C106C90E012088400449086004490860AA
:10D5900010BD000000ED00E000E400E080E200E0EB
:10D5A00000E100E0F8B506460F4600791C2148432B
:10D5B0001A4915464418E07E002801D00820F8BD1D
:10D5C00039463046FEF7DAFA656038692060284649
:10D5D0000025002813D0FF223068397F1D32855086
:10D5E000FF22306845328550032330681B020C4A05
:10D5F000C01842603068000B40B2FFF7A3FF05225D
:10D6000030680421120280180160E5752576A57541
:10D610000121E1762846A576F8BD000058230020B8
:10D6200080000200F8B501791C225143204A0023F2
:10D630008D1805220168120289180B60696800299B
:10D640000CD00324016824021A4B09198B6001686D
:10D65000C903CB0E01219940174B196005220168BF
:10D6600012028A18D3685669976814690021C94361
:10D670005161D16000680522120280188160016149
:10D68000581C02D0184600F02DF8701C02D030460D
:10D6900000F028F8601C02D0204600F023F8781C27
:10D6A00002D0384600F01EF80020E8766860F8BD29
:10D6B000582300208402020080E100E070B552008F
:10D6C0000A439900049D0A432902059E0A43310436
:10D6D00005240A4324078000072100190902401885
:10D6E000026070BD1CB5002100910B460122019122
:10D6F000FFF7E4FF1CBD1CB500220B46009211464B
:10D700000192FFF7DBFF1CBD1CB5002100910B4609
:10D71000012201911146FFF7D1FF1CBD052212071E
:10D7200080008218072000021018026803231B04DF
:10D730009A430260026809040A43026070470000CD
:10D7400038B5084B05241B68009324026B4641182A
:10D7500005E085005D592D192D69401C20C28142CC
:10D76000F7D838BD34E401000249401800210160B7
:10D77000704700000060004003494018006801281D
:10D7800000D00020704700000060004030B5194C08
:10D790000546207889B0002805D06078854202D1FE
:10D7A000002009B030BD202213496846FDF7C6FCB1
:10D7B000002069460875092000900B200190082080
:10D7C00003900A2002900D4806900A48001DFFF7BA
:10D7D00029FF002D01D0002200E0094A05486946D2
:10D7E000001DFFF7DFFE0028DBD1012020706570EF
:10D7F000D6E700005C20002038E4010000E0D701FB
:10D8000011E1010010B50120FFF7C0FF10BD0000BD
:10D81000F0B595B0FEF7B2FD002802D0002015B09B
:10D82000F0BD4B484468866821463140890009189C
:10D830000A94CD680BE02904A80D890D401804193D
:10D8400020463040810042480A940818C568641C8C
:10D85000A807F0D000200990A807800F3D4B0228B0
:10D8600007D0A80A8646A805000F84460FA9002005
:10D8700059E02046304081003548641C0818C068D3
:10D88000049486462804800D84463440301B800072
:10D89000AF0D001D874222D92D490C31002807D039
:10D8A0002B4AA400A21814460C34C2B2381A03E062
:10D8B0000C460021FAB20846C0B2039001920291D0
:10D8C0000094A8065C69400F634672460999A04718
:10D8D000B84213D1FF1C0498B9080C1830E01C485A
:10D8E000A200101800210C300090029101970391C2
:10D8F000A8065C69400F63467246E8E71649800552
:10D900000D40000C05430A9830408100104808186B
:10D91000C56017E027463740BA000D4F401CD719A5
:10D92000FF68641C80C167466045F3D3A806009772
:10D930001D69400F0FAB72460999A847002801D016
:10D9400003484460FEF71AFD0121484067E70000E4
:10D95000DC230020DC2700203F00FFFFF8B5104D3E
:10D960000E46074600206946AC68FEF7CFFC00284B
:10D9700015D00C483C21808888437907890E0843DC
:10D980000F21890188438105890DB0020143009868
:10D990000246224092005219401CD1600090F8BD0E
:10D9A000DC23002058E40100F7B5154C82B00E4688
:10D9B000074601206946A568FEF7A8FC00281CD090
:10D9C00010483C21008988437907890E08430F21BC
:10D9D00089018843402108438105890DB002014334
:10D9E000009802462A4092001219D160401C009013
:10D9F0002840800000190499C16005B0F0BD000006
:10DA0000DC23002058E401004058002800D0012009
:10DA100070470322120280184068084000D001209D
:10DA2000704700B5084687B01146FEF7BDFD0028D7
:10DA300009D005A96846FEF793FD002803D0684683
:10DA4000818AFEF795FE07B000BD012252075110F2
:10DA5000886B496B414388187047000070B50124FA
:10DA60000B49600408600B4940108860094940393F
:10DA70008860094D6C602F20FFF7F0FCAC60074D0B
:10DA800000242F20AC60FFF7E9FCAC7070BD0000F3
:10DA900080E100E0401301400010014030200020F0
:10DAA00030B5FF220523CD7D002409321B02C318A7
:10DAB000002D8450986905D04B7ECA68D054487EAA
:10DAC000401C487630BD70B500240546601C90B0FF
:10DAD0000007000F08A9103008940870601C0007A8
:10DAE000000F103048708878F9263040801C88700C
:10DAF0001C2101A8FDF73BFB69460879102108436A
:10DB000069460871029408A8049405940794069045
:10DB1000287808A988710320694688841120009418
:10DB2000087048708878F7213040801C0840EF2149
:10DB30000840012630436946887014210AA8FDF781
:10DB400016FB09A80A9068460B9069460E861420B9
:10DB50004C8688862B4668880C330AAA01A9A2DF66
:10DB600010B070BD1FB501246B461C701972019274
:10DB700006C8684690471FBD10B50446FDF7E6FD90
:10DB800000280CD0A007C00E002C0ADA2107090FCC
:10DB900008398908144A89008918C96906E01348B8
:10DBA00010BDA108124A890089180968C1400806F9
:10DBB000800F042811D200280FD002280DD00D4963
:10DBC0004B68E206D20E01209040002B08D062097B
:10DBD00092008B5803438B5004E00448401C10BD56
:10DBE00005490860002010BD00ED00E001200000A4
:10DBF00000E400E05420002000E100E0FFB507460B
:10DC0000806A81B0144600283DD000253846203077
:10DC1000009033E00C20B96A68430E18B088801C6D
:10DC2000FE2802D90C2005B0F0BD22880299401CC4
:10DC3000885420881622401C80B2208002990A5401
:10DC40002088401C80B2208002994118308800F062
:10DC5000FBFA2188401880B22080B288002A0AD0BE
:10DC6000B16800290FD0029BC018FDF767FA208821
:10DC7000B188401820806D1C0098EDB2007BA8424E
:10DC8000C8D80020CFE70720CDE7000070B50446D4
:10DC90001248134D018A2182818A6182007800280E
:10DCA00018D06879002815D100F0AEFB002811D0FB
:10DCB00028462030E06002200849207204202031EC
:10DCC000C870064800212030FDF79AFF002804D1D3
:10DCD000052000E00320A870002070BD1421002062
:10DCE000EC1F002070B5044611480426018B2182E8
:10DCF000818B618200780F4D002816D0687900284A
:10DD000013D100F081FB00280FD028462030E060BE
:10DD100002202072064800212030C670FDF770FFF7
:10DD2000002804D10620A87000E0AE70002070BD6D
:10DD300014210020EC1F0020002803D00249C860F5
:10DD4000002070470E2070476C2000201CB50F4942
:10DD500001910091694660DF0446009A0198824271
:10DD60000AD00B490220FFF71FFEFFF76EFE009955
:10DD7000421A08A1022004E0002C04D0224612A17D
:10DD80000120FFF711FE20461CBD0000E81F002007
:10DD900004E501005344483A5741524E494E473A30
:10DDA00052414D2073697A652073686F756C6420E9
:10DDB00062652061646A757374656420746F2030D5
:10DDC000782578200D0A00005344483A4552524FB6
:10DDD000523A73645F626C655F656E61626C653A4E
:10DDE000206572726F7220307825780D0A0000006D
:10DDF00070B50E460546144614211046FDF7B7F9D6
:10DE00000120002120802161217326726572002D7E
:10DE100000D0A072002070BD10B5FDF7A1FD10BDAF
:10DE2000F8B5002903D08C070025002C01D007206D
:10DE3000F8BD0E4E0E4FB1607280736039680124D8
:10DE4000214003D00A49254680310C60094910DF82
:10DE5000002803D0002DEBD03C60F8BD3470FFF7F4
:10DE600051FB1620FFF788FEF8BD00006C20002053
:10DE700000E100E019DE0100014800787047000071
:10DE80006C200020F8B514460F460646FDF787F9CA
:10DE900005463846FDF783F92A18611E8A4201D3E8
:10DEA000601B401E002808D0024639463046FDF768
:10DEB0008BF9002130192038C177F8BDFEB51F4C11
:10DEC0000025A768606802906846FEF79DFD0190F6
:10DED000FFF728F906460198002822D00023009871
:10DEE000616817E00E680A46864202D9301A086057
:10DEF00012E0801BF31800261660D668D169B4467C
:10DF0000002E07D0FE183602360A56606646966026
:10DF1000D56115460029E5D128466160FFF758F91B
:10DF200006E02846FFF754F9002801D1002E02D060
:10DF30000298FEF749FA0020E070FEBD3020002074
:10DF400001200249000508607047000000E200E07F
:10DF500010B50E4B5968002906D002680C68A24221
:10DF600004D8A21A0A60C161586010BD0B4604E0D3
:10DF70000B46C969121B002904D00C689442F7D3E0
:10DF8000A41A0C600260C161D86110BD302000206D
:10DF90007CB50D460646002469460C706846FDF7C0
:10DFA000B9FD01A800F0AAF900280DD0057046605F
:10DFB000684608490079487068460078FDF7C8FD52
:10DFC000FFF7BEFF20467CBD684604240078FDF7BD
:10DFD000BFFDF7E740200020F8B51D4D6C68002C10
:10DFE00034D01C4800274068A968401A0602360A47
:10DFF0002068B04218D8361AC7192246107CE46946
:10E0000000280FD000201074EB68002B07D0916916
:10E0100050699847002805D0FDF7C6FC02E0516919
:10E0200090698847002CE3D129786878814206D12D
:10E03000401CC0B26870022801D1002068700449F9
:10E040000006800D18310F50FFF77AFFF8BD000071
:10E050003020002000150140FF221D320023835094
:10E060008B8A8A68D25C8B8A5B1C8B8205210902B1
:10E070004018C261704770B58EB005461C216846D5
:10E08000FDF775F8694608780C2108436946087061
:10E09000002401940394049405940694287808A914
:10E0A0008870022069460884601C0007000F103049
:10E0B0000794087711204877887FF9210840F721D5
:10E0C000801C0840EF2108400126304369468877CC
:10E0D000142109A8FDF74BF808A8099007A80A9091
:10E0E00069468E851420CC85088668882B1D09AA70
:10E0F000A2DF0EB070BD1FB500226B461A701972F8
:10E1000081680191827506C8684690471FBD00006E
:10E110000078012801D10149887070475C200020F7
:10E12000F0B50C46012185B005464902FFF771FCA8
:10E13000032109026F180026002826D0FF2125316F
:10E140002846FFF761FC00281FD0FF2025302E5005
:10E1500081208000B860A07E002801D10120686085
:10E160000221684601700920C0012918086808606A
:10E170000390E17D68460172E0680190E6752676BD
:10E1800006CC6846083C90472DE004212846FFF75E
:10E1900040FC002827D0FF2109312846FFF734FC36
:10E1A000002820D021462846FFF77AFCE07D617EDA
:10E1B000884218D1207E002807D0617EE268E07591
:10E1C0002069E060267666760AE0A07E002801D10C
:10E1D0000120686081208000B860E675617EE26899
:10E1E0002046FFF7BFFCFF271D3739462846FFF7BB
:10E1F0000BFC00280FD0A08AA17D884204D22146C2
:10E200002846FFF729FF06E0EE51A17D002902D044
:10E210002046FFF770FFFF27453739462846FFF7AE
:10E22000F3FB00280ED0EE51A07E002801D0012083
:10E230002860E07D002805D0E675617EE268204612
:10E24000FFF790FC05B0F0BD0870000A487002208E
:10E2500070470000F0B585B015460F4606461422FB
:10E2600008A16846FCF76AFF6C1E07D468463107B0
:10E27000090F415C39553609641EF8D500207855E0
:10E2800005B0F0BD3031323334353637383941429C
:10E29000434445460000000038B51549154A4888F2
:10E2A00090420FD04A78144C521CD2B24A70237B51
:10E2B000934208D3091D75DF002803D0A169002906
:10E2C00000D0884738BD00254D70217C002907D03B
:10E2D0003B2176DF002803D0A169002900D08847C0
:10E2E00061690029EED068460570884738BD000096
:10E2F0001C200020FFFF0000E022002010B509498B
:10E300004B788C785A1CD2B2944200D100220C78FF
:10E31000944201D1002010BD0270486818214B437F
:10E32000C01810BD40200020FFB583B016460C9DDC
:10E330000D9C1F46022200950194039800F00CF8F2
:10E34000002807D13B4610223146009501940398DE
:10E3500000F002F807B0F0BDFFB583B0074600201B
:10E360000C9C8646268805463AE07868A900421843
:10E370001188684681805188C1800022694601A8C1
:10E3800065DF002839D1684601780598814226D199
:10E390007046002801D0002200E00222208889185F
:10E3A00042180D998A4227D8714600290AD1401C8B
:10E3B00080B22080069A049911542088401C208045
:10E3C00001208646218806980A18694601A865DF5B
:10E3D000002812D1694620880978401820806D1CD9
:10E3E0003888A842C1DC704600280AD02088801BEB
:10E3F000401E80B2FF2802D90C2007B0F0BD06995C
:10E4000088550020F9E7000004480179002902D16D
:10E41000007B002800D00120704700000C20002065
:10E42000C02200209ECADC240EE5A9E093F3A3B528
:10E430000000406E00000050FFFFFFFFFFFFFFFFE6
:10E44000FFFFFFFFFFFFFFFF0000000000000000D4
:10E4500000E0D701030000002900000001000000D7
:10E4600001000000010000000100000001000000A8
:10E470000100000001000000020000000100000790
:10E4800000133456789ABC009ECADC240EE5A9E03D
:10E4900093F3A3B50100406E5B54585D204661695B
:10E4A0006C65643A200000000000000000000000DD
:10E4B00000000000000000005B54585D20000000D8
:10E4C000000000000000000000000000000000004C
:10E4D00000000000000000005B51554555455D20DF
:10E4E000456E7175657565642C20636F756E743A41
:10E4F00020000000000000004F766572666C6F77A8
:10E500000D0A00005344483A5741524E494E473A8B
:10E5100073645F626C655F656E61626C653A205220
:10E52000414D2073746172742073686F756C642040
:10E5300062652061646A757374656420746F20304D
:10E540007825780D0A00000068E50100E81F00202A
:10E55000B40000002CB701001CE601009C20002044
:10E56000FC1000003CB701000024F4000000000093
:10E57000000000000000000000000000000000009B
:10E5800000000000000000000000000080220020C9
:10E5900000000000A0220020000000000000000099
:10E5A000000000000000000000000000000000006B
:10E5B000000000000000000000000000000000005B
:10E5C000000000000000000000000000000000004B
:10E5D000000000000000000000000000000000003B
:10E5E0000020004000000000F8E4010000000000EE
:10E5F000000000000000000000000000000000001B
:10E60000000000000000FFFF01000000000000000B
:0CE61000000000000000000000000000FE
:040000050001B0C185
:00000001FF
