:020000040001F9
:10B0000098340020D9B00100F3B00100F5B0010080
:10B010000000000000000000000000000000000030
:10B02000000000000000000000000000F7B0010078
:10B030000000000000000000F9B00100FBB00100BA
:10B04000CDB90100FDB00100CDBB0100FDB0010094
:10B05000FDB001000000000011B80100FDB00100CA
:10B06000FDB00100FDB00100FDB00100FDB0010028
:10B07000FDB00100FDB00100FDB00100FDB0010018
:10B08000FDB0010021BA0100FDB00100FDB00100DA
:10B0900005BB0100FDB001000DBB0100FDB00100CA
:10B0A000FDB00100FDB00100000000000000000044
:10B0B0000000000000000000000000000000000090
:10B0C0000448854600F0BAF900480047C1D50100A0
:10B0D000C046C046983400200321094802680A434C
:10B0E0000260084802680A43026007488047074830
:10B0F0000047FEE7FEE7FEE7FEE7FEE7FEE70000AB
:10B1000024050040540500402DBB0100C1B00100E2
:10B1100003460B439B0703D009E008C9121F08C070
:10B12000042AFAD203E00B780370401C491C521E1B
:10B13000F9D27047D2B201E00270401C491EFBD226
:10B1400070470022F6E710B513460A460446194632
:10B15000FFF7F0FF204610BD10B5044605E00B7860
:10B160000370401C002B00D0491C521EF7D2204611
:10B1700010BD421C0178401C0029FBD1801A704789
:10B1800010B5002200E0521C835C8C5CA34201D10C
:10B19000002BF8D1D8B2E1B2401A10BD30B5044648
:10B1A0000020034600E05B1C934203D2E05CCD5CD0
:10B1B000401BF8D030BD03460A780270401C491C81
:10B1C000002AF9D1184670470FB400B58DB0099028
:10B1D0000B9010A900200091C0430A9000200C9011
:10B1E00006480690064807906A4609A80F9900F09D
:10B1F000F3F80DB008BC04B018470000F9B3010023
:10B2000019B40100FFB50027FF4383B000205C683C
:10B2100001909E681D46A9697F1C0498884700908C
:10B22000296A88470028F6D10098401C0CD00320DA
:10B2300040028443002E19DD600614D500982B28A7
:10B2400009D02D280FD103E00020C04307B0F0BD86
:10B25000012080020443A9697F1C04988847761E58
:10B260000090002E02DD0098302803D005980028B9
:10B2700025D035E0012040020443A969761E7F1CD9
:10B28000049888470090002E03DD782805D05828C0
:10B2900003D00598002810D022E00598002801D09E
:10B2A00010281DD1012040028443A969761E7F1C0D
:10B2B000049888470090102002E0082000E00A204F
:10B2C00005900DE0012149020C43059A0199761E73
:10B2D000514308180190A9697F1C04988847009081
:10B2E000002E05DD0599009800F061F80028E9DAE4
:10B2F000E96904988847A00502D40120C043A5E766
:10B30000E00722D1600611D56005019800D54042C2
:10B3100029680A1D2A600968220501D5087014E011
:10B32000220701D5088010E008600EE02868011DA2
:10B3300029600068210502D50199017005E0210707
:10B34000019901D5018000E0016038467EE7F0B543
:10B350001FB40646002082B00546402401910090AB
:10B360001BE0019922460F46304600F089F8049A06
:10B37000059B801A994110D310461946224600F0C9
:10B380006FF8361A8F410197224601200021009F55
:10B3900000F066F838184D4100902046641E0028E1
:10B3A000DFDC019B00982946324607B0F0BD3A2801
:10B3B00000D23038202302469A43412A01D3104656
:10B3C0003738884201D30020C043704702681378A1
:10B3D000511801601846704710B5D1600449516199
:10B3E0000449116200211161114600F061F810BD9D
:10B3F000CDB30100A3B401004268002A08D001685F
:10B400000B78491C002B03D0521E06C0184670470B
:10B410000121C160881E70474268002A0BD0C368B2
:10B420000168002B07D183688B4204D0491E521C4F
:10B4300006C0002070470020C0437047064C01251D
:10B44000064E05E0E36807CC2B430C3C98471034CC
:10B45000B442F7D3FFF738FEFCED01001CEE01000B
:10B4600010B5202A04DB0146203A9140002010BD8F
:10B47000914020239C1A0346E3401943904010BD9D
:10B4800010B5202A04DB0846203AD040002110BD28
:10B490000B46D340D0402024A21A914008431946BD
:10B4A00010BD10B50F21C0B2490200F09FF910BDC8
:10B4B000F3B58DB000200A9001200B9000260846BD
:10B4C0000C300C4609906269012109989047051ECD
:10B4D0002ED0252D2DD0216A8847002818D06269EA
:10B4E000012109989047216A88470028F7D1411E19
:10B4F00062690998904700E0761CA1690D98884719
:10B50000216A88470028F7D1E1690D988847DAE772
:10B51000A1690D9888470746A84201D1761CD2E759
:10B52000E1690D9888477F1C02D10A98002877D0DE
:10B530004AE1002762693D463946099890472A2822
:10B540000CD16269012109989047012506E00A2182
:10B550004F433F18303FEBD410200543626901216F
:10B5600009989047014630390A2903D29C498F42F5
:10B57000DEDCECE7E90600D49A4F6C280AD04C28B0
:10B5800010D0682824D06A282ED074280CD07A28AD
:10B590000AD00DE062690121099890476C2823D0F8
:10B5A00004211CE02020054362690121099890478D
:10B5B000A760656065284FD026DC582839D01ADC92
:10B5C000452849D012DC252834D04128B0D143E0A9
:10B5D0006269012109989047682802D008210D432B
:10B5E000E6E70120C002DEE70220DCE7462833D090
:10B5F00047282CD130E05B2870D061282CD06328FC
:10B600006CD0642823D161E06F284FD009DC662814
:10B6100022D0672820D0692826D06E2817D12EE0A6
:10B62000CEE070284DD073286FD075284ED0782882
:10B630000DD154E0A1690D9888470546252800D111
:10B640006CE7E1690D9888476D1C00D16DE7BBE0A0
:10B650000A224CE00A2252E0012023466A46C043F7
:10B660000D99C046C046A4E02846402108436060CA
:10B67000A807234601D5002239E000223FE0E80771
:10B6800000D020E72068011D21600068290501D550
:10B69000067018E7290701D5068014E7A90703D526
:10B6A000F117066041600EE706600CE7284640216E
:10B6B00008436060A807234601D5082217E0082246
:10B6C0001DE0494928460840606016E028464021B0
:10B6D00008436060A8072346BCD5B9E715E02846B3
:10B6E000402108436060A80707D5234610220120A7
:10B6F000C0430D99C046C0465BE02346102201209E
:10B70000C0430D99FFF77EFD53E000210C910B46DD
:10B710000091632802D05B2808D044E02079C0065D
:10B7200001D40120A060012000903CE06269012169
:10B73000099890475E2805D101200C900146626966
:10B74000099890472169002906D10B4601AA8F006C
:10B75000491CD3510829FADB002835D0216900297A
:10B760000ED1C117C90E09184A11930001AA9A18DF
:10B7700049094901411A01201368884003431360B5
:10B7800062690121099890475D28E5D10C9800284D
:10B7900008D0002001AB81005A58401CD2435A50B7
:10B7A0000828F8DB01AB01202246C0430D99C046B2
:10B7B000C04600280ADA401C06D10B98002803D0A6
:10B7C0000020C0430FB0F0BD0A98FBE7E90702D1A3
:10B7D0000A99491C0A91361800200B9073E6000064
:10B7E000CCCCCC0CFFFFFF7FF1F7FFFF7F2801D906
:10B7F000002207E0054B42089A5CC00700D11209FD
:10B800001207120F012090400840704718ED010008
:10B81000F0B50024FF268BB001360125274606949B
:10B82000304602F0E7FA002807D054484068284222
:10B8300003D0304602F0D6FA2C43361D6D007F1C33
:10B84000B6B2042FECD3FF257D35284602F0D2FA9C
:10B85000002809D0284602F0C5FA6807044306AA62
:10B860000121002002F0AAFA454D200714D001273B
:10B87000002627420CD04348B20011180869096914
:10B88000C004C00E8903AA58890F002A00D090472F
:10B890007F00761C042EECD3002C6DDA002008907B
:10B8A000401E63E0281940300778B906890E0091E0
:10B8B00000214156491C49D009A9009801F068FFB0
:10B8C000002843D0B8090190009801F015FB8000D2
:10B8D0002F580198002F02D0032802D00DE0032832
:10B8E00034D1009808ABC20841079446985C490FD0
:10B8F00001228A40104362469854009805210907A6
:10B9000080004018072109024018006806A980033A
:10B91000800F0290009801F03BFF0028029802D0AF
:10B92000022802D012E0032810D10198032808D180
:10B93000029802281ED00221009802F02EFA761CEE
:10B94000F6B2002F02D001990098B847641C042C6D
:10B95000A8D3002E10D06A460121002002F02EFA52
:10B9600006990098884207D0069008980026344629
:10B97000099097E70321DFE70BB0F0BD00630040BB
:10B98000482B0020006500408307FF22DB0E9A4011
:10B990008907090E994000280BDA0007000F0838C4
:10B9A000830808489B001818C36993430B43C3617D
:10B9B0007047830804489B001B181868904308438D
:10B9C0001860704700ED00E000E400E0F8B5FF20EB
:10B9D000013001F0E5FE002401250E4E0E4F002837
:10B9E00007D00E4804600120B0607D70002001F097
:10B9F000A9FAFF20053001F0D3FE002808D007483F
:10BA0000001D04600220B060BD70012001F09AFAB0
:10BA1000F8BD000000030040342B0020000100406E
:10BA200010B506490020086048608860C860034976
:10BA300040390860486002F071FE10BD40110140BD
:10BA400010B503480078002801D100F0C9F810BDF6
:10BA50001C2C0020F8B506460C48144600780D460C
:10BA6000002801D100F0BCF8002368460093037061
:10BA700000F0F4FC22462946304600F009F804465E
:10BA80006846007800F008FD2046F8BD1C2C002018
:10BA900070B50E4618214843134914464518E86A04
:10BAA0001835002804D001280FD0022805D113E052
:10BAB000284600F0C9F8A04201D2002411E0224635
:10BAC0003146284600F0FBF80BE0284600F0BCF8B1
:10BAD000A042F4D20446F2E73146284600F0BFF80F
:10BAE0000446204670BD00001C2C002070B50546A1
:10BAF0000C460846FFF73DFB024621462846FFF765
:10BB0000A9FF70BD10B502F09FFD10BD10B506482D
:10BB10004068002805D08047002801D000F088FB4D
:10BB200010BD01F0A5FB10BD8020002010B501F074
:10BB300023FC002805D01F491D484860C8131E4932
:10BB400088611E48018CC9B201290BD1828C120771
:10BB500008D1028D1206120F042A03D1828D12061B
:10BB6000120F0AD0012921D1818C09071ED1018D24
:10BB70000906090F0A2904D007E0114A0121916042
:10BB8000F5E7828D1206120F05D00D290ED1808D9A
:10BB90000006000F0AD10B480168012904D00A49A8
:10BBA000016001680129FCD1C021416110BD000084
:10BBB000DFFF07C000050040006C0040C00F00F030
:10BBC0000006004000EC06407593000010B50249E5
:10BBD000024802F081FF10BD902B002000200040A1
:10BBE00010B5124C02202061606111A0A0612046B6
:10BBF0005038E061402020620020A06260620CA109
:10BC0000A1642146E0621039E16410212165A0653C
:10BC10006065E06509A1E01DFFF7CDFA08A12046A7
:10BC2000FFF7C9FA2020A07110BD00001C2C0020D5
:10BC30005465726D696E616C0000000052545400CE
:10BC400053454747455200000269C1688A4203D8FC
:10BC50008068401A801800E0501A401E7047F7B5FF
:10BC6000064682B000200090F46817463069A04272
:10BC700001D9051B02E0B168201A0D1AB0686D1ECB
:10BC8000001BA84200D80546BD4200D33D4670685F
:10BC90002A4600190399FFF73BFA00987F1B4019C9
:10BCA00000900398641940190390B068A04200D135
:10BCB0000024F460002FD9D1009805B0F0BDF7B58D
:10BCC000C668174604468068851B6068BD4206D971
:10BCD00080190199FFF71CFAF019E060FEBD2A46B1
:10BCE00080190199FFF714FA01987E1B4119324619
:10BCF0006068FFF70DFAE660FEBD00000FB47CB58A
:10BD00000C0009AD01D0611E00E0002101910090FE
:10BD1000074B6A462946089800F036F8002C02D0F6
:10BD2000009A002111707CBC08BC04B018470000C8
:10BD3000FDC1010030B47446641E2578641CAB421A
:10BD400000D21D46635D5B00E31830BC184702E07B
:10BD500008C8121F08C1002AFAD170477047002096
:10BD600001E001C1121F002AFBD17047202804DA2C
:10BD7000012181400348014201D001207047002089
:10BD800070470000FC06FFBCFFB591B00F460546AA
:10BD9000002606E025280AD0149A139990476D1CB6
:10BDA000761C28780028F5D1304615B0F0BD002467
:10BDB00000940121F34A029400E004436D1C2B78A7
:10BDC0000846203B98401042F7D128782A280ED008
:10BDD0000222287801463039092915D800990A230A
:10BDE00059433039401814436D1C0090F1E701CFDE
:10BDF0000090002805DA01204003044300984042E7
:10BE00000090022004436D1C28782E2815D10420B0
:10BE1000044368786D1C2A280AD101CF6D1C02905A
:10BE20000BE002990A225143303940186D1C0290F0
:10BE30002878014630390929F3D928786C2810D0A0
:10BE400006DC4C281AD068280ED06A2817D104E0E6
:10BE5000742813D07A2812D110E001204005044341
:10BE60000CE00121090501E0032109050C43697873
:10BE7000814203D10120000524186D1C6D1C287817
:10BE80006E281ED00CDC632831D004DC00288BD057
:10BE9000582811D1B2E064287BD069280CD178E011
:10BEA00073282DD004DC6F2870D0702804D1A7E04F
:10BEB00075286CD078286BD0149A13999047761C0B
:10BEC00062E06002400F022807D003280AD004284D
:10BED00038680AD006603F1D56E03868F1170660E2
:10BEE0004160F8E738680680F5E70670F3E73878D0
:10BEF000694608740020487404A80390012003E0F8
:10BF0000386803900020C0433F1D61070FD5002112
:10BF100001E00199491C029A0191914213DA814290
:10BF2000F7DB019A0399895C0029F2D10BE000212B
:10BF300001E00199491C01918142FADB019A0399C0
:10BF4000895C0029F5D101990098139A401A009054
:10BF50002146149B00F03CF901998019461807E02E
:10BF6000039803990078491C0391149A13999047F8
:10BF70000198401E0190401CF2D12146149B139A57
:10BF8000009800F015F986196D1C0AE741E033E0CE
:10BF900034E00A200021049005916002410F02293B
:10BFA00005D001CFC2179446032905D007E0FF1D35
:10BFB000FF08FF0003CF06E000B2C2179446042931
:10BFC00002D140B2C1178C4600226146944506DA80
:10BFD0000A460021404291418C462D2102E0210574
:10BFE00004D52B216A461176012103E0E10701D037
:10BFF0002021F7E7019155E00A200BE0102009E02D
:10C000001020049000210420044308200591029090
:10C0100003E008200021059104906002410F0229ED
:10C0200005D001CF00229446032906D006E0FF1D6B
:10C03000FF08FF0003CF8C4603E080B2042900D143
:10C04000C0B20021019121072CD5297803917029D4
:10C0500006D0049A1021059B4A401A4305D00EE0F1
:10C0600040216A461176012108E06146014306D06D
:10C0700030216A4611760399517602210191049A82
:10C080000821059B4A401A430CD16146014301D166
:10C09000610707D530216A46117601210191029985
:10C0A000491E02912978582904D037A103910FA97C
:10C0B0000F910DE039A1F9E76146059B049AFFF75E
:10C0C00046F9039B8C469B5C0F9A521E0F9213708D
:10C0D00061460143F0D10F9807A9081A2030039058
:10C0E000600704D5012000048443029801E0012088
:10C0F00002900399884201DD401A00E000204118B7
:10C100000290019809180098401A0090E00306D4A4
:10C110002146149B139A009800F05AF886190020C3
:10C12000049008E006A9085C149A139990470498B3
:10C13000401C761C049001998842F3DBE0030CD587
:10C140002146149B139A009800F042F8861904E0E7
:10C15000149A302013999047761C0299481E029039
:10C160000029F5DC08E00F980F990078491C0F9121
:10C17000149A13999047761C0399481E039000293E
:10C18000F1DCFAE609280100303132333435363734
:10C190003839616263646566000000003031323313
:10C1A00034353637383941424344454600000000B3
:10C1B000F8B5044600251E461746880404D405E059
:10C1C00039462020B0476D1C641EF9D52846F8BDBD
:10C1D000FFB50446002581B01E46C80301D53027AF
:10C1E00000E02027880404D505E038460399B047CD
:10C1F0006D1C641EF9D5284605B0F0BD4A68002ABA
:10C2000006D00A68531C0B6010704868401E4860D6
:10C2100070470000BFF34F8F04490348C860BFF365
:10C220004F8F00BFFDE700000400FA0500ED00E0BD
:10C230000EB50021029000916A4601910148FFF776
:10C24000E9FF0EBD01400000C16881600020704719
:10C2500010B58268C368934203D000F0A5FF0020A8
:10C2600010BD052010BD002906D0002A02D0531EA3
:10C27000134203D0092070470E207047016083806D
:10C2800000218160C1600846704710B58268C368AC
:10C290009A1A83889A4203D800F090FF002010BDBC
:10C2A000042010BDFFB507469007002581B01E464B
:10C2B0001446002825D1002C23D001F0D3FF3046AE
:10C2C000114EF06030461030057045700299817053
:10C2D00044607560357001240C4875702405046055
:10C2E00003211420FFF750FB09480460094CA760A4
:10C2F00003211120FFF748FB6068B060002005B003
:10C30000F0BD0720FBE700004420002080E200E0B1
:10C3100000E100E00015014010B50548FFF794FF6B
:10C32000002803D102481030FFF78EFF10BD000037
:10C33000AC2B002070B50B4D0146AE780A48FFF7D4
:10C3400087FF0446002E0AD00020A870691C012235
:10C35000C81D01F0CFFB002801D0FFF769FF204680
:10C3600070BD000064200020AC2B0020F0B5274EEB
:10C3700089B01F460D00044672601CD0A888296849
:10C3800082B22348FFF76FFF002815D1A889A9685A
:10C3900082B21F481030FFF766FF00280CD1202220
:10C3A0001C496846FEF7B4FE60690690207C0028B0
:10C3B00004D0012103E0072009B0F0BD0021684648
:10C3C00001750777607C002800D00E20694648750B
:10C3D000E0680290A0680390206801906068009077
:10C3E0000A480D4A083001F045FB0028E4D1B0703E
:10C3F0002068401CE0D00548083001F0A9FB034943
:10C400000122491CC81D01F075FBD5E764200020FE
:10C41000AC2B0020F8EC010031EA010010B5014618
:10C420000C48FFF732FF040012D10B4801F05AFC10
:10C4300000280DD1084907480839FFF709FF0028EF
:10C4400006D1054901220839034801F0EBFB0446F7
:10C45000204610BDBC2B00206C20002030B5EFF32F
:10C46000108172B6094A54680123002C04D003706D
:10C47000002900D162B630BD5360054B1D68054CE4
:10C48000254015601C6000220270F1E77820002032
:10C4900080E100E0FC06FFBC08494A68002A0CD095
:10C4A00000280AD1EFF3108072B60A68044B1A60B4
:10C4B00000224A60002800D162B670477820002030
:10C4C00000E100E0F8B5074608680C460526411C67
:10C4D00001253602002906D029468140194881608D
:10C4E000206801F050FC6068411C02D0002101F07E
:10C4F00041FC3968A06989194862607D217D3A68EC
:10C5000008439119C866386806CC80194261C16039
:10C51000207B083C012814D1A068411C02D00021D6
:10C5200001F028FCE068411C05D085400548856085
:10C53000E06801F028FC3A68E1689219A06891600F
:10C540001061F8BD0005005070B500280AD00F4DED
:10C550002978002908D0044601F044FE002805D0BF
:10C56000002070BD0E2070BD082070BDE868062850
:10C5700009D2074A8100891822880A8062884A8085
:10C58000401CE860ECE7042070BD0000342000206F
:10C5900094280020002808D0002205490123CA6001
:10C5A0000B708A604860104670470E20704700008C
:10C5B0003420002010B5002811D000290FD0114AD6
:10C5C0001278002A0BD00A88112A11D0302A07D0FD
:10C5D000322A09D0332A02D1091D01F09FFC10BD77
:10C5E000091D01F015FD10BD091D01F01BFC10BD5A
:10C5F0008A88092189014018C18B8A42F7D100211C
:10C60000C17610BD3420002010B50B4600280ED096
:10C6100013490A78002A0CD0CA68002A09D00922D6
:10C6200092018418E27E002A05D0112010BD0E2050
:10C6300010BD082010BDE38300228A602277A27615
:10C6400062760246074801881180408850800121A7
:10C65000184690DF0028EDD10120E076002010BDC3
:10C66000342000209428002010B5044601460548D7
:10C67000FFF7A0FF2146044800F0FEFA204600F034
:10C6800005F810BD2225002084270020F0B50546BE
:10C69000018808309DB0102973D0514C11296ED0FB
:10C6A0001B296DD01D2948D1044643788278C17872
:10C6B000007901AD0FC560790090A37949A22021CE
:10C6C00005A8FFF71BFB05A90020FFF70FFA20467E
:10C6D00000F00EFE002820796378A278E17801ADA1
:10C6E0000FC560790090A37901D049A200E0584AB3
:10C6F00040210DA8FFF702FB0DA90020FFF7F6F976
:10C70000204600F0F5FD002817D000262546093503
:10C710000FE0A8194178AF5D072901D0062906D19D
:10C7200010224C49801CFEF739FD002807D0F6196D
:10C73000761C207AC008B042EBD81DB0F0BD46A1EF
:10C740000020FFF7D3F92648072221461830FEF7CC
:10C75000DFFC404A2249083A203120468CDF00287D
:10C7600007D003464BA220210DA8FFF7C7FA0DA959
:10C7700000E04EA10020FFF7B9F9DEE701E022E07A
:10C7800026E0044643788278C178007901AE0FC66E
:10C7900060790090A3794DA2202105A8FFF7AEFA99
:10C7A00005A90020FFF7A2F90D48072221461830FD
:10C7B000FEF7AEFCA9885148FFF726FF012050493B
:10C7C00040058860B9E74FA103E001F097FDB4E7A9
:10C7D00050A10020FFF78AF9E0680028F5D1ACE706
:10C7E000002000205065657220616464723A202543
:10C7F0003032583A253032583A253032583A2530BE
:10C8000032583A253032583A253032580A00000062
:10C810004164647265737320253032583A25303292
:10C82000583A253032583A253032583A2530325865
:10C830003A2530325820666F756E6420696E20701C
:10C84000726F64756374206C6973740A0000000071
:10C85000B8ED010094EC01004E5553205555494464
:10C8600020666F756E6420616E6420616464726519
:10C87000737320696E2070726F64756374206C69C5
:10C8800073742C20636F6E6E656374696E672E2EF1
:10C890002E0A0000436F6E6E656374696F6E2066CA
:10C8A00061696C65643A2025750A0000436F6E6EFD
:10C8B000656374696E6720746F2070657269706853
:10C8C0006572616C2E2E2E0A00000000436F6E6EA2
:10C8D000656374656420746F3A20253032583A25B8
:10C8E0003032583A253032583A253032583A2530CD
:10C8F00032583A253032580A000000002225002024
:10C9000000050050446973636F6E6E6563746564FF
:10C910000A000000436F6E6E656374696F6E207469
:10C92000696D656F75742C207265747279696E67B4
:10C930000A000000F3B508789FB00C46012816D015
:10C94000022850D0032810D170A10020FFF7CEF8A4
:10C95000724800210171C170C068002801D001F047
:10C96000CDFC01206E494005C86021B0F0BD2246D3
:10C9700061880A321F9800F049F91F9800F0E6F923
:10C98000030006D067A220216846FFF7B7F9694681
:10C99000B8E0624D01272F716BA10020FFF7A6F8C8
:10C9A0000024754E1BE02046372148438119009032
:10C9B0005A4806221930491CFEF7F0FB00280DD119
:10C9C0005648183001780098305C814206D12C61BD
:10C9D00037204443A019EF70C01D8CE0641CE86848
:10C9E0008442E0D3C1E700252F462E4614E060685C
:10C9F00062A2835D2020411B12A84019FFF77EF937
:10CA000045196068805D014620395E2900D92E20D5
:10CA10001AA9C855761C7F1C207AB04203D91C2D58
:10CA200001D20F2FE3D300261AA9CE5512A80191E7
:10CA30000090237A53A2402102A8FFF75FF902A9D0
:10CA40000020FFF753F8207A01288ED1334DE87883
:10CA500001282AD0022835D0032840D0042884D1C8
:10CA600060680078342880D10520E8706E714FA18D
:10CA70000020FFF73BF81F981321408876DF030062
:10CA800008D051A2402102A8FFF738F902A90020DE
:10CA9000FFF72CF8286901F0C1FBE86800282DD0C9
:10CAA0000120687101F02AFC5FE760680078312896
:10CAB00098D10220E8702869372148432E49401850
:10CAC0000F3018E06068007832288BD10320E870BE
:10CAD000286937214843284940181F300BE0606817
:10CAE00000783328E0D10420E870286937214843D2
:10CAF00021494018273001F075FC36E72E700120DF
:10CB0000687037A10020FEF7F1FF2EE744697363D8
:10CB10006F6E6E65637465640A000000002000207B
:10CB2000000500504661696C656420746F20656E75
:10CB300061626C65206E6F74696669636174696FA8
:10CB40006E733A2025750A004E555320646973634D
:10CB50006F7665727920636F6D706C6574652C20DB
:10CB60006E6F74696669636174696F6E7320656E58
:10CB700061626C65640A0000C421002025303258CF
:10CB8000200000005B52585D204C656E6774683A67
:10CB90002025752C20446174613A20257328415367
:10CBA0004349493A202573290A00000050726F64F6
:10CBB0007563742073656E74207375636365737336
:10CBC00066756C6C790A0000446973636F6E6E65FC
:10CBD0006374206661696C65643A2025750A0000FB
:10CBE000416C6C2070726F64756374732073656E32
:10CBF000742C20726573756D696E672055415254AF
:10CC000020726563657074696F6E0A0000280AD02F
:10CC10004180002A05D05188C18011888180918887
:10CC20000181002070470E207047000030B5114B85
:10CC30000D4604000FCB85B003936B4607C317D096
:10CC4000002D15D02146684663DF00280ED12178DB
:10CC50006846817401210182881E60802868E06036
:10CC60000020A080208104A8FFF76EFC05B030BD35
:10CC70000E20FBE7CCEC01001FB500282DD00029C9
:10CC80002BD04288154B9A4202D08C88A24224D1E4
:10CC90000C88112C14D0392C1FD18288002A1CD06A
:10CCA0008B89934219D1C268002A16D002236A46A2
:10CCB00013700A4612320192097C6A46117209E029
:10CCC0008988914209D1C168002906D003216A46AA
:10CCD00011704380C268694690471FBDFFFF000086
:10CCE0007FB5002200920192029203920B460A78CD
:10CCF0000E33002A29D18A88012A26D18A7904781C
:10CD0000A24222D1002213E0122454431D5B022DC3
:10CD100002D0032D0BD104E0E41824896D46EC8188
:10CD200005E0E41826896D466E816489AC81521C49
:10CD30000C7A9442E8D8C268002A06D04A8869462C
:10CD40004A8001220A70C26890477FBD1FB501006A
:10CD500018D048880D4A904216D0C988002913D0AF
:10CD600001236A46137300235373094B1A695B69E5
:10CD7000009201936A46518003A90291694698DFA7
:10CD800004B010BD0E20FBE70820F9E7FFFF00000C
:10CD9000CCEC01003EB5002803D0142A03D90720AB
:10CDA0003EBD0E203EBD4388094CA34201D1082060
:10CDB0003EBD084D38CD00930295019404896B4621
:10CDC0005C80DA8002914088694698DF3EBD0000B1
:10CDD000FFFF0000E8EC010000B51B488FB0406881
:10CDE0000D900023482219490DA801F0A9FB002845
:10CDF00001D0FFF71DFA6A460021012001F088FBEF
:10CE0000002801D0FFF714FA684601F077FB030011
:10CE100008D00FA2202105A8FEF770FF05A9002069
:10CE2000FEF764FE124801F05FFB030008D011A278
:10CE3000202105A8FEF762FF05A90020FEF756FE97
:10CE400000F072FB0FB000BD84EC010094200020C4
:10CE5000536F667444657669636520656E61626CC4
:10CE600065206661696C65643A2025750A000000DA
:10CE700069C60100424C45206576742068616E6485
:10CE80006C657220736574206661696C65643A2014
:10CE900025750A000022D243830004490428CA50A1
:10CEA00002D308182030027770470000482B00207A
:10CEB000F0B50025ED43002A02D00023042601E04E
:10CEC000042308260B4C04E09F00E7597F1C04D084
:10CED0005B1CB342F8D32846F0BD26185DB220365D
:10CEE00035709E00A151002AF5D1E1182031087754
:10CEF000F1E70000482B00200249091820200856BD
:10CF000070470000482B002038B50B4609218901E5
:10CF100041188A7E6424624310184A7E002A08D091
:10CF2000521ED2B212214A431218518A6A46491C33
:10CF300001E0C1886A461180008950801146184678
:10CF400092DF38BD70B5084C050009D01034216857
:10CF5000002907D008682060496828468847F6E716
:10CF60000834F4E770BD0000342B0020F8B52348E6
:10CF7000416800293ED00E6821494C688768807856
:10CF8000E11B0D022D0AED1C002814D101201D4AC1
:10CF9000000450601B4A403A50601B494000086042
:10CFA0001A4908601A49012008602F2000F000FC8F
:10CFB000124901208870B54200D23546E8190002B6
:10CFC0000F4B000A403318600D4A5168001B091BC3
:10CFD0000902090A0002000AC91C814209D95068E5
:10CFE00018602F2000F0E4FB01200749400480393D
:10CFF0000860F8BD01F036F9F8BD000044200020BB
:10D00000001501404013014080E200E000E100E033
:10D010000010014010B501460148FFF761FE10BD48
:10D0200084270020F7B50746092080013E18B07E0E
:10D0300064214843C519747E1220604341192A793E
:10D04000601C0A3182B0904226D101AB00223846E2
:10D0500000F070F9002822D010E0401EA04201D15B
:10D06000002003E01220604340191C30024600906B
:10D0700001AB384600F05EF9002807D00398002184
:10D08000017001A9049893DF05B0F0BD707E00998E
:10D09000401C641C7076E4B22879A042DDD8039865
:10D0A000012101700020EFE7F7B50921890141183E
:10D0B0001446897E642251430F18384601F092F8D5
:10D0C000060033D01A4A906806282FD2214614460B
:10D0D0006C225043174D6422401941803946001D8F
:10D0E000FEF716F801980027002804D0A0686C21EC
:10D0F00048432F5404E0A06802216C225043295475
:10D10000A0686C2141434919401C8E66A060E1680B
:10D1100088420BD1002605E06C2070434019816ED7
:10D120008847761CE0688642F6D3A760FEBD000003
:10D1300034200020AC28002030B50D46092189019B
:10D1400041181446897E642251439BB0081801F0AF
:10D1500049F8030005D0684644800121017001951B
:10D1600098471BB030BD000010B50E4900230A7867
:10D170004C78A24212D0521CD2B20A70022A00D1BC
:10D180000B700A78074B920018339A58026088682F
:10D1900010180002000A8860012010BD0360002002
:10D1A00010BD000044200020826883881A40036874
:10D1B0009A5C0A708168491C81607047C2688388E4
:10D1C0001A4003689954C168491CC1607047000047
:10D1D000084A0221516008490B68002BFCD090607E
:10D1E00008680028FCD00020506008680028FCD0A7
:10D1F0007047000000E5014000E401403EB5002416
:10D2000001221520009423461146019400F076FD7A
:10D21000012014494005C860002216200323009411
:10D220001146019400F06AFD00F01CFC002805D1B5
:10D2300000F0EAFB002801D0FEF7FAFF0A48694631
:10D240000068029003204872084A02A9162000F0E4
:10D2500087FB002801D0FEF7EBFF0121162000F02C
:10D2600033FB3EBD0005005084EC0100A5E5010044
:10D27000F8B51E4C2078002836D0E068002600283B
:10D280000CD00025607800282ED1684652DF052892
:10D2900006D0002806D0FEF7CBFF0BE00125F1E712
:10D2A000012607E0009800F0D9FA2169002901D091
:10D2B00000988847002D13D16078002814D1608829
:10D2C00069460880A06861DF052804D0002804D0E2
:10D2D000FEF7AEFF04E0012502E0E168A0688847A0
:10D2E000002ECFD0002DE5D0F8BD0000802000201A
:10D2F000F8B5064600240D4D0D4F0FE020463722AD
:10D30000504331782A5C914207D141190622701CA2
:10D31000491CFDF743FF002805D0641CF8688442CF
:10D32000ECD30020F8BD0120F8BD0000C42100208E
:10D330000020002030B50989002A05D0D088491C7A
:10D34000814213D1002030BD092292018218947EBF
:10D3500064256C4324182489A142F3D0491C198008
:10D36000917E642251430818008902E01980D08818
:10D37000401E5880012030BD1048018CC9B20129DF
:10D3800017D1818C090714D1018D09060A0F03D129
:10D39000828D1206120F0ED0090F012903D1828D42
:10D3A0001206120F07D0032903D1808D0006000F4B
:10D3B00001D000207047012070470000C00F00F02E
:10D3C000F0B5284C2146103948688B68227886468B
:10D3D0009C46CF78667836E0182353436168521C28
:10D3E000C918A378D2B2934200D100220B78022B45
:10D3F00002D0032B27D123E003464D68194603E0F2
:10D40000A94204D00B46C96900291CD0F8E70029BD
:10D4100019D08B4208D1C069002805D1124F0125CF
:10D42000BD600025AC4601270D68C969D961002996
:10D4300009D00B685B190B6005E00174C06900E05E
:10D4400000210028F9D19642C6D10649624610391A
:10D450008A604860CF70704501D00120F0BD002087
:10D46000F0BD00005420002000100140F8B52C4E03
:10D47000044670680025009041E0002C02D0204650
:10D48000E46920E0264818231030017842684B43B5
:10D49000491CC9B2D21801708378994200D1057035
:10D4A0001178506801292CD1017C002929D191687B
:10D4B0004160D16881601169C16051698161F17811
:10D4C000002900D045604368B268164F991A0902D6
:10D4D000090AB94202D28268891806E0D11A090203
:10D4E0008268090A8A4202D9511A016000E0056087
:10D4F0004560012185600174C56101F0EFF8002CE1
:10D50000BBD107481030017840788142BAD17168A8
:10D510000098814201D00120F8BD0020F8BD000034
:10D5200044200020FFFF7F0000B58FB005A871DF09
:10D5300003000AD00EA2202107A8FEF7DFFB07A9EF
:10D540000020FEF7D3FA0FB000BD6846437D827D10
:10D55000C17D007E049301AB07C36846407E009006
:10D560006846837E0AA2202107A8FEF7C7FBE6E7EC
:10D570004765742063656E7472616C2061646472C7
:10D58000657373206661696C65643A2025750A00CD
:10D5900043656E7472616C20616464723A20253058
:10D5A00032583A253032583A253032583A253032FE
:10D5B000583A253032583A253032580A00000000D7
:10D5C0008EB0FEF73DFA39A10020FEF78FFA18223F
:10D5D0003B4904A8FDF79CFD394C203C20463830DF
:10D5E0000FC803936B4607C30323364A694604A852
:10D5F000FEF7BCFE002804D033A10020FEF776FA27
:10D60000FEE7FFF7FBFD0023344A03211846FEF72F
:10D6100049FE002801D0FEF70BFEFFF7DDFB304886
:10D62000FEF7B8FF2F480990002509A92E48FFF7FB
:10D63000FDFA030008D02DA2202101A8FEF75EFB11
:10D6400001A90020FEF752FA10340FCC0D930AAB5B
:10D6500007C32D490AA863DF030008D02BA22021AD
:10D6600002A8FEF74BFB02A90020FEF73FFA264C6A
:10D67000A41F2146A0791431887000F08FFD217815
:10D68000012000290BD0E168002908D06570607185
:10D6900024A10020FEF72AFA00F030FE04E06070BA
:10D6A0002BA10020FEF722FA48DFFDE7424C45207F
:10D6B00043656E7472616C2052656164790A000082
:10D6C000A4EC0100D5E701005541525420696E6970
:10D6D00074206661696C65640A000000DC2000202B
:10D6E00015D0010035C90100842700204E55532074
:10D6F000636C69656E7420696E6974206661696C1B
:10D7000065643A2025750A000620002055554944D5
:10D7100020616464206661696C65643A2025750A3D
:10D720000000000050726F647563747320666F753B
:10D730006E6420696E20666C6173682C207374615E
:10D740007274696E6720424C45207363616E0A00F3
:10D750004E6F2070726F647563747320696E2066FB
:10D760006C6173682C2077616974696E6720666FDD
:10D770007220554152542064617461206F7220738D
:10D78000776974636820746F67676C650A000000CE
:10D79000C20843075B0F0120895C9840084070472E
:10D7A0000121890740180068002800D00120704737
:10D7B00000280FD00849094A096800BF00BF00BF10
:10D7C00000BF00BF00BF00BF00BF914200D000BF3C
:10D7D0000138F2D170470000302000200024F4000E
:10D7E00070B50E4C00252078002801D0852513E067
:10D7F0000021A16061602161E160094800680126A3
:10D80000304002D1032100F02FF800F0C5FE0028BF
:10D8100001D1044886612670284670BD342B002053
:10D8200000E100E00005004038B5002069460870BE
:10D830006846FEF713FE084C2078002801D1FFF758
:10D84000CFFFE068401CE0600120A07068460078CF
:10D85000FEF722FE38BD0000342B002010B5002852
:10D8600001D1FFF76FFB10BD8207D30EFF229A4054
:10D870008907090E10B5994000280BDA03071B0F22
:10D88000083B9C080C4BA400E318DC6994430C4350
:10D89000DC6107E08408094BA400E4182368934383
:10D8A0000B432360C106C90E01208840044908606B
:10D8B0000449086010BD000000ED00E000E400E055
:10D8C00080E200E000E100E0F3B581B0054600F041
:10D8D0004DFC1F4F0028284617D0FFF70DFBC0193D
:10D8E0002030007F8009032802D001280BD005E0FA
:10D8F00018480069E840C007C00F04D0032128463B
:10D9000000F04BFAFEBD0221F9E700F03BFC0028D5
:10D91000F8D02846FFF7F0FA04468000C11D0E4AF1
:10D92000F9318018026989B2012632430261084642
:10D9300000F058FA02980028E4D02846FFF7DCFAF5
:10D94000800038580028DDD00448A6404660FEBD5F
:10D95000482B002000050050006500400063004097
:10D96000FEB5044625480E460019202141560027E1
:10D97000C8171346401C01D008273CE0F27819462E
:10D980002046FFF795FA0546401C33D0B0780028B2
:10D990000BD005200007A100091807200002091874
:10D9A000086802229043086007E00021737820464F
:10D9B00000910A46019100F0B5F9F078002810D0E6
:10D9C0000F48AA001018317802690E4B1A40026104
:10D9D000E206D20C8907890B0A4301690A430261F6
:10D9E00009E00648327840192030017F9201114346
:10D9F000017700E004273846FEBD0000482B0020D8
:10DA000000650040FFE0FCFF70B5144D2879002848
:10DA100001D0082070BD114900204039421E0B186A
:10DA20002033401CC0B21A702028F8D300242046AE
:10DA3000FFF730FA641CE4B2082CF8D30321062067
:10DA4000FFF712FFFF207D3000F0CCF901200449E0
:10DA5000C007486001202871002070BD882B00207D
:10DA60000063004002480079002800D00120704780
:10DA7000882B0020F8B506460F4600791C21484344
:10DA80001A4915464418E07E002801D00820F8BD48
:10DA900039463046FEF716FD656038692060284635
:10DAA0000025002813D0FF223068397F1D328550B1
:10DAB000FF22306845328550032330681B020C4A30
:10DAC000C01842603068000B40B2FFF7CDFE05225F
:10DAD00030680421120280180160E5752576A5756D
:10DAE0000121E1762846A576F8BD0000902B0020A4
:10DAF00080000200F8B503791C246343134C812590
:10DB00001C19032766680023AD003F02002E02D0D7
:10DB10000668F619B560E67D002E0ED0237E002B38
:10DB200007D06168002902D00068C0194560112043
:10DB3000F8BD21610123227604E0E2750025E16051
:10DB40006576257600F01AF8F8BD0000902B0020CD
:10DB500070B5044600791C21074D48434019807E6A
:10DB6000002808D1204600F0BCFB20791C220121AE
:10DB700050434019817670BD902B0020F8B50446C3
:10DB800000791C21484326494518A87E184302D134
:10DB9000204600F0A6FB6868002808D081210322F7
:10DBA000206889001202801841600020F8BDFF2023
:10DBB0004530216800220A50FF212531206800F0FD
:10DBC00023F90646FF210931206800F01DF9009075
:10DBD000FF214531206800F017F9074600983843C7
:10DBE0003043E9D03046384307D12946206800F059
:10DBF0005BFBE87D697E8842DED80020E875002E58
:10DC000001D00320F8BD002F01D00F20F8BDA97E60
:10DC100001200029216801D00860C6E74860C4E7F8
:10DC2000902B002070B505460C4600791C21484316
:10DC300008494318284600F055F8002801D0112063
:10DC400070BD9A7500209C609882284600F004F808
:10DC500070BD0000902B0020F8B5044600791C210F
:10DC600048431F4900264518FF2720681D37C65125
:10DC70002068012181602946206800F08FFD6968D5
:10DC8000002913D027E0FF270137FF211D3120682D
:10DC900000F0BAF8002802D1A88AB842F5D1A88AC3
:10DCA000B84203D02946206800F078FDA88AA97DF3
:10DCB0008842E8D3A98AC81FF9380ED0FF271D373C
:10DCC0003946206800F0A0F80028F9D0206801212A
:10DCD000C1600020A8753046F8BD0F26F9E70000A6
:10DCE000902B002000791C21484303494018807D77
:10DCF000002800D001207047902B002070B5520002
:10DD00000A439900049D0A432902059E0A433104EF
:10DD100005240A432407800007210019090240183E
:10DD2000026070BD70B552000A439900049D0A4319
:10DD30002902059E0A43310405240A432407800072
:10DD40000721001909024018026070BD70B5520029
:10DD50000A439900049D0A432902059E0A4331049F
:10DD600005240A43240780000721001909024018EE
:10DD7000026070BD1CB500220B4600921146019254
:10DD8000FFF7E4FF1CBD1CB5002100910B460122EA
:10DD900001911146FFF7DAFF1CBD05221207800032
:10DDA0008218072000021018026803231B049A43FC
:10DDB0000260026809040A430260704738B5084BE4
:10DDC00005241B68009324026B46411805E085007A
:10DDD0005D592D192D69401C20C28142F7D838BDEC
:10DDE000F4EC010002494018002101607047000076
:10DDF00000600040034940180068012800D000205E
:10DE000070470000006000404058002800D001200A
:10DE100070470322120280184068084000D0012099
:10DE200070470000F3B583B00C460A8809210398B7
:10DE300089014718F88B82425ED1B87E642148433D
:10DE4000039946186088002843D120460830029084
:10DE50003579207A2818052800D90520307100204E
:10DE600001901AE001980A21484302990A224118B8
:10DE700012206843801900900A30891CFDF748F988
:10DE80000098002181820098C18200980183009847
:10DE900041830198401C6D1C01903079A842E1D863
:10DEA00012204543A9190A88B97E6423039859436F
:10DEB0000818008982420CD23079052809D078767A
:10DEC00021880398FFF720F8010015D00020F8768C
:10DED00009E000257D76228869460398FFF7A2F8BD
:10DEE00001000BD0FD7622880398FFF725F90A4838
:10DEF000032101702188418005B0F0BD684600789B
:10DF00000028F9D0228801210398FFF7CDF8218855
:10DF1000039800F0B3F8EFE7AC280020F3B581B028
:10DF20000C460A880921019889014518E88B82422C
:10DF30005CD1A87E64214843019922464318687E3B
:10DF400012214843C018618808320A3000292CD0B9
:10DF50002EE006264E43B618B446B68829273F025F
:10DF6000F61B0AD0012E0CD0022E02D0082E0FD1A3
:10DF70000BE06646768846810AE0664676888681AA
:10DF800006E066467688C68102E0664676880682A6
:10DF90004689002E08D08689002E05D0C689002E1D
:10DFA00002D0068A002E03D1491C16888E42D0D892
:10DFB000002668460670687E1979401C884203D1A5
:10DFC00001206946087016E0687622886946019843
:10DFD000FFF728F801000AD0EE7622880198FFF7B3
:10DFE000ABF80A480321017021884180FEBD6846D4
:10DFF00000780028FAD0228801210198FFF754F810
:10E000002188019800F03AF8FEBD0000AC280020FD
:10E0100070B50646092080010C463518A87E64219B
:10E02000484381192288E88B82420AD160880028FF
:10E0300008D000213046FFF737F82188304600F03D
:10E040001DF870BD62890A80A2894A80E289CA806F
:10E05000208A088121883046FEF756FF0100F0D063
:10E060000020E87622883046FFF766F80248032150
:10E0700001702188418070BDAC280020F8B50746AA
:10E08000092080013C18207F0E46401CC0B2144974
:10E090002077C968002588421FD26576A07E64215A
:10E0A000401CC0B24143CA19A0760E4980004018F6
:10E0B000018811804088508015710121304690DF21
:10E0C000010009D0E57632463846FFF735F80548B5
:10E0D0000321183001704680F8BDE576F7E70000AF
:10E0E000342000209428002030B587B004AA0C46C4
:10E0F000511C4B1C8D1C019303920291009505ABA2
:10E100000AA1521DFDF760F8062806D010A10020D4
:10E11000FDF7ECFC002007B030BD062204A9601C0E
:10E12000FCF7F6FF002020700120F4E72532686834
:10E13000783A25326868783A25326868783A253224
:10E140006868783A25326868783A253268687800D5
:10E15000496E76616C6964204D414320616464724C
:10E1600065737320666F726D61740A000449081844
:10E1700020214156042901DB01207047002070470F
:10E18000482B00200449081820214156042901D2B7
:10E190000120704700207047482B002070B51F25D4
:10E1A0006D032878FF2818D00C4C00200C4EE0603E
:10E1B00009E0411980193722FCF7AAFFE068401CEA
:10E1C000E0600A2804D237214843295CFF29F0D1B6
:10E1D000E068002800D00120207070BD00200020E1
:10E1E000C4210020F0B50C4B00210A4ADC680CE089
:10E1F0008D00AE18B6788778BE4205D1555B06888B
:10E20000B54201D15868F0BD491CA142F0D30020AD
:10E21000F0BD0000942800203420002070B50F4D80
:10E22000E968884219D204460D4E08E03720604361
:10E230008019014637313722FCF76AFF641CE86811
:10E24000401E8442F2D3E8683721401EE86048430C
:10E250008019FCF776FF00F0D3FC70BD0020002091
:10E26000C421002070B501240B49600408600B49EB
:10E2700040108860094940398860094D6C602F2042
:10E28000FFF796FAAC60074D00242F20AC60FFF733
:10E290008FFAAC7070BD000080E100E040130140D7
:10E2A000001001404420002030B5FF220523CD7D21
:10E2B000002409321B02C318002D8450986905D030
:10E2C0004B7ECA68D054487E401C487630BD1FB58E
:10E2D00001246B461C701972019206C8684690476B
:10E2E0001FBDFF23253302680021D150FF230268A0
:10E2F0000933D150006801210160704700B50B4817
:10E3000089B0407900280DD0084820308ADF03000A
:10E310000AD007A220216846FDF7F0FC69460020DC
:10E32000FDF7E4FB09B000BD07A1F8E700200020DD
:10E330005363616E207374617274206661696C65E9
:10E34000643A2025750A00005363616E6E696E673A
:10E3500020737461727465642E2E2E0A0000000012
:10E3600010B50446FDF702FD00280CD0A007C00E32
:10E37000002C0ADA2107090F08398908144A890094
:10E380008918C96906E0134810BDA108124A89001E
:10E3900089180968C1400806800F042811D2002896
:10E3A0000FD002280DD00D494B68E206D20E012095
:10E3B0009040002B08D0620992008B5803438B5089
:10E3C00004E00448401C10BD05490860002010BD51
:10E3D00000ED00E00120000000E400E078200020D3
:10E3E00000E100E010B50446154890B0007900281F
:10E3F0000ED02046FCF7BDFE82B221461148FEF742
:10E40000C9FC030006D01048834206D10FA212E0D7
:10E4100018A10AE0234620A202E0082B0AD021A27C
:10E4200040216846FDF76AFC69460020FDF75EFB67
:10E4300010B010BD20A240216846FDF75FFCF3E755
:10E440000020002084270020013400005B54582065
:10E450006661696C65643A204E6F746966696361D0
:10E4600074696F6E73206E6F7420656E61626C6587
:10E47000645D0A005B54585D204E5553206E6F74E6
:10E480002072656164792C2063616E6E6F742073F5
:10E49000656E640A000000005B54585D2025730A15
:10E4A000000000005B5458206661696C65643A2086
:10E4B00025755D0A000000005B5458206661696C98
:10E4C00065643A20496E76616C6964207374617486
:10E4D000652C204E5553206E6F7420646973636FF2
:10E4E00076657265645D0A00002803D00249C86041
:10E4F000002070470E207047802000201CB5034983
:10E5000001910091694660DF1CBD000000200020E1
:10E5100070B50E460546144614211046FCF711FE50
:10E520000120002120802161217326726572002D57
:10E5300000D0A072002070BD10B5FDF76BFE10BDBD
:10E54000F8B5002903D08C070025002C01D0072046
:10E55000F8BD0E4E0E4FB1607280736039680124B1
:10E56000214003D00A49254680310C60094910DF5B
:10E57000002803D0002DEBD03C60F8BD3470FFF7CD
:10E5800053F91620FFF7ECFEF8BD000080200020B4
:10E5900000E100E039E50100014800787047000023
:10E5A0008020002010B50C48017800290FD0C168E8
:10E5B00000290CD0002141700121417107A10020E8
:10E5C000FDF794FAFDF7A8FEFFF798FE10BD12A123
:10E5D0000020FDF78BFA10BD0020002053776974EE
:10E5E000636820746F67676C65642C2073746F7048
:10E5F00070696E672055415254207265636570746E
:10E60000696F6E2C207374617274696E6720424C5E
:10E6100045207363616E0A004E6F2070726F6475DF
:10E6200063747320696E20666C6173682C2069675F
:10E630006E6F72696E672073776974636820746F98
:10E6400067676C650A000000FEB51F4C0025A768CF
:10E65000606802906846FEF787FD0190FEF7B0FE05
:10E6600006460198002822D000230098616817E030
:10E670000E680A46864202D9301A086012E0801BF2
:10E68000F31800261660D668D169B446002E07D06C
:10E69000FE183602360A566066469660D561154603
:10E6A0000029E5D128466160FEF7E0FE06E0284635
:10E6B000FEF7DCFE002801D1002E02D00298FEF702
:10E6C00055FC0020E070FEBD4420002001200249DE
:10E6D000000508607047000000E200E010B50E4B36
:10E6E0005968002906D002680C68A24204D8A21A10
:10E6F0000A60C161586010BD0B4604E00B46C96951
:10E70000121B002904D00C689442F7D3A41A0C60A1
:10E710000260C161D86110BD44200020F8B51D4DD4
:10E720006C68002C34D01C4800274068A968401A47
:10E730000602360A2068B04218D8361AC71922468F
:10E74000107CE46900280FD000201074EB68002BC7
:10E7500007D0916950699847002805D0FDF768FDFA
:10E7600002E0516990698847002CE3D129786878E4
:10E77000814206D1401CC0B26870022801D100203D
:10E78000687004490006800D18310F50FFF79EFF96
:10E79000F8BD00004420002000150140FF221D327A
:10E7A000002383508B8A8A68D25C8B8A5B1C8B82A5
:10E7B000052109024018C26170471FB500226B464F
:10E7C0001A70197281680191827506C8684690476F
:10E7D0001FBD0000F0B56A4D017828468FB020308B
:10E7E0000E9011380D9010300C900830EF1F00265D
:10E7F000644CF93F0B90002916D0022903D162A185
:10E800000020FDF773F90FB0F0BD08A8017A0D29BB
:10E8100010D00A290ED02089FF2805D23954401C77
:10E8200020810846FDF7FAFD0AA8FDF783FD0028C0
:10E83000EBD0E8E7208900287ED03E54A078052858
:10E840000ED01F2257495848FCF786FC5648C67719
:10E85000A0780300FDF76EFA051C27323D538F00A8
:10E8600052A15048FCF78CFC002810D11F20400317
:10E87000FEF7AEFC4C484F49A030FCF762FCE66066
:10E8800026704DA10020FDF731F9FDF745FD71E03F
:10E890003B494548FFF728FC00286BD00120A070B9
:10E8A000414B49A220E007223F49E81DFCF754FCF8
:10E8B000AE730220A0703C4B48A215E00F223A49EB
:10E8C0000D98FCF749FCAE770320A070364B48A2A8
:10E8D0000AE0072234490C98FCF73EFC0E98324BB4
:10E8E00086710420A07047A22F4880212030FDF7B8
:10E8F00005FA2D4900202031FDF7F8F83BE00F2202
:10E9000029490B98FCF728FC0E988675E0680A28C0
:10E910002CD23721484324493722A03140181849C6
:10E92000FCF7F6FBE068401CE06000F069F90BA81A
:10E93000134B07C8DB1D00E01FE006930792089108
:10E9400009906B78AA78E9782879059302AB07C318
:10E950006979A8790090019113482F4A80212030CD
:10E96000E368FDF7CBF91049203100E02BA100202E
:10E97000FDF7BCF8A670268156E7A67054E70000A4
:10E98000EA240020002000205541525420636F6D7E
:10E990006D756E69636174696F6E206572726F72F6
:10E9A0000A000000EA230020242100206572617320
:10E9B0006500000026020000466C617368206572E5
:10E9C000617365640A000000526563656976656479
:10E9D000204D41433A2025730A00000052656365CB
:10E9E000697665642049443A2025730A00000000D6
:10E9F0005265636569766564204E616D653A2025D0
:10EA0000730A000052656365697665642050726917
:10EA100063653A2025730A0058ED010050726F6457
:10EA2000756374206C6973742066756C6C0A0000E1
:10EA30007CB50178264D002934D001290CD002295B
:10EA40002DD16A461170C068691C01900122C81D51
:10EA5000FFF750F8684630E0406801781D48FDF740
:10EA600014FC01261B4C002803D069460E7001904F
:10EA700006E0A068E168814205D000206946087080
:10EA8000084669688847A068E168081AA188884232
:10EA900006D80F490122491CC81DFFF72BF87CBD81
:10EAA000AE707CBD0B480A491030FDF7D1FB002841
:10EAB00006D00320694608706846696888477CBDAF
:10EAC0000349012208460830FFF7ACF87CBD00007E
:10EAD00064200020AC2B0020F0B50C46012185B04D
:10EAE00005464902FFF795F9032109026F18002630
:10EAF000002826D0FF2125312846FFF785F9002878
:10EB00001FD0FF2025302E5081208000B860A07ECD
:10EB1000002801D1012068600221684601700920A7
:10EB2000C0012918086808600390E17D68460172F9
:10EB3000E0680190E675267606CC6846083C90476A
:10EB40002DE004212846FFF764F9002827D0FF2193
:10EB500009312846FFF758F9002820D021462846D9
:10EB6000FFF7A2FBE07D617E884218D1207E00285D
:10EB700007D0617EE268E0752069E06026766676FF
:10EB80000AE0A07E002801D1012068608120800079
:10EB9000B860E675617EE2682046FFF798FBFF27C4
:10EBA0001D3739462846FFF72FF900280FD0A08AD5
:10EBB000A17D884204D221462846FFF7EFFD06E0FA
:10EBC000EE51A17D002902D02046FFF7F6FDFF2778
:10EBD000453739462846FFF717F900280ED0EE5181
:10EBE000A07E002801D001202860E07D002805D00B
:10EBF000E675617EE2682046FFF769FB05B0F0BD6F
:10EC0000FEB51F2676033046FEF7E2FA1948029059
:10EC100019483721C468002520464843C01C87088E
:10EC20001EE000200090A8000299019041180422E3
:10EC30006846FCF76DFA0198009982190F48012384
:10EC400043600F480368002BFCD011600168002965
:10EC5000FCD00A4A0021516001680029FCD06D1CDB
:10EC6000AF42DED80448002C01D0012100E0002191
:10EC70000170FEBDC42100200020002000E50140FD
:10EC800000E40140030000010100000710003C0007
:10EC9000000090019ECADC240EE5A9E093F3A3B521
:10ECA0000100406E030000000200000000000000B0
:10ECB000000000000000000000E0D701EA2300206F
:10ECC0000001000094270020000100009ECADC24FF
:10ECD0000EE5A9E093F3A3B50000406E010100002A
:10ECE000000002000000000002010000000000001F
:10ECF0000000000000000050FFFFFFFFFFFFFFFFCC
:10ED0000FFFFFFFFFFFFFFFF00000000000000000B
:10ED100000E0D70103000000DDDDDDDDDCBBBBDD95
:10ED2000DDDDDDDDDDDDDDDD9888888888888888AB
:10ED300077777777778888888555555666666666CB
:10ED400066666666666888888333333222222222AA
:10ED5000222222222228888D53746F7265642070CB
:10ED6000726F64756374202325753A204D41433DCD
:10ED7000253032583A253032583A253032583A2523
:10ED80003032583A253032583A253032582C204902
:10ED9000443D25732C204E616D653D25732C20501C
:10EDA000726963653D25732C2044657461696C73D9
:10EDB0003D25730A0000000041646472657373208E
:10EDC000253032583A253032583A253032583A25D3
:10EDD0003032583A253032583A25303258206E6F4A
:10EDE0007420666F756E6420696E2070726F647532
:10EDF0006374206C6973740A000000001CEE01004B
:10EE000000200020940000004EBD0100B0EE010083
:10EE100094200020041400005EBD010000010000E9
:10EE200000000000000000000000000000000000E2
:10EE300001000000000000000000000001000000D0
:10EE400000000000A0005000640000000024F40056
:10EE500000000000000000000000000000000000B2
:10EE600000000000000000000000000000000000A2
:10EE70000000000000000000000000000000000092
:10EE80000000000000000000002000400000000022
:10EE90000000000000000000000000000000000072
:10EEA0000000000000000000000000000000000062
:040000050001B0C185
:00000001FF
